Archive member included to satisfy reference by file (symbol)

esp-idf/app_update/libapp_update.a(esp_app_desc.c.obj)
                              (esp_app_desc)
esp-idf/pthread/libpthread.a(pthread.c.obj)
                              (pthread_include_pthread_impl)
esp-idf/pthread/libpthread.a(pthread_local_storage.c.obj)
                              esp-idf/pthread/libpthread.a(pthread.c.obj) (pthread_key_create)
esp-idf/esp_system/libesp_system.a(ubsan.c.obj)
                              (__ubsan_include)
esp-idf/esp_system/libesp_system.a(cpu_start.c.obj)
                              (call_start_cpu0)
esp-idf/esp_system/libesp_system.a(clk.c.obj)
                              esp-idf/esp_system/libesp_system.a(cpu_start.c.obj) (esp_clk_init)
esp-idf/esp_system/libesp_system.a(cache_err_int.c.obj)
                              esp-idf/esp_system/libesp_system.a(cpu_start.c.obj) (esp_cache_err_int_init)
esp-idf/esp_system/libesp_system.a(esp_system.c.obj)
                              esp-idf/esp_system/libesp_system.a(cpu_start.c.obj) (esp_restart_noos_dig)
esp-idf/esp_system/libesp_system.a(startup.c.obj)
                              esp-idf/esp_system/libesp_system.a(cpu_start.c.obj) (g_startup_fn)
esp-idf/esp_system/libesp_system.a(brownout.c.obj)
                              esp-idf/esp_system/libesp_system.a(startup.c.obj) (esp_brownout_init)
esp-idf/esp_system/libesp_system.a(system_internal.c.obj)
                              esp-idf/esp_system/libesp_system.a(esp_system.c.obj) (esp_restart_noos)
esp-idf/esp_system/libesp_system.a(apb_backup_dma.c.obj)
                              esp-idf/esp_system/libesp_system.a(startup.c.obj) (esp_apb_backup_dma_lock_init)
esp-idf/esp_system/libesp_system.a(panic.c.obj)
                              esp-idf/esp_system/libesp_system.a(esp_system.c.obj) (panic_abort)
esp-idf/esp_system/libesp_system.a(panic_handler.c.obj)
                              esp-idf/esp_system/libesp_system.a(panic.c.obj) (panic_restart)
esp-idf/esp_system/libesp_system.a(panic_arch.c.obj)
                              esp-idf/esp_system/libesp_system.a(panic_handler.c.obj) (panic_print_registers)
esp-idf/esp_rom/libesp_rom.a(esp_rom_uart.c.obj)
                              esp-idf/esp_system/libesp_system.a(cpu_start.c.obj) (esp_rom_uart_set_clock_baudrate)
esp-idf/hal/libhal.a(wdt_hal_iram.c.obj)
                              esp-idf/esp_system/libesp_system.a(system_internal.c.obj) (wdt_hal_init)
esp-idf/hal/libhal.a(cpu_hal.c.obj)
                              esp-idf/esp_system/libesp_system.a(panic.c.obj) (cpu_hal_set_breakpoint)
esp-idf/hal/libhal.a(uart_hal_iram.c.obj)
                              esp-idf/esp_system/libesp_system.a(panic.c.obj) (uart_hal_write_txfifo)
esp-idf/hal/libhal.a(brownout_hal.c.obj)
                              esp-idf/esp_system/libesp_system.a(brownout.c.obj) (brownout_hal_config)
esp-idf/vfs/libvfs.a(vfs.c.obj)
                              (vfs_include_syscalls_impl)
esp-idf/vfs/libvfs.a(vfs_uart.c.obj)
                              esp-idf/esp_system/libesp_system.a(startup.c.obj) (esp_vfs_dev_uart_register)
esp-idf/log/liblog.a(log.c.obj)
                              esp-idf/pthread/libpthread.a(pthread.c.obj) (esp_log_write)
esp-idf/log/liblog.a(log_freertos.c.obj)
                              esp-idf/log/liblog.a(log.c.obj) (esp_log_impl_lock)
esp-idf/heap/libheap.a(heap_caps.c.obj)
                              esp-idf/esp_system/libesp_system.a(esp_system.c.obj) (heap_caps_get_free_size)
esp-idf/heap/libheap.a(heap_caps_init.c.obj)
                              esp-idf/heap/libheap.a(heap_caps.c.obj) (registered_heaps)
esp-idf/heap/libheap.a(multi_heap.c.obj)
                              esp-idf/heap/libheap.a(heap_caps.c.obj) (multi_heap_get_allocated_size)
esp-idf/heap/libheap.a(heap_tlsf.c.obj)
                              esp-idf/heap/libheap.a(multi_heap.c.obj) (tlsf_check)
esp-idf/heap/libheap.a(memory_layout_utils.c.obj)
                              esp-idf/heap/libheap.a(heap_caps_init.c.obj) (soc_get_available_memory_region_max_count)
esp-idf/heap/libheap.a(memory_layout.c.obj)
                              esp-idf/heap/libheap.a(heap_caps_init.c.obj) (soc_memory_region_count)
esp-idf/esp_hw_support/libesp_hw_support.a(cpu_util.c.obj)
                              esp-idf/esp_system/libesp_system.a(system_internal.c.obj) (esp_cpu_reset)
esp-idf/esp_hw_support/libesp_hw_support.a(esp_clk.c.obj)
                              esp-idf/esp_system/libesp_system.a(startup.c.obj) (esp_clk_cpu_freq)
esp-idf/esp_hw_support/libesp_hw_support.a(intr_alloc.c.obj)
                              esp-idf/esp_system/libesp_system.a(cache_err_int.c.obj) (esp_intr_enable_source)
esp-idf/esp_hw_support/libesp_hw_support.a(sleep_modes.c.obj)
                              esp-idf/esp_system/libesp_system.a(startup.c.obj) (esp_sleep_config_gpio_isolate)
esp-idf/esp_hw_support/libesp_hw_support.a(regi2c_ctrl.c.obj)
                              esp-idf/hal/libhal.a(brownout_hal.c.obj) (regi2c_ctrl_write_reg_mask)
esp-idf/esp_hw_support/libesp_hw_support.a(rtc_clk.c.obj)
                              esp-idf/esp_system/libesp_system.a(clk.c.obj) (rtc_clk_32k_enable)
esp-idf/esp_hw_support/libesp_hw_support.a(rtc_init.c.obj)
                              esp-idf/esp_hw_support/libesp_hw_support.a(sleep_modes.c.obj) (rtc_vddsdio_get_config)
esp-idf/esp_hw_support/libesp_hw_support.a(rtc_sleep.c.obj)
                              esp-idf/esp_hw_support/libesp_hw_support.a(rtc_init.c.obj) (rtc_sleep_pu)
esp-idf/esp_hw_support/libesp_hw_support.a(rtc_time.c.obj)
                              esp-idf/esp_system/libesp_system.a(clk.c.obj) (rtc_clk_cal)
esp-idf/esp_hw_support/libesp_hw_support.a(memprot.c.obj)
                              esp-idf/esp_system/libesp_system.a(panic_arch.c.obj) (esp_memprot_intr_get_cpuid)
esp-idf/riscv/libriscv.a(interrupt.c.obj)
                              esp-idf/esp_hw_support/libesp_hw_support.a(intr_alloc.c.obj) (intr_handler_set)
esp-idf/riscv/libriscv.a(vectors.S.obj)
                              esp-idf/esp_system/libesp_system.a(cpu_start.c.obj) (_vector_table)
esp-idf/esp_timer/libesp_timer.a(esp_timer.c.obj)
                              esp-idf/esp_system/libesp_system.a(startup.c.obj) (esp_timer_init)
esp-idf/esp_timer/libesp_timer.a(system_time.c.obj)
                              esp-idf/esp_timer/libesp_timer.a(esp_timer.c.obj) (esp_timer_impl_init_system_time)
esp-idf/esp_timer/libesp_timer.a(esp_timer_impl_systimer.c.obj)
                              esp-idf/esp_hw_support/libesp_hw_support.a(sleep_modes.c.obj) (esp_timer_private_lock)
esp-idf/freertos/libfreertos.a(port.c.obj)
                              esp-idf/pthread/libpthread.a(pthread.c.obj) (vPortExitCritical)
esp-idf/freertos/libfreertos.a(portasm.S.obj)
                              esp-idf/riscv/libriscv.a(vectors.S.obj) (rtos_int_enter)
esp-idf/freertos/libfreertos.a(port_common.c.obj)
                              esp-idf/freertos/libfreertos.a(port.c.obj) (esp_startup_start_app_common)
esp-idf/freertos/libfreertos.a(port_systick.c.obj)
                              esp-idf/freertos/libfreertos.a(port.c.obj) (vPortSetupTimer)
esp-idf/freertos/libfreertos.a(queue.c.obj)
                              esp-idf/vfs/libvfs.a(vfs.c.obj) (xQueueGenericCreate)
esp-idf/freertos/libfreertos.a(tasks.c.obj)
                              esp-idf/pthread/libpthread.a(pthread.c.obj) (xTaskCreatePinnedToCore)
esp-idf/freertos/libfreertos.a(FreeRTOS-openocd.c.obj)
                              (uxTopUsedPriority)
esp-idf/freertos/libfreertos.a(list.c.obj)
                              esp-idf/freertos/libfreertos.a(queue.c.obj) (vListInitialise)
esp-idf/newlib/libnewlib.a(abort.c.obj)
                              esp-idf/pthread/libpthread.a(pthread.c.obj) (abort)
esp-idf/newlib/libnewlib.a(heap.c.obj)
                              esp-idf/pthread/libpthread.a(pthread.c.obj) (malloc)
esp-idf/newlib/libnewlib.a(locks.c.obj)
                              esp-idf/vfs/libvfs.a(vfs.c.obj) (_lock_acquire)
esp-idf/newlib/libnewlib.a(pthread.c.obj)
                              (newlib_include_pthread_impl)
esp-idf/newlib/libnewlib.a(reent_init.c.obj)
                              esp-idf/esp_system/libesp_system.a(startup.c.obj) (esp_reent_init)
esp-idf/newlib/libnewlib.a(newlib_init.c.obj)
                              esp-idf/esp_system/libesp_system.a(startup.c.obj) (esp_newlib_init)
esp-idf/newlib/libnewlib.a(syscalls.c.obj)
                              esp-idf/newlib/libnewlib.a(newlib_init.c.obj) (_kill_r)
esp-idf/newlib/libnewlib.a(time.c.obj)
                              esp-idf/newlib/libnewlib.a(newlib_init.c.obj) (_gettimeofday_r)
esp-idf/newlib/libnewlib.a(esp_time_impl.c.obj)
                              esp-idf/newlib/libnewlib.a(time.c.obj) (esp_time_impl_get_time_since_boot)
esp-idf/cxx/libcxx.a(cxx_guards.cpp.obj)
                              (__cxa_guard_dummy)
esp-idf/main/libmain.a(hello_world_main.c.obj)
                              (app_main)
esp-idf/efuse/libefuse.a(esp_efuse_table.c.obj)
                              esp-idf/esp_hw_support/libesp_hw_support.a(rtc_init.c.obj) (ESP_EFUSE_DIG_DBIAS_HVT)
esp-idf/efuse/libefuse.a(esp_efuse_fields.c.obj)
                              esp-idf/esp_hw_support/libesp_hw_support.a(rtc_init.c.obj) (esp_efuse_get_chip_ver)
esp-idf/efuse/libefuse.a(esp_efuse_api.c.obj)
                              esp-idf/esp_hw_support/libesp_hw_support.a(rtc_init.c.obj) (esp_efuse_read_field_blob)
esp-idf/efuse/libefuse.a(esp_efuse_utility.c.obj)
                              esp-idf/efuse/libefuse.a(esp_efuse_api.c.obj) (esp_efuse_utility_process)
esp-idf/efuse/libefuse.a(esp_efuse_utility.c.obj)
                              esp-idf/efuse/libefuse.a(esp_efuse_utility.c.obj) (esp_efuse_utility_clear_program_registers)
esp-idf/efuse/libefuse.a(esp_efuse_api_key_esp32xx.c.obj)
                              esp-idf/efuse/libefuse.a(esp_efuse_utility.c.obj) (esp_efuse_get_coding_scheme)
esp-idf/driver/libdriver.a(gpio.c.obj)
                              esp-idf/esp_hw_support/libesp_hw_support.a(sleep_modes.c.obj) (gpio_pullup_en)
esp-idf/driver/libdriver.a(periph_ctrl.c.obj)
                              esp-idf/esp_system/libesp_system.a(clk.c.obj) (periph_module_enable)
esp-idf/driver/libdriver.a(uart.c.obj)
                              esp-idf/vfs/libvfs.a(vfs_uart.c.obj) (uart_set_word_length)
esp-idf/esp_pm/libesp_pm.a(pm_impl.c.obj)
                              esp-idf/esp_hw_support/libesp_hw_support.a(sleep_modes.c.obj) (periph_inform_out_light_sleep_overhead)
esp-idf/esp_pm/libesp_pm.a(pm_locks.c.obj)
                              esp-idf/esp_pm/libesp_pm.a(pm_impl.c.obj) (esp_pm_lock_create)
esp-idf/bootloader_support/libbootloader_support.a(bootloader_mem.c.obj)
                              esp-idf/esp_system/libesp_system.a(cpu_start.c.obj) (bootloader_init_mem)
esp-idf/bootloader_support/libbootloader_support.a(bootloader_flash_config_esp32c3.c.obj)
                              esp-idf/esp_system/libesp_system.a(cpu_start.c.obj) (bootloader_flash_update_id)
esp-idf/bootloader_support/libbootloader_support.a(flash_qio_mode.c.obj)
                              esp-idf/bootloader_support/libbootloader_support.a(bootloader_flash_config_esp32c3.c.obj) (bootloader_read_flash_id)
esp-idf/bootloader_support/libbootloader_support.a(bootloader_flash.c.obj)
                              esp-idf/bootloader_support/libbootloader_support.a(flash_qio_mode.c.obj) (bootloader_execute_flash_command)
esp-idf/spi_flash/libspi_flash.a(cache_utils.c.obj)
                              esp-idf/esp_system/libesp_system.a(panic_handler.c.obj) (spi_flash_cache_enabled)
esp-idf/spi_flash/libspi_flash.a(flash_mmap.c.obj)
                              esp-idf/bootloader_support/libbootloader_support.a(bootloader_flash.c.obj) (spi_flash_mmap)
esp-idf/spi_flash/libspi_flash.a(flash_ops.c.obj)
                              esp-idf/esp_system/libesp_system.a(cpu_start.c.obj) (esp_mspi_pin_init)
esp-idf/spi_flash/libspi_flash.a(esp_flash_api.c.obj)
                              esp-idf/bootloader_support/libbootloader_support.a(bootloader_flash.c.obj) (spi_flash_erase_range)
esp-idf/spi_flash/libspi_flash.a(esp_flash_spi_init.c.obj)
                              esp-idf/esp_system/libesp_system.a(startup.c.obj) (esp_flash_init_default_chip)
esp-idf/spi_flash/libspi_flash.a(spi_flash_os_func_app.c.obj)
                              esp-idf/spi_flash/libspi_flash.a(esp_flash_spi_init.c.obj) (esp_flash_init_os_functions)
esp-idf/spi_flash/libspi_flash.a(spi_flash_os_func_noos.c.obj)
                              esp-idf/spi_flash/libspi_flash.a(esp_flash_api.c.obj) (esp_flash_app_disable_os_functions)
esp-idf/spi_flash/libspi_flash.a(partition.c.obj)
                              esp-idf/spi_flash/libspi_flash.a(flash_ops.c.obj) (esp_partition_main_flash_region_safe)
esp-idf/spi_flash/libspi_flash.a(spi_flash_chip_drivers.c.obj)
                              esp-idf/spi_flash/libspi_flash.a(esp_flash_api.c.obj) (esp_flash_registered_chips)
esp-idf/spi_flash/libspi_flash.a(spi_flash_chip_generic.c.obj)
                              esp-idf/spi_flash/libspi_flash.a(spi_flash_chip_drivers.c.obj) (esp_flash_chip_generic)
esp-idf/spi_flash/libspi_flash.a(spi_flash_chip_issi.c.obj)
                              esp-idf/spi_flash/libspi_flash.a(spi_flash_chip_drivers.c.obj) (esp_flash_chip_issi)
esp-idf/spi_flash/libspi_flash.a(spi_flash_chip_mxic.c.obj)
                              esp-idf/spi_flash/libspi_flash.a(spi_flash_chip_drivers.c.obj) (esp_flash_chip_mxic)
esp-idf/spi_flash/libspi_flash.a(spi_flash_chip_gd.c.obj)
                              esp-idf/spi_flash/libspi_flash.a(spi_flash_chip_drivers.c.obj) (esp_flash_chip_gd)
esp-idf/spi_flash/libspi_flash.a(spi_flash_chip_winbond.c.obj)
                              esp-idf/spi_flash/libspi_flash.a(spi_flash_chip_gd.c.obj) (spi_flash_chip_winbond_page_program)
esp-idf/spi_flash/libspi_flash.a(spi_flash_chip_boya.c.obj)
                              esp-idf/spi_flash/libspi_flash.a(spi_flash_chip_drivers.c.obj) (esp_flash_chip_boya)
esp-idf/spi_flash/libspi_flash.a(memspi_host_driver.c.obj)
                              esp-idf/spi_flash/libspi_flash.a(esp_flash_spi_init.c.obj) (memspi_host_init_pointers)
esp-idf/esp_system/libesp_system.a(esp_err.c.obj)
                              esp-idf/vfs/libvfs.a(vfs_uart.c.obj) (_esp_error_check_failed)
esp-idf/esp_system/libesp_system.a(crosscore_int.c.obj)
                              esp-idf/freertos/libfreertos.a(port_common.c.obj) (esp_crosscore_int_init)
esp-idf/esp_system/libesp_system.a(freertos_hooks.c.obj)
                              esp-idf/freertos/libfreertos.a(tasks.c.obj) (esp_vApplicationTickHook)
esp-idf/esp_system/libesp_system.a(int_wdt.c.obj)
                              esp-idf/freertos/libfreertos.a(port_common.c.obj) (esp_int_wdt_init)
esp-idf/esp_system/libesp_system.a(task_wdt.c.obj)
                              esp-idf/freertos/libfreertos.a(port_common.c.obj) (esp_task_wdt_init)
esp-idf/hal/libhal.a(gpio_hal.c.obj)
                              esp-idf/driver/libdriver.a(gpio.c.obj) (gpio_hal_intr_enable_on_core)
esp-idf/hal/libhal.a(uart_hal.c.obj)
                              esp-idf/driver/libdriver.a(uart.c.obj) (uart_hal_set_sclk)
esp-idf/hal/libhal.a(spi_flash_hal.c.obj)
                              esp-idf/spi_flash/libspi_flash.a(memspi_host_driver.c.obj) (spi_flash_hal_init)
esp-idf/hal/libhal.a(spi_flash_hal_iram.c.obj)
                              esp-idf/spi_flash/libspi_flash.a(memspi_host_driver.c.obj) (spi_flash_hal_poll_cmd_done)
esp-idf/hal/libhal.a(spi_flash_encrypt_hal_iram.c.obj)
                              esp-idf/spi_flash/libspi_flash.a(spi_flash_chip_generic.c.obj) (spi_flash_encryption_hal_enable)
esp-idf/hal/libhal.a(interrupt_controller_hal.c.obj)
                              esp-idf/esp_hw_support/libesp_hw_support.a(intr_alloc.c.obj) (interrupt_controller_hal_desc_level)
esp-idf/hal/libhal.a(spi_flash_hal_gpspi.c.obj)
                              esp-idf/spi_flash/libspi_flash.a(memspi_host_driver.c.obj) (spi_flash_hal_gpspi_poll_cmd_done)
esp-idf/hal/libhal.a(systimer_hal.c.obj)
                              esp-idf/esp_timer/libesp_timer.a(esp_timer_impl_systimer.c.obj) (systimer_hal_init)
esp-idf/hal/libhal.a(rtc_cntl_hal.c.obj)
                              esp-idf/esp_hw_support/libesp_hw_support.a(sleep_modes.c.obj) (rtc_cntl_hal_dma_link_init)
esp-idf/soc/libsoc.a(gpio_periph.c.obj)
                              esp-idf/driver/libdriver.a(gpio.c.obj) (GPIO_HOLD_MASK)
esp-idf/soc/libsoc.a(spi_periph.c.obj)
                              esp-idf/spi_flash/libspi_flash.a(esp_flash_spi_init.c.obj) (spi_periph_signal)
esp-idf/soc/libsoc.a(uart_periph.c.obj)
                              esp-idf/driver/libdriver.a(uart.c.obj) (uart_periph_signal)
esp-idf/esp_hw_support/libesp_hw_support.a(cpu_util_esp32c3.c.obj)
                              esp-idf/bootloader_support/libbootloader_support.a(bootloader_mem.c.obj) (esp_cpu_configure_region_protection)
esp-idf/esp_hw_support/libesp_hw_support.a(chip_info.c.obj)
                              esp-idf/main/libmain.a(hello_world_main.c.obj) (esp_chip_info)
esp-idf/riscv/libriscv.a(instruction_decode.c.obj)
                              esp-idf/hal/libhal.a(interrupt_controller_hal.c.obj) (riscv_decode_offset_from_jal_instruction)
esp-idf/esp_common/libesp_common.a(esp_err_to_name.c.obj)
                              esp-idf/esp_system/libesp_system.a(esp_err.c.obj) (esp_err_to_name)
esp-idf/esp_ringbuf/libesp_ringbuf.a(ringbuf.c.obj)
                              esp-idf/driver/libdriver.a(uart.c.obj) (xRingbufferCreate)
esp-idf/driver/libdriver.a(spi_common.c.obj)
                              esp-idf/spi_flash/libspi_flash.a(esp_flash_spi_init.c.obj) (spicommon_bus_using_iomux)
esp-idf/driver/libdriver.a(spi_bus_lock.c.obj)
                              esp-idf/driver/libdriver.a(spi_common.c.obj) (spi_bus_init_lock)
esp-idf/driver/libdriver.a(gdma.c.obj)
                              esp-idf/driver/libdriver.a(spi_common.c.obj) (gdma_new_channel)
esp-idf/app_update/libapp_update.a(esp_ota_ops.c.obj)
                              esp-idf/spi_flash/libspi_flash.a(partition.c.obj) (esp_ota_get_running_partition)
esp-idf/bootloader_support/libbootloader_support.a(bootloader_common.c.obj)
                              esp-idf/spi_flash/libspi_flash.a(partition.c.obj) (bootloader_common_get_sha256_of_partition)
esp-idf/bootloader_support/libbootloader_support.a(bootloader_common_loader.c.obj)
                              esp-idf/app_update/libapp_update.a(esp_ota_ops.c.obj) (bootloader_common_ota_select_crc)
esp-idf/bootloader_support/libbootloader_support.a(bootloader_utility.c.obj)
                              esp-idf/bootloader_support/libbootloader_support.a(bootloader_common.c.obj) (bootloader_sha256_flash_contents)
esp-idf/bootloader_support/libbootloader_support.a(esp_image_format.c.obj)
                              esp-idf/app_update/libapp_update.a(esp_ota_ops.c.obj) (esp_image_verify)
esp-idf/bootloader_support/libbootloader_support.a(flash_partitions.c.obj)
                              esp-idf/bootloader_support/libbootloader_support.a(bootloader_common.c.obj) (esp_partition_table_verify)
esp-idf/bootloader_support/libbootloader_support.a(bootloader_efuse_esp32c3.c.obj)
                              esp-idf/bootloader_support/libbootloader_support.a(bootloader_common_loader.c.obj) (bootloader_common_get_chip_revision)
esp-idf/bootloader_support/libbootloader_support.a(bootloader_sha.c.obj)
                              esp-idf/bootloader_support/libbootloader_support.a(bootloader_utility.c.obj) (bootloader_sha256_start)
esp-idf/bootloader_support/libbootloader_support.a(bootloader_random_esp32c3.c.obj)
                              esp-idf/bootloader_support/libbootloader_support.a(bootloader_utility.c.obj) (bootloader_random_disable)
esp-idf/hal/libhal.a(gdma_hal.c.obj)
                              esp-idf/driver/libdriver.a(gdma.c.obj) (gdma_hal_init)
esp-idf/soc/libsoc.a(gdma_periph.c.obj)
                              esp-idf/driver/libdriver.a(gdma.c.obj) (gdma_periph_signals)
esp-idf/newlib/libnewlib.a(stdatomic.c.obj)
                              esp-idf/driver/libdriver.a(spi_common.c.obj) (__atomic_compare_exchange_1)
esp-idf/mbedtls/mbedtls/library/libmbedcrypto.a(esp_sha256.c.obj)
                              esp-idf/bootloader_support/libbootloader_support.a(bootloader_sha.c.obj) (mbedtls_sha256_init)
esp-idf/mbedtls/mbedtls/library/libmbedcrypto.a(sha.c.obj)
                              esp-idf/mbedtls/mbedtls/library/libmbedcrypto.a(esp_sha256.c.obj) (esp_sha_write_digest_state)
esp-idf/mbedtls/mbedtls/library/libmbedcrypto.a(esp_sha_gdma_impl.c.obj)
                              esp-idf/mbedtls/mbedtls/library/libmbedcrypto.a(sha.c.obj) (esp_sha_dma_start)
esp-idf/mbedtls/mbedtls/library/libmbedcrypto.a(esp_crypto_shared_gdma.c.obj)
                              esp-idf/mbedtls/mbedtls/library/libmbedcrypto.a(esp_sha_gdma_impl.c.obj) (esp_crypto_shared_gdma_start)
esp-idf/hal/libhal.a(sha_hal.c.obj)
                              esp-idf/mbedtls/mbedtls/library/libmbedcrypto.a(sha.c.obj) (sha_hal_wait_idle)
esp-idf/esp_hw_support/libesp_hw_support.a(esp_crypto_lock.c.obj)
                              esp-idf/mbedtls/mbedtls/library/libmbedcrypto.a(sha.c.obj) (esp_crypto_sha_aes_lock_acquire)
/home/xy/.espressif/tools/riscv32-esp-elf/esp-2021r1-8.4.0/riscv32-esp-elf/bin/../lib/gcc/riscv32-esp-elf/8.4.0/rv32im/ilp32\libgcc.a(_ffssi2.o)
                              esp-idf/esp_hw_support/libesp_hw_support.a(intr_alloc.c.obj) (__ffssi2)
/home/xy/.espressif/tools/riscv32-esp-elf/esp-2021r1-8.4.0/riscv32-esp-elf/bin/../lib/gcc/riscv32-esp-elf/8.4.0/rv32im/ilp32\libgcc.a(_clz.o)
                              /home/xy/.espressif/tools/riscv32-esp-elf/esp-2021r1-8.4.0/riscv32-esp-elf/bin/../lib/gcc/riscv32-esp-elf/8.4.0/rv32im/ilp32\libgcc.a(_ffssi2.o) (__clz_tab)
/home/xy/.espressif/tools/riscv32-esp-elf/esp-2021r1-8.4.0/riscv32-esp-elf/bin/../lib/gcc/riscv32-esp-elf/8.4.0/rv32im/ilp32\libgcc.a(_clzsi2.o)
                              esp-idf/heap/libheap.a(multi_heap.c.obj) (__clzsi2)
/home/xy/.espressif/tools/riscv32-esp-elf/esp-2021r1-8.4.0/riscv32-esp-elf/bin/../lib/gcc/riscv32-esp-elf/8.4.0/rv32im/ilp32\libgcc.a(_popcountsi2.o)
                              esp-idf/efuse/libefuse.a(esp_efuse_utility.c.obj) (__popcountsi2)
/home/xy/.espressif/tools/riscv32-esp-elf/esp-2021r1-8.4.0/riscv32-esp-elf/bin/../lib/gcc/riscv32-esp-elf/8.4.0/rv32im/ilp32\libgcc.a(_bswapdi2.o)
                              esp-idf/spi_flash/libspi_flash.a(spi_flash_chip_generic.c.obj) (__bswapdi2)
/home/xy/.espressif/tools/riscv32-esp-elf/esp-2021r1-8.4.0/riscv32-esp-elf/bin/../lib/gcc/riscv32-esp-elf/8.4.0/rv32im/ilp32\libgcc.a(_divdi3.o)
                              esp-idf/newlib/libnewlib.a(time.c.obj) (__divdi3)
/home/xy/.espressif/tools/riscv32-esp-elf/esp-2021r1-8.4.0/riscv32-esp-elf/bin/../lib/gcc/riscv32-esp-elf/8.4.0/rv32im/ilp32\libgcc.a(_moddi3.o)
                              esp-idf/newlib/libnewlib.a(time.c.obj) (__moddi3)
/home/xy/.espressif/tools/riscv32-esp-elf/esp-2021r1-8.4.0/riscv32-esp-elf/bin/../lib/gcc/riscv32-esp-elf/8.4.0/rv32im/ilp32\libgcc.a(_udivdi3.o)
                              esp-idf/esp_system/libesp_system.a(clk.c.obj) (__udivdi3)
/home/xy/.espressif/tools/riscv32-esp-elf/esp-2021r1-8.4.0/riscv32-esp-elf/bin/../lib/gcc/riscv32-esp-elf/8.4.0/rv32im/ilp32\libgcc.a(_umoddi3.o)
                              esp-idf/newlib/libnewlib.a(time.c.obj) (__umoddi3)
/home/xy/.espressif/tools/riscv32-esp-elf/esp-2021r1-8.4.0/riscv32-esp-elf/bin/../lib/gcc/riscv32-esp-elf/8.4.0/../../../../riscv32-esp-elf/lib/rv32im/ilp32\libc.a(lib_a-assert.o)
                              (__assert_func)
/home/xy/.espressif/tools/riscv32-esp-elf/esp-2021r1-8.4.0/riscv32-esp-elf/bin/../lib/gcc/riscv32-esp-elf/8.4.0/../../../../riscv32-esp-elf/lib/rv32im/ilp32\libc.a(lib_a-bzero.o)
                              esp-idf/newlib/libnewlib.a(heap.c.obj) (bzero)
/home/xy/.espressif/tools/riscv32-esp-elf/esp-2021r1-8.4.0/riscv32-esp-elf/bin/../lib/gcc/riscv32-esp-elf/8.4.0/../../../../riscv32-esp-elf/lib/rv32im/ilp32\libc.a(lib_a-environ.o)
                              esp-idf/newlib/libnewlib.a(newlib_init.c.obj) (environ)
/home/xy/.espressif/tools/riscv32-esp-elf/esp-2021r1-8.4.0/riscv32-esp-elf/bin/../lib/gcc/riscv32-esp-elf/8.4.0/../../../../riscv32-esp-elf/lib/rv32im/ilp32\libc.a(lib_a-errno.o)
                              esp-idf/vfs/libvfs.a(vfs.c.obj) (__errno)
/home/xy/.espressif/tools/riscv32-esp-elf/esp-2021r1-8.4.0/riscv32-esp-elf/bin/../lib/gcc/riscv32-esp-elf/8.4.0/../../../../riscv32-esp-elf/lib/rv32im/ilp32\libc.a(lib_a-fflush.o)
                              esp-idf/main/libmain.a(hello_world_main.c.obj) (fflush)
/home/xy/.espressif/tools/riscv32-esp-elf/esp-2021r1-8.4.0/riscv32-esp-elf/bin/../lib/gcc/riscv32-esp-elf/8.4.0/../../../../riscv32-esp-elf/lib/rv32im/ilp32\libc.a(lib_a-findfp.o)
                              esp-idf/newlib/libnewlib.a(reent_init.c.obj) (_cleanup_r)
/home/xy/.espressif/tools/riscv32-esp-elf/esp-2021r1-8.4.0/riscv32-esp-elf/bin/../lib/gcc/riscv32-esp-elf/8.4.0/../../../../riscv32-esp-elf/lib/rv32im/ilp32\libc.a(lib_a-fiprintf.o)
                              /home/xy/.espressif/tools/riscv32-esp-elf/esp-2021r1-8.4.0/riscv32-esp-elf/bin/../lib/gcc/riscv32-esp-elf/8.4.0/../../../../riscv32-esp-elf/lib/rv32im/ilp32\libc.a(lib_a-assert.o) (fiprintf)
/home/xy/.espressif/tools/riscv32-esp-elf/esp-2021r1-8.4.0/riscv32-esp-elf/bin/../lib/gcc/riscv32-esp-elf/8.4.0/../../../../riscv32-esp-elf/lib/rv32im/ilp32\libc.a(lib_a-fopen.o)
                              esp-idf/esp_system/libesp_system.a(startup.c.obj) (fopen)
/home/xy/.espressif/tools/riscv32-esp-elf/esp-2021r1-8.4.0/riscv32-esp-elf/bin/../lib/gcc/riscv32-esp-elf/8.4.0/../../../../riscv32-esp-elf/lib/rv32im/ilp32\libc.a(lib_a-fprintf.o)
                              esp-idf/esp_timer/libesp_timer.a(esp_timer.c.obj) (fprintf)
/home/xy/.espressif/tools/riscv32-esp-elf/esp-2021r1-8.4.0/riscv32-esp-elf/bin/../lib/gcc/riscv32-esp-elf/8.4.0/../../../../riscv32-esp-elf/lib/rv32im/ilp32\libc.a(lib_a-fputs.o)
                              esp-idf/esp_timer/libesp_timer.a(esp_timer.c.obj) (fputs)
/home/xy/.espressif/tools/riscv32-esp-elf/esp-2021r1-8.4.0/riscv32-esp-elf/bin/../lib/gcc/riscv32-esp-elf/8.4.0/../../../../riscv32-esp-elf/lib/rv32im/ilp32\libc.a(lib_a-fseek.o)
                              /home/xy/.espressif/tools/riscv32-esp-elf/esp-2021r1-8.4.0/riscv32-esp-elf/bin/../lib/gcc/riscv32-esp-elf/8.4.0/../../../../riscv32-esp-elf/lib/rv32im/ilp32\libc.a(lib_a-fopen.o) (_fseek_r)
/home/xy/.espressif/tools/riscv32-esp-elf/esp-2021r1-8.4.0/riscv32-esp-elf/bin/../lib/gcc/riscv32-esp-elf/8.4.0/../../../../riscv32-esp-elf/lib/rv32im/ilp32\libc.a(lib_a-fseeko.o)
                              /home/xy/.espressif/tools/riscv32-esp-elf/esp-2021r1-8.4.0/riscv32-esp-elf/bin/../lib/gcc/riscv32-esp-elf/8.4.0/../../../../riscv32-esp-elf/lib/rv32im/ilp32\libc.a(lib_a-fseek.o) (_fseeko_r)
/home/xy/.espressif/tools/riscv32-esp-elf/esp-2021r1-8.4.0/riscv32-esp-elf/bin/../lib/gcc/riscv32-esp-elf/8.4.0/../../../../riscv32-esp-elf/lib/rv32im/ilp32\libc.a(lib_a-ftello.o)
                              /home/xy/.espressif/tools/riscv32-esp-elf/esp-2021r1-8.4.0/riscv32-esp-elf/bin/../lib/gcc/riscv32-esp-elf/8.4.0/../../../../riscv32-esp-elf/lib/rv32im/ilp32\libc.a(lib_a-fseeko.o) (_ftello_r)
/home/xy/.espressif/tools/riscv32-esp-elf/esp-2021r1-8.4.0/riscv32-esp-elf/bin/../lib/gcc/riscv32-esp-elf/8.4.0/../../../../riscv32-esp-elf/lib/rv32im/ilp32\libc.a(lib_a-fvwrite.o)
                              /home/xy/.espressif/tools/riscv32-esp-elf/esp-2021r1-8.4.0/riscv32-esp-elf/bin/../lib/gcc/riscv32-esp-elf/8.4.0/../../../../riscv32-esp-elf/lib/rv32im/ilp32\libc.a(lib_a-fputs.o) (__sfvwrite_r)
/home/xy/.espressif/tools/riscv32-esp-elf/esp-2021r1-8.4.0/riscv32-esp-elf/bin/../lib/gcc/riscv32-esp-elf/8.4.0/../../../../riscv32-esp-elf/lib/rv32im/ilp32\libc.a(lib_a-fwalk.o)
                              /home/xy/.espressif/tools/riscv32-esp-elf/esp-2021r1-8.4.0/riscv32-esp-elf/bin/../lib/gcc/riscv32-esp-elf/8.4.0/../../../../riscv32-esp-elf/lib/rv32im/ilp32\libc.a(lib_a-findfp.o) (_fwalk)
/home/xy/.espressif/tools/riscv32-esp-elf/esp-2021r1-8.4.0/riscv32-esp-elf/bin/../lib/gcc/riscv32-esp-elf/8.4.0/../../../../riscv32-esp-elf/lib/rv32im/ilp32\libc.a(lib_a-fwrite.o)
                              esp-idf/esp_timer/libesp_timer.a(esp_timer.c.obj) (fwrite)
/home/xy/.espressif/tools/riscv32-esp-elf/esp-2021r1-8.4.0/riscv32-esp-elf/bin/../lib/gcc/riscv32-esp-elf/8.4.0/../../../../riscv32-esp-elf/lib/rv32im/ilp32\libc.a(lib_a-impure.o)
                              esp-idf/esp_system/libesp_system.a(startup.c.obj) (_global_impure_ptr)
/home/xy/.espressif/tools/riscv32-esp-elf/esp-2021r1-8.4.0/riscv32-esp-elf/bin/../lib/gcc/riscv32-esp-elf/8.4.0/../../../../riscv32-esp-elf/lib/rv32im/ilp32\libc.a(lib_a-itoa.o)
                              esp-idf/newlib/libnewlib.a(abort.c.obj) (itoa)
/home/xy/.espressif/tools/riscv32-esp-elf/esp-2021r1-8.4.0/riscv32-esp-elf/bin/../lib/gcc/riscv32-esp-elf/8.4.0/../../../../riscv32-esp-elf/lib/rv32im/ilp32\libc.a(lib_a-lcltime_r.o)
                              esp-idf/log/liblog.a(log_freertos.c.obj) (localtime_r)
/home/xy/.espressif/tools/riscv32-esp-elf/esp-2021r1-8.4.0/riscv32-esp-elf/bin/../lib/gcc/riscv32-esp-elf/8.4.0/../../../../riscv32-esp-elf/lib/rv32im/ilp32\libc.a(lib_a-makebuf.o)
                              /home/xy/.espressif/tools/riscv32-esp-elf/esp-2021r1-8.4.0/riscv32-esp-elf/bin/../lib/gcc/riscv32-esp-elf/8.4.0/../../../../riscv32-esp-elf/lib/rv32im/ilp32\libc.a(lib_a-fseeko.o) (__smakebuf_r)
/home/xy/.espressif/tools/riscv32-esp-elf/esp-2021r1-8.4.0/riscv32-esp-elf/bin/../lib/gcc/riscv32-esp-elf/8.4.0/../../../../riscv32-esp-elf/lib/rv32im/ilp32\libc.a(lib_a-memchr.o)
                              /home/xy/.espressif/tools/riscv32-esp-elf/esp-2021r1-8.4.0/riscv32-esp-elf/bin/../lib/gcc/riscv32-esp-elf/8.4.0/../../../../riscv32-esp-elf/lib/rv32im/ilp32\libc.a(lib_a-fvwrite.o) (memchr)
/home/xy/.espressif/tools/riscv32-esp-elf/esp-2021r1-8.4.0/riscv32-esp-elf/bin/../lib/gcc/riscv32-esp-elf/8.4.0/../../../../riscv32-esp-elf/lib/rv32im/ilp32\libc.a(lib_a-memcmp.o)
                              esp-idf/vfs/libvfs.a(vfs.c.obj) (memcmp)
/home/xy/.espressif/tools/riscv32-esp-elf/esp-2021r1-8.4.0/riscv32-esp-elf/bin/../lib/gcc/riscv32-esp-elf/8.4.0/../../../../riscv32-esp-elf/lib/rv32im/ilp32\libc.a(lib_a-memcpy.o)
                              esp-idf/vfs/libvfs.a(vfs.c.obj) (memcpy)
/home/xy/.espressif/tools/riscv32-esp-elf/esp-2021r1-8.4.0/riscv32-esp-elf/bin/../lib/gcc/riscv32-esp-elf/8.4.0/../../../../riscv32-esp-elf/lib/rv32im/ilp32\libc.a(lib_a-memmove-stub.o)
                              /home/xy/.espressif/tools/riscv32-esp-elf/esp-2021r1-8.4.0/riscv32-esp-elf/bin/../lib/gcc/riscv32-esp-elf/8.4.0/../../../../riscv32-esp-elf/lib/rv32im/ilp32\libc.a(lib_a-fvwrite.o) (memmove)
/home/xy/.espressif/tools/riscv32-esp-elf/esp-2021r1-8.4.0/riscv32-esp-elf/bin/../lib/gcc/riscv32-esp-elf/8.4.0/../../../../riscv32-esp-elf/lib/rv32im/ilp32\libc.a(lib_a-memset.o)
                              esp-idf/pthread/libpthread.a(pthread.c.obj) (memset)
/home/xy/.espressif/tools/riscv32-esp-elf/esp-2021r1-8.4.0/riscv32-esp-elf/bin/../lib/gcc/riscv32-esp-elf/8.4.0/../../../../riscv32-esp-elf/lib/rv32im/ilp32\libc.a(lib_a-month_lengths.o)
                              /home/xy/.espressif/tools/riscv32-esp-elf/esp-2021r1-8.4.0/riscv32-esp-elf/bin/../lib/gcc/riscv32-esp-elf/8.4.0/../../../../riscv32-esp-elf/lib/rv32im/ilp32\libc.a(lib_a-lcltime_r.o) (__month_lengths)
/home/xy/.espressif/tools/riscv32-esp-elf/esp-2021r1-8.4.0/riscv32-esp-elf/bin/../lib/gcc/riscv32-esp-elf/8.4.0/../../../../riscv32-esp-elf/lib/rv32im/ilp32\libc.a(lib_a-printf.o)
                              esp-idf/heap/libheap.a(heap_caps.c.obj) (printf)
/home/xy/.espressif/tools/riscv32-esp-elf/esp-2021r1-8.4.0/riscv32-esp-elf/bin/../lib/gcc/riscv32-esp-elf/8.4.0/../../../../riscv32-esp-elf/lib/rv32im/ilp32\libc.a(lib_a-puts.o)
                              esp-idf/heap/libheap.a(heap_caps.c.obj) (puts)
/home/xy/.espressif/tools/riscv32-esp-elf/esp-2021r1-8.4.0/riscv32-esp-elf/bin/../lib/gcc/riscv32-esp-elf/8.4.0/../../../../riscv32-esp-elf/lib/rv32im/ilp32\libc.a(lib_a-qsort.o)
                              esp-idf/heap/libheap.a(memory_layout_utils.c.obj) (qsort)
/home/xy/.espressif/tools/riscv32-esp-elf/esp-2021r1-8.4.0/riscv32-esp-elf/bin/../lib/gcc/riscv32-esp-elf/8.4.0/../../../../riscv32-esp-elf/lib/rv32im/ilp32\libc.a(lib_a-reent.o)
                              esp-idf/freertos/libfreertos.a(tasks.c.obj) (_reclaim_reent)
/home/xy/.espressif/tools/riscv32-esp-elf/esp-2021r1-8.4.0/riscv32-esp-elf/bin/../lib/gcc/riscv32-esp-elf/8.4.0/../../../../riscv32-esp-elf/lib/rv32im/ilp32\libc.a(lib_a-refill.o)
                              /home/xy/.espressif/tools/riscv32-esp-elf/esp-2021r1-8.4.0/riscv32-esp-elf/bin/../lib/gcc/riscv32-esp-elf/8.4.0/../../../../riscv32-esp-elf/lib/rv32im/ilp32\libc.a(lib_a-fseeko.o) (__srefill_r)
/home/xy/.espressif/tools/riscv32-esp-elf/esp-2021r1-8.4.0/riscv32-esp-elf/bin/../lib/gcc/riscv32-esp-elf/8.4.0/../../../../riscv32-esp-elf/lib/rv32im/ilp32\libc.a(lib_a-snprintf.o)
                              esp-idf/log/liblog.a(log_freertos.c.obj) (snprintf)
/home/xy/.espressif/tools/riscv32-esp-elf/esp-2021r1-8.4.0/riscv32-esp-elf/bin/../lib/gcc/riscv32-esp-elf/8.4.0/../../../../riscv32-esp-elf/lib/rv32im/ilp32\libc.a(lib_a-stdio.o)
                              /home/xy/.espressif/tools/riscv32-esp-elf/esp-2021r1-8.4.0/riscv32-esp-elf/bin/../lib/gcc/riscv32-esp-elf/8.4.0/../../../../riscv32-esp-elf/lib/rv32im/ilp32\libc.a(lib_a-findfp.o) (__sread)
/home/xy/.espressif/tools/riscv32-esp-elf/esp-2021r1-8.4.0/riscv32-esp-elf/bin/../lib/gcc/riscv32-esp-elf/8.4.0/../../../../riscv32-esp-elf/lib/rv32im/ilp32\libc.a(lib_a-strcat.o)
                              esp-idf/freertos/libfreertos.a(port.c.obj) (strcat)
/home/xy/.espressif/tools/riscv32-esp-elf/esp-2021r1-8.4.0/riscv32-esp-elf/bin/../lib/gcc/riscv32-esp-elf/8.4.0/../../../../riscv32-esp-elf/lib/rv32im/ilp32\libc.a(lib_a-strcmp.o)
                              esp-idf/vfs/libvfs.a(vfs_uart.c.obj) (strcmp)
/home/xy/.espressif/tools/riscv32-esp-elf/esp-2021r1-8.4.0/riscv32-esp-elf/bin/../lib/gcc/riscv32-esp-elf/8.4.0/../../../../riscv32-esp-elf/lib/rv32im/ilp32\libc.a(lib_a-strcpy.o)
                              esp-idf/vfs/libvfs.a(vfs.c.obj) (strcpy)
/home/xy/.espressif/tools/riscv32-esp-elf/esp-2021r1-8.4.0/riscv32-esp-elf/bin/../lib/gcc/riscv32-esp-elf/8.4.0/../../../../riscv32-esp-elf/lib/rv32im/ilp32\libc.a(lib_a-strcspn.o)
                              esp-idf/bootloader_support/libbootloader_support.a(bootloader_common.c.obj) (strcspn)
/home/xy/.espressif/tools/riscv32-esp-elf/esp-2021r1-8.4.0/riscv32-esp-elf/bin/../lib/gcc/riscv32-esp-elf/8.4.0/../../../../riscv32-esp-elf/lib/rv32im/ilp32\libc.a(lib_a-strerror_r.o)
                              esp-idf/esp_common/libesp_common.a(esp_err_to_name.c.obj) (strerror_r)
/home/xy/.espressif/tools/riscv32-esp-elf/esp-2021r1-8.4.0/riscv32-esp-elf/bin/../lib/gcc/riscv32-esp-elf/8.4.0/../../../../riscv32-esp-elf/lib/rv32im/ilp32\libc.a(lib_a-strlcat.o)
                              esp-idf/esp_system/libesp_system.a(ubsan.c.obj) (strlcat)
/home/xy/.espressif/tools/riscv32-esp-elf/esp-2021r1-8.4.0/riscv32-esp-elf/bin/../lib/gcc/riscv32-esp-elf/8.4.0/../../../../riscv32-esp-elf/lib/rv32im/ilp32\libc.a(lib_a-strlcpy.o)
                              esp-idf/spi_flash/libspi_flash.a(partition.c.obj) (strlcpy)
/home/xy/.espressif/tools/riscv32-esp-elf/esp-2021r1-8.4.0/riscv32-esp-elf/bin/../lib/gcc/riscv32-esp-elf/8.4.0/../../../../riscv32-esp-elf/lib/rv32im/ilp32\libc.a(lib_a-strlen.o)
                              esp-idf/vfs/libvfs.a(vfs.c.obj) (strlen)
/home/xy/.espressif/tools/riscv32-esp-elf/esp-2021r1-8.4.0/riscv32-esp-elf/bin/../lib/gcc/riscv32-esp-elf/8.4.0/../../../../riscv32-esp-elf/lib/rv32im/ilp32\libc.a(lib_a-strncmp.o)
                              esp-idf/vfs/libvfs.a(vfs.c.obj) (strncmp)
/home/xy/.espressif/tools/riscv32-esp-elf/esp-2021r1-8.4.0/riscv32-esp-elf/bin/../lib/gcc/riscv32-esp-elf/8.4.0/../../../../riscv32-esp-elf/lib/rv32im/ilp32\libc.a(lib_a-strncpy.o)
                              esp-idf/spi_flash/libspi_flash.a(partition.c.obj) (strncpy)
/home/xy/.espressif/tools/riscv32-esp-elf/esp-2021r1-8.4.0/riscv32-esp-elf/bin/../lib/gcc/riscv32-esp-elf/8.4.0/../../../../riscv32-esp-elf/lib/rv32im/ilp32\libc.a(lib_a-strstr.o)
                              esp-idf/bootloader_support/libbootloader_support.a(bootloader_common.c.obj) (strstr)
/home/xy/.espressif/tools/riscv32-esp-elf/esp-2021r1-8.4.0/riscv32-esp-elf/bin/../lib/gcc/riscv32-esp-elf/8.4.0/../../../../riscv32-esp-elf/lib/rv32im/ilp32\libc.a(lib_a-svfprintf.o)
                              /home/xy/.espressif/tools/riscv32-esp-elf/esp-2021r1-8.4.0/riscv32-esp-elf/bin/../lib/gcc/riscv32-esp-elf/8.4.0/../../../../riscv32-esp-elf/lib/rv32im/ilp32\libc.a(lib_a-snprintf.o) (_svfprintf_r)
/home/xy/.espressif/tools/riscv32-esp-elf/esp-2021r1-8.4.0/riscv32-esp-elf/bin/../lib/gcc/riscv32-esp-elf/8.4.0/../../../../riscv32-esp-elf/lib/rv32im/ilp32\libc.a(lib_a-sysgettod.o)
                              esp-idf/log/liblog.a(log_freertos.c.obj) (gettimeofday)
/home/xy/.espressif/tools/riscv32-esp-elf/esp-2021r1-8.4.0/riscv32-esp-elf/bin/../lib/gcc/riscv32-esp-elf/8.4.0/../../../../riscv32-esp-elf/lib/rv32im/ilp32\libc.a(lib_a-tzcalc_limits.o)
                              /home/xy/.espressif/tools/riscv32-esp-elf/esp-2021r1-8.4.0/riscv32-esp-elf/bin/../lib/gcc/riscv32-esp-elf/8.4.0/../../../../riscv32-esp-elf/lib/rv32im/ilp32\libc.a(lib_a-lcltime_r.o) (__tzcalc_limits)
/home/xy/.espressif/tools/riscv32-esp-elf/esp-2021r1-8.4.0/riscv32-esp-elf/bin/../lib/gcc/riscv32-esp-elf/8.4.0/../../../../riscv32-esp-elf/lib/rv32im/ilp32\libc.a(lib_a-tzlock.o)
                              /home/xy/.espressif/tools/riscv32-esp-elf/esp-2021r1-8.4.0/riscv32-esp-elf/bin/../lib/gcc/riscv32-esp-elf/8.4.0/../../../../riscv32-esp-elf/lib/rv32im/ilp32\libc.a(lib_a-lcltime_r.o) (__tz_lock)
/home/xy/.espressif/tools/riscv32-esp-elf/esp-2021r1-8.4.0/riscv32-esp-elf/bin/../lib/gcc/riscv32-esp-elf/8.4.0/../../../../riscv32-esp-elf/lib/rv32im/ilp32\libc.a(lib_a-tzset.o)
                              /home/xy/.espressif/tools/riscv32-esp-elf/esp-2021r1-8.4.0/riscv32-esp-elf/bin/../lib/gcc/riscv32-esp-elf/8.4.0/../../../../riscv32-esp-elf/lib/rv32im/ilp32\libc.a(lib_a-lcltime_r.o) (_tzset_unlocked)
/home/xy/.espressif/tools/riscv32-esp-elf/esp-2021r1-8.4.0/riscv32-esp-elf/bin/../lib/gcc/riscv32-esp-elf/8.4.0/../../../../riscv32-esp-elf/lib/rv32im/ilp32\libc.a(lib_a-tzset_r.o)
                              /home/xy/.espressif/tools/riscv32-esp-elf/esp-2021r1-8.4.0/riscv32-esp-elf/bin/../lib/gcc/riscv32-esp-elf/8.4.0/../../../../riscv32-esp-elf/lib/rv32im/ilp32\libc.a(lib_a-tzset.o) (_tzset_unlocked_r)
/home/xy/.espressif/tools/riscv32-esp-elf/esp-2021r1-8.4.0/riscv32-esp-elf/bin/../lib/gcc/riscv32-esp-elf/8.4.0/../../../../riscv32-esp-elf/lib/rv32im/ilp32\libc.a(lib_a-tzvars.o)
                              /home/xy/.espressif/tools/riscv32-esp-elf/esp-2021r1-8.4.0/riscv32-esp-elf/bin/../lib/gcc/riscv32-esp-elf/8.4.0/../../../../riscv32-esp-elf/lib/rv32im/ilp32\libc.a(lib_a-tzset_r.o) (_timezone)
/home/xy/.espressif/tools/riscv32-esp-elf/esp-2021r1-8.4.0/riscv32-esp-elf/bin/../lib/gcc/riscv32-esp-elf/8.4.0/../../../../riscv32-esp-elf/lib/rv32im/ilp32\libc.a(lib_a-utoa.o)
                              /home/xy/.espressif/tools/riscv32-esp-elf/esp-2021r1-8.4.0/riscv32-esp-elf/bin/../lib/gcc/riscv32-esp-elf/8.4.0/../../../../riscv32-esp-elf/lib/rv32im/ilp32\libc.a(lib_a-itoa.o) (__utoa)
/home/xy/.espressif/tools/riscv32-esp-elf/esp-2021r1-8.4.0/riscv32-esp-elf/bin/../lib/gcc/riscv32-esp-elf/8.4.0/../../../../riscv32-esp-elf/lib/rv32im/ilp32\libc.a(lib_a-vfiprintf.o)
                              /home/xy/.espressif/tools/riscv32-esp-elf/esp-2021r1-8.4.0/riscv32-esp-elf/bin/../lib/gcc/riscv32-esp-elf/8.4.0/../../../../riscv32-esp-elf/lib/rv32im/ilp32\libc.a(lib_a-fiprintf.o) (_vfiprintf_r)
/home/xy/.espressif/tools/riscv32-esp-elf/esp-2021r1-8.4.0/riscv32-esp-elf/bin/../lib/gcc/riscv32-esp-elf/8.4.0/../../../../riscv32-esp-elf/lib/rv32im/ilp32\libc.a(lib_a-vfprintf.o)
                              /home/xy/.espressif/tools/riscv32-esp-elf/esp-2021r1-8.4.0/riscv32-esp-elf/bin/../lib/gcc/riscv32-esp-elf/8.4.0/../../../../riscv32-esp-elf/lib/rv32im/ilp32\libc.a(lib_a-fprintf.o) (_vfprintf_r)
/home/xy/.espressif/tools/riscv32-esp-elf/esp-2021r1-8.4.0/riscv32-esp-elf/bin/../lib/gcc/riscv32-esp-elf/8.4.0/../../../../riscv32-esp-elf/lib/rv32im/ilp32\libc.a(lib_a-vprintf.o)
                              esp-idf/log/liblog.a(log.c.obj) (vprintf)
/home/xy/.espressif/tools/riscv32-esp-elf/esp-2021r1-8.4.0/riscv32-esp-elf/bin/../lib/gcc/riscv32-esp-elf/8.4.0/../../../../riscv32-esp-elf/lib/rv32im/ilp32\libc.a(lib_a-wsetup.o)
                              /home/xy/.espressif/tools/riscv32-esp-elf/esp-2021r1-8.4.0/riscv32-esp-elf/bin/../lib/gcc/riscv32-esp-elf/8.4.0/../../../../riscv32-esp-elf/lib/rv32im/ilp32\libc.a(lib_a-fvwrite.o) (__swsetup_r)
/home/xy/.espressif/tools/riscv32-esp-elf/esp-2021r1-8.4.0/riscv32-esp-elf/bin/../lib/gcc/riscv32-esp-elf/8.4.0/../../../../riscv32-esp-elf/lib/rv32im/ilp32\libc.a(lib_a-dtoa.o)
                              /home/xy/.espressif/tools/riscv32-esp-elf/esp-2021r1-8.4.0/riscv32-esp-elf/bin/../lib/gcc/riscv32-esp-elf/8.4.0/../../../../riscv32-esp-elf/lib/rv32im/ilp32\libc.a(lib_a-svfprintf.o) (_dtoa_r)
/home/xy/.espressif/tools/riscv32-esp-elf/esp-2021r1-8.4.0/riscv32-esp-elf/bin/../lib/gcc/riscv32-esp-elf/8.4.0/../../../../riscv32-esp-elf/lib/rv32im/ilp32\libc.a(lib_a-fclose.o)
                              /home/xy/.espressif/tools/riscv32-esp-elf/esp-2021r1-8.4.0/riscv32-esp-elf/bin/../lib/gcc/riscv32-esp-elf/8.4.0/../../../../riscv32-esp-elf/lib/rv32im/ilp32\libc.a(lib_a-findfp.o) (_fclose_r)
/home/xy/.espressif/tools/riscv32-esp-elf/esp-2021r1-8.4.0/riscv32-esp-elf/bin/../lib/gcc/riscv32-esp-elf/8.4.0/../../../../riscv32-esp-elf/lib/rv32im/ilp32\libc.a(lib_a-flags.o)
                              /home/xy/.espressif/tools/riscv32-esp-elf/esp-2021r1-8.4.0/riscv32-esp-elf/bin/../lib/gcc/riscv32-esp-elf/8.4.0/../../../../riscv32-esp-elf/lib/rv32im/ilp32\libc.a(lib_a-fopen.o) (__sflags)
/home/xy/.espressif/tools/riscv32-esp-elf/esp-2021r1-8.4.0/riscv32-esp-elf/bin/../lib/gcc/riscv32-esp-elf/8.4.0/../../../../riscv32-esp-elf/lib/rv32im/ilp32\libc.a(lib_a-getenv_r.o)
                              /home/xy/.espressif/tools/riscv32-esp-elf/esp-2021r1-8.4.0/riscv32-esp-elf/bin/../lib/gcc/riscv32-esp-elf/8.4.0/../../../../riscv32-esp-elf/lib/rv32im/ilp32\libc.a(lib_a-tzset_r.o) (_getenv_r)
/home/xy/.espressif/tools/riscv32-esp-elf/esp-2021r1-8.4.0/riscv32-esp-elf/bin/../lib/gcc/riscv32-esp-elf/8.4.0/../../../../riscv32-esp-elf/lib/rv32im/ilp32\libc.a(lib_a-gettzinfo.o)
                              /home/xy/.espressif/tools/riscv32-esp-elf/esp-2021r1-8.4.0/riscv32-esp-elf/bin/../lib/gcc/riscv32-esp-elf/8.4.0/../../../../riscv32-esp-elf/lib/rv32im/ilp32\libc.a(lib_a-lcltime_r.o) (__gettzinfo)
/home/xy/.espressif/tools/riscv32-esp-elf/esp-2021r1-8.4.0/riscv32-esp-elf/bin/../lib/gcc/riscv32-esp-elf/8.4.0/../../../../riscv32-esp-elf/lib/rv32im/ilp32\libc.a(lib_a-gmtime_r.o)
                              /home/xy/.espressif/tools/riscv32-esp-elf/esp-2021r1-8.4.0/riscv32-esp-elf/bin/../lib/gcc/riscv32-esp-elf/8.4.0/../../../../riscv32-esp-elf/lib/rv32im/ilp32\libc.a(lib_a-lcltime_r.o) (gmtime_r)
/home/xy/.espressif/tools/riscv32-esp-elf/esp-2021r1-8.4.0/riscv32-esp-elf/bin/../lib/gcc/riscv32-esp-elf/8.4.0/../../../../riscv32-esp-elf/lib/rv32im/ilp32\libc.a(lib_a-localeconv.o)
                              /home/xy/.espressif/tools/riscv32-esp-elf/esp-2021r1-8.4.0/riscv32-esp-elf/bin/../lib/gcc/riscv32-esp-elf/8.4.0/../../../../riscv32-esp-elf/lib/rv32im/ilp32\libc.a(lib_a-svfprintf.o) (_localeconv_r)
/home/xy/.espressif/tools/riscv32-esp-elf/esp-2021r1-8.4.0/riscv32-esp-elf/bin/../lib/gcc/riscv32-esp-elf/8.4.0/../../../../riscv32-esp-elf/lib/rv32im/ilp32\libc.a(lib_a-mprec.o)
                              /home/xy/.espressif/tools/riscv32-esp-elf/esp-2021r1-8.4.0/riscv32-esp-elf/bin/../lib/gcc/riscv32-esp-elf/8.4.0/../../../../riscv32-esp-elf/lib/rv32im/ilp32\libc.a(lib_a-dtoa.o) (_Balloc)
/home/xy/.espressif/tools/riscv32-esp-elf/esp-2021r1-8.4.0/riscv32-esp-elf/bin/../lib/gcc/riscv32-esp-elf/8.4.0/../../../../riscv32-esp-elf/lib/rv32im/ilp32\libc.a(lib_a-s_frexp.o)
                              /home/xy/.espressif/tools/riscv32-esp-elf/esp-2021r1-8.4.0/riscv32-esp-elf/bin/../lib/gcc/riscv32-esp-elf/8.4.0/../../../../riscv32-esp-elf/lib/rv32im/ilp32\libc.a(lib_a-svfprintf.o) (frexp)
/home/xy/.espressif/tools/riscv32-esp-elf/esp-2021r1-8.4.0/riscv32-esp-elf/bin/../lib/gcc/riscv32-esp-elf/8.4.0/../../../../riscv32-esp-elf/lib/rv32im/ilp32\libc.a(lib_a-siscanf.o)
                              /home/xy/.espressif/tools/riscv32-esp-elf/esp-2021r1-8.4.0/riscv32-esp-elf/bin/../lib/gcc/riscv32-esp-elf/8.4.0/../../../../riscv32-esp-elf/lib/rv32im/ilp32\libc.a(lib_a-tzset_r.o) (siscanf)
/home/xy/.espressif/tools/riscv32-esp-elf/esp-2021r1-8.4.0/riscv32-esp-elf/bin/../lib/gcc/riscv32-esp-elf/8.4.0/../../../../riscv32-esp-elf/lib/rv32im/ilp32\libc.a(lib_a-strerror.o)
                              /home/xy/.espressif/tools/riscv32-esp-elf/esp-2021r1-8.4.0/riscv32-esp-elf/bin/../lib/gcc/riscv32-esp-elf/8.4.0/../../../../riscv32-esp-elf/lib/rv32im/ilp32\libc.a(lib_a-strerror_r.o) (_strerror_r)
/home/xy/.espressif/tools/riscv32-esp-elf/esp-2021r1-8.4.0/riscv32-esp-elf/bin/../lib/gcc/riscv32-esp-elf/8.4.0/../../../../riscv32-esp-elf/lib/rv32im/ilp32\libc.a(lib_a-strtoul.o)
                              /home/xy/.espressif/tools/riscv32-esp-elf/esp-2021r1-8.4.0/riscv32-esp-elf/bin/../lib/gcc/riscv32-esp-elf/8.4.0/../../../../riscv32-esp-elf/lib/rv32im/ilp32\libc.a(lib_a-tzset_r.o) (strtoul)
/home/xy/.espressif/tools/riscv32-esp-elf/esp-2021r1-8.4.0/riscv32-esp-elf/bin/../lib/gcc/riscv32-esp-elf/8.4.0/../../../../riscv32-esp-elf/lib/rv32im/ilp32\libc.a(lib_a-svfiprintf.o)
                              /home/xy/.espressif/tools/riscv32-esp-elf/esp-2021r1-8.4.0/riscv32-esp-elf/bin/../lib/gcc/riscv32-esp-elf/8.4.0/../../../../riscv32-esp-elf/lib/rv32im/ilp32\libc.a(lib_a-svfprintf.o) (__ssprint_r)
/home/xy/.espressif/tools/riscv32-esp-elf/esp-2021r1-8.4.0/riscv32-esp-elf/bin/../lib/gcc/riscv32-esp-elf/8.4.0/../../../../riscv32-esp-elf/lib/rv32im/ilp32\libc.a(lib_a-svfiscanf.o)
                              /home/xy/.espressif/tools/riscv32-esp-elf/esp-2021r1-8.4.0/riscv32-esp-elf/bin/../lib/gcc/riscv32-esp-elf/8.4.0/../../../../riscv32-esp-elf/lib/rv32im/ilp32\libc.a(lib_a-siscanf.o) (__ssvfiscanf_r)
/home/xy/.espressif/tools/riscv32-esp-elf/esp-2021r1-8.4.0/riscv32-esp-elf/bin/../lib/gcc/riscv32-esp-elf/8.4.0/../../../../riscv32-esp-elf/lib/rv32im/ilp32\libc.a(lib_a-u_strerr.o)
                              /home/xy/.espressif/tools/riscv32-esp-elf/esp-2021r1-8.4.0/riscv32-esp-elf/bin/../lib/gcc/riscv32-esp-elf/8.4.0/../../../../riscv32-esp-elf/lib/rv32im/ilp32\libc.a(lib_a-strerror.o) (_user_strerror)
/home/xy/.espressif/tools/riscv32-esp-elf/esp-2021r1-8.4.0/riscv32-esp-elf/bin/../lib/gcc/riscv32-esp-elf/8.4.0/../../../../riscv32-esp-elf/lib/rv32im/ilp32\libc.a(lib_a-ungetc.o)
                              /home/xy/.espressif/tools/riscv32-esp-elf/esp-2021r1-8.4.0/riscv32-esp-elf/bin/../lib/gcc/riscv32-esp-elf/8.4.0/../../../../riscv32-esp-elf/lib/rv32im/ilp32\libc.a(lib_a-svfiscanf.o) (__submore)
/home/xy/.espressif/tools/riscv32-esp-elf/esp-2021r1-8.4.0/riscv32-esp-elf/bin/../lib/gcc/riscv32-esp-elf/8.4.0/../../../../riscv32-esp-elf/lib/rv32im/ilp32\libc.a(lib_a-ctype_.o)
                              /home/xy/.espressif/tools/riscv32-esp-elf/esp-2021r1-8.4.0/riscv32-esp-elf/bin/../lib/gcc/riscv32-esp-elf/8.4.0/../../../../riscv32-esp-elf/lib/rv32im/ilp32\libc.a(lib_a-strtoul.o) (_ctype_)
/home/xy/.espressif/tools/riscv32-esp-elf/esp-2021r1-8.4.0/riscv32-esp-elf/bin/../lib/gcc/riscv32-esp-elf/8.4.0/../../../../riscv32-esp-elf/lib/rv32im/ilp32\libc.a(lib_a-envlock.o)
                              /home/xy/.espressif/tools/riscv32-esp-elf/esp-2021r1-8.4.0/riscv32-esp-elf/bin/../lib/gcc/riscv32-esp-elf/8.4.0/../../../../riscv32-esp-elf/lib/rv32im/ilp32\libc.a(lib_a-getenv_r.o) (__env_lock)
/home/xy/.espressif/tools/riscv32-esp-elf/esp-2021r1-8.4.0/riscv32-esp-elf/bin/../lib/gcc/riscv32-esp-elf/8.4.0/../../../../riscv32-esp-elf/lib/rv32im/ilp32\libc.a(lib_a-iswspace.o)
                              /home/xy/.espressif/tools/riscv32-esp-elf/esp-2021r1-8.4.0/riscv32-esp-elf/bin/../lib/gcc/riscv32-esp-elf/8.4.0/../../../../riscv32-esp-elf/lib/rv32im/ilp32\libc.a(lib_a-svfiscanf.o) (iswspace)
/home/xy/.espressif/tools/riscv32-esp-elf/esp-2021r1-8.4.0/riscv32-esp-elf/bin/../lib/gcc/riscv32-esp-elf/8.4.0/../../../../riscv32-esp-elf/lib/rv32im/ilp32\libc.a(lib_a-iswspace_l.o)
                              /home/xy/.espressif/tools/riscv32-esp-elf/esp-2021r1-8.4.0/riscv32-esp-elf/bin/../lib/gcc/riscv32-esp-elf/8.4.0/../../../../riscv32-esp-elf/lib/rv32im/ilp32\libc.a(lib_a-iswspace.o) (iswspace_l)
/home/xy/.espressif/tools/riscv32-esp-elf/esp-2021r1-8.4.0/riscv32-esp-elf/bin/../lib/gcc/riscv32-esp-elf/8.4.0/../../../../riscv32-esp-elf/lib/rv32im/ilp32\libc.a(lib_a-locale.o)
                              /home/xy/.espressif/tools/riscv32-esp-elf/esp-2021r1-8.4.0/riscv32-esp-elf/bin/../lib/gcc/riscv32-esp-elf/8.4.0/../../../../riscv32-esp-elf/lib/rv32im/ilp32\libc.a(lib_a-svfiscanf.o) (__locale_mb_cur_max)
/home/xy/.espressif/tools/riscv32-esp-elf/esp-2021r1-8.4.0/riscv32-esp-elf/bin/../lib/gcc/riscv32-esp-elf/8.4.0/../../../../riscv32-esp-elf/lib/rv32im/ilp32\libc.a(lib_a-mbrtowc.o)
                              /home/xy/.espressif/tools/riscv32-esp-elf/esp-2021r1-8.4.0/riscv32-esp-elf/bin/../lib/gcc/riscv32-esp-elf/8.4.0/../../../../riscv32-esp-elf/lib/rv32im/ilp32\libc.a(lib_a-svfiscanf.o) (_mbrtowc_r)
/home/xy/.espressif/tools/riscv32-esp-elf/esp-2021r1-8.4.0/riscv32-esp-elf/bin/../lib/gcc/riscv32-esp-elf/8.4.0/../../../../riscv32-esp-elf/lib/rv32im/ilp32\libc.a(lib_a-mbtowc_r.o)
                              /home/xy/.espressif/tools/riscv32-esp-elf/esp-2021r1-8.4.0/riscv32-esp-elf/bin/../lib/gcc/riscv32-esp-elf/8.4.0/../../../../riscv32-esp-elf/lib/rv32im/ilp32\libc.a(lib_a-locale.o) (__ascii_mbtowc)
/home/xy/.espressif/tools/riscv32-esp-elf/esp-2021r1-8.4.0/riscv32-esp-elf/bin/../lib/gcc/riscv32-esp-elf/8.4.0/../../../../riscv32-esp-elf/lib/rv32im/ilp32\libc.a(lib_a-sccl.o)
                              /home/xy/.espressif/tools/riscv32-esp-elf/esp-2021r1-8.4.0/riscv32-esp-elf/bin/../lib/gcc/riscv32-esp-elf/8.4.0/../../../../riscv32-esp-elf/lib/rv32im/ilp32\libc.a(lib_a-svfiscanf.o) (__sccl)
/home/xy/.espressif/tools/riscv32-esp-elf/esp-2021r1-8.4.0/riscv32-esp-elf/bin/../lib/gcc/riscv32-esp-elf/8.4.0/../../../../riscv32-esp-elf/lib/rv32im/ilp32\libc.a(lib_a-strtol.o)
                              /home/xy/.espressif/tools/riscv32-esp-elf/esp-2021r1-8.4.0/riscv32-esp-elf/bin/../lib/gcc/riscv32-esp-elf/8.4.0/../../../../riscv32-esp-elf/lib/rv32im/ilp32\libc.a(lib_a-svfiscanf.o) (_strtol_r)
/home/xy/.espressif/tools/riscv32-esp-elf/esp-2021r1-8.4.0/riscv32-esp-elf/bin/../lib/gcc/riscv32-esp-elf/8.4.0/../../../../riscv32-esp-elf/lib/rv32im/ilp32\libc.a(lib_a-strtoll.o)
                              /home/xy/.espressif/tools/riscv32-esp-elf/esp-2021r1-8.4.0/riscv32-esp-elf/bin/../lib/gcc/riscv32-esp-elf/8.4.0/../../../../riscv32-esp-elf/lib/rv32im/ilp32\libc.a(lib_a-svfiscanf.o) (_strtoll_r)
/home/xy/.espressif/tools/riscv32-esp-elf/esp-2021r1-8.4.0/riscv32-esp-elf/bin/../lib/gcc/riscv32-esp-elf/8.4.0/../../../../riscv32-esp-elf/lib/rv32im/ilp32\libc.a(lib_a-strtoull.o)
                              /home/xy/.espressif/tools/riscv32-esp-elf/esp-2021r1-8.4.0/riscv32-esp-elf/bin/../lib/gcc/riscv32-esp-elf/8.4.0/../../../../riscv32-esp-elf/lib/rv32im/ilp32\libc.a(lib_a-svfiscanf.o) (_strtoull_r)
/home/xy/.espressif/tools/riscv32-esp-elf/esp-2021r1-8.4.0/riscv32-esp-elf/bin/../lib/gcc/riscv32-esp-elf/8.4.0/../../../../riscv32-esp-elf/lib/rv32im/ilp32\libc.a(lib_a-wctomb_r.o)
                              /home/xy/.espressif/tools/riscv32-esp-elf/esp-2021r1-8.4.0/riscv32-esp-elf/bin/../lib/gcc/riscv32-esp-elf/8.4.0/../../../../riscv32-esp-elf/lib/rv32im/ilp32\libc.a(lib_a-locale.o) (__ascii_wctomb)
/home/xy/.espressif/tools/riscv32-esp-elf/esp-2021r1-8.4.0/riscv32-esp-elf/bin/../lib/gcc/riscv32-esp-elf/8.4.0/rv32im/ilp32\libgcc.a(adddf3.o)
                              /home/xy/.espressif/tools/riscv32-esp-elf/esp-2021r1-8.4.0/riscv32-esp-elf/bin/../lib/gcc/riscv32-esp-elf/8.4.0/../../../../riscv32-esp-elf/lib/rv32im/ilp32\libc.a(lib_a-dtoa.o) (__adddf3)
/home/xy/.espressif/tools/riscv32-esp-elf/esp-2021r1-8.4.0/riscv32-esp-elf/bin/../lib/gcc/riscv32-esp-elf/8.4.0/rv32im/ilp32\libgcc.a(divdf3.o)
                              /home/xy/.espressif/tools/riscv32-esp-elf/esp-2021r1-8.4.0/riscv32-esp-elf/bin/../lib/gcc/riscv32-esp-elf/8.4.0/../../../../riscv32-esp-elf/lib/rv32im/ilp32\libc.a(lib_a-dtoa.o) (__divdf3)
/home/xy/.espressif/tools/riscv32-esp-elf/esp-2021r1-8.4.0/riscv32-esp-elf/bin/../lib/gcc/riscv32-esp-elf/8.4.0/rv32im/ilp32\libgcc.a(eqdf2.o)
                              /home/xy/.espressif/tools/riscv32-esp-elf/esp-2021r1-8.4.0/riscv32-esp-elf/bin/../lib/gcc/riscv32-esp-elf/8.4.0/../../../../riscv32-esp-elf/lib/rv32im/ilp32\libc.a(lib_a-svfprintf.o) (__eqdf2)
/home/xy/.espressif/tools/riscv32-esp-elf/esp-2021r1-8.4.0/riscv32-esp-elf/bin/../lib/gcc/riscv32-esp-elf/8.4.0/rv32im/ilp32\libgcc.a(gedf2.o)
                              /home/xy/.espressif/tools/riscv32-esp-elf/esp-2021r1-8.4.0/riscv32-esp-elf/bin/../lib/gcc/riscv32-esp-elf/8.4.0/../../../../riscv32-esp-elf/lib/rv32im/ilp32\libc.a(lib_a-dtoa.o) (__gedf2)
/home/xy/.espressif/tools/riscv32-esp-elf/esp-2021r1-8.4.0/riscv32-esp-elf/bin/../lib/gcc/riscv32-esp-elf/8.4.0/rv32im/ilp32\libgcc.a(ledf2.o)
                              /home/xy/.espressif/tools/riscv32-esp-elf/esp-2021r1-8.4.0/riscv32-esp-elf/bin/../lib/gcc/riscv32-esp-elf/8.4.0/../../../../riscv32-esp-elf/lib/rv32im/ilp32\libc.a(lib_a-svfprintf.o) (__ledf2)
/home/xy/.espressif/tools/riscv32-esp-elf/esp-2021r1-8.4.0/riscv32-esp-elf/bin/../lib/gcc/riscv32-esp-elf/8.4.0/rv32im/ilp32\libgcc.a(muldf3.o)
                              /home/xy/.espressif/tools/riscv32-esp-elf/esp-2021r1-8.4.0/riscv32-esp-elf/bin/../lib/gcc/riscv32-esp-elf/8.4.0/../../../../riscv32-esp-elf/lib/rv32im/ilp32\libc.a(lib_a-svfprintf.o) (__muldf3)
/home/xy/.espressif/tools/riscv32-esp-elf/esp-2021r1-8.4.0/riscv32-esp-elf/bin/../lib/gcc/riscv32-esp-elf/8.4.0/rv32im/ilp32\libgcc.a(subdf3.o)
                              /home/xy/.espressif/tools/riscv32-esp-elf/esp-2021r1-8.4.0/riscv32-esp-elf/bin/../lib/gcc/riscv32-esp-elf/8.4.0/../../../../riscv32-esp-elf/lib/rv32im/ilp32\libc.a(lib_a-svfprintf.o) (__subdf3)
/home/xy/.espressif/tools/riscv32-esp-elf/esp-2021r1-8.4.0/riscv32-esp-elf/bin/../lib/gcc/riscv32-esp-elf/8.4.0/rv32im/ilp32\libgcc.a(unorddf2.o)
                              /home/xy/.espressif/tools/riscv32-esp-elf/esp-2021r1-8.4.0/riscv32-esp-elf/bin/../lib/gcc/riscv32-esp-elf/8.4.0/../../../../riscv32-esp-elf/lib/rv32im/ilp32\libc.a(lib_a-svfprintf.o) (__unorddf2)
/home/xy/.espressif/tools/riscv32-esp-elf/esp-2021r1-8.4.0/riscv32-esp-elf/bin/../lib/gcc/riscv32-esp-elf/8.4.0/rv32im/ilp32\libgcc.a(fixdfsi.o)
                              /home/xy/.espressif/tools/riscv32-esp-elf/esp-2021r1-8.4.0/riscv32-esp-elf/bin/../lib/gcc/riscv32-esp-elf/8.4.0/../../../../riscv32-esp-elf/lib/rv32im/ilp32\libc.a(lib_a-svfprintf.o) (__fixdfsi)
/home/xy/.espressif/tools/riscv32-esp-elf/esp-2021r1-8.4.0/riscv32-esp-elf/bin/../lib/gcc/riscv32-esp-elf/8.4.0/rv32im/ilp32\libgcc.a(floatsidf.o)
                              /home/xy/.espressif/tools/riscv32-esp-elf/esp-2021r1-8.4.0/riscv32-esp-elf/bin/../lib/gcc/riscv32-esp-elf/8.4.0/../../../../riscv32-esp-elf/lib/rv32im/ilp32\libc.a(lib_a-svfprintf.o) (__floatsidf)
/home/xy/.espressif/tools/riscv32-esp-elf/esp-2021r1-8.4.0/riscv32-esp-elf/bin/../lib/gcc/riscv32-esp-elf/8.4.0/rv32im/ilp32\libgcc.a(floatunsidf.o)
                              /home/xy/.espressif/tools/riscv32-esp-elf/esp-2021r1-8.4.0/riscv32-esp-elf/bin/../lib/gcc/riscv32-esp-elf/8.4.0/../../../../riscv32-esp-elf/lib/rv32im/ilp32\libc.a(lib_a-dtoa.o) (__floatunsidf)
/home/xy/.espressif/tools/riscv32-esp-elf/esp-2021r1-8.4.0/riscv32-esp-elf/bin/../lib/gcc/riscv32-esp-elf/8.4.0/rv32im/ilp32\libgcc.a(trunctfdf2.o)
                              /home/xy/.espressif/tools/riscv32-esp-elf/esp-2021r1-8.4.0/riscv32-esp-elf/bin/../lib/gcc/riscv32-esp-elf/8.4.0/../../../../riscv32-esp-elf/lib/rv32im/ilp32\libc.a(lib_a-svfprintf.o) (__trunctfdf2)

Allocating common symbols
Common symbol       size              file

panic_reasons       0x4               esp-idf/esp_system/libesp_system.a(panic_handler.c.obj)
registered_heaps    0x4               esp-idf/heap/libheap.a(heap_caps_init.c.obj)

Discarded input sections

 .text          0x0000000000000000        0x0 CMakeFiles/hello-world.elf.dir/project_elf_src_esp32c3.c.obj
 .data          0x0000000000000000        0x0 CMakeFiles/hello-world.elf.dir/project_elf_src_esp32c3.c.obj
 .bss           0x0000000000000000        0x0 CMakeFiles/hello-world.elf.dir/project_elf_src_esp32c3.c.obj
 .comment       0x0000000000000000       0x26 CMakeFiles/hello-world.elf.dir/project_elf_src_esp32c3.c.obj
 .riscv.attributes
                0x0000000000000000       0x24 CMakeFiles/hello-world.elf.dir/project_elf_src_esp32c3.c.obj
 .text          0x0000000000000000        0x0 esp-idf/app_update/libapp_update.a(esp_app_desc.c.obj)
 .data          0x0000000000000000        0x0 esp-idf/app_update/libapp_update.a(esp_app_desc.c.obj)
 .bss           0x0000000000000000        0x0 esp-idf/app_update/libapp_update.a(esp_app_desc.c.obj)
 .text          0x0000000000000000        0x0 esp-idf/pthread/libpthread.a(pthread.c.obj)
 .data          0x0000000000000000        0x0 esp-idf/pthread/libpthread.a(pthread.c.obj)
 .bss           0x0000000000000000        0x0 esp-idf/pthread/libpthread.a(pthread.c.obj)
 .text.pthread_list_find_item
                0x0000000000000000       0x34 esp-idf/pthread/libpthread.a(pthread.c.obj)
 .text.pthread_get_handle_by_desc
                0x0000000000000000        0xc esp-idf/pthread/libpthread.a(pthread.c.obj)
 .text.pthread_get_desc_by_handle
                0x0000000000000000        0xa esp-idf/pthread/libpthread.a(pthread.c.obj)
Memory Configuration

Name             Origin             Length             Attributes
iram0_0_seg      0x0000000040380000 0x0000000000050000 xr
iram0_2_seg      0x0000000042000020 0x00000000007fffe0 xr
dram0_0_seg      0x000000003fc80000 0x0000000000050000 rw
drom0_0_seg      0x000000003c000020 0x00000000007fffe0 r
rtc_iram_seg     0x0000000050000000 0x0000000000002000 xrw
*default*        0x0000000000000000 0xffffffffffffffff

Linker script and memory map

LOAD CMakeFiles/hello-world.elf.dir/project_elf_src_esp32c3.c.obj
LOAD esp-idf/esp_ringbuf/libesp_ringbuf.a
LOAD esp-idf/efuse/libefuse.a
LOAD esp-idf/esp_ipc/libesp_ipc.a
LOAD esp-idf/driver/libdriver.a
LOAD esp-idf/esp_pm/libesp_pm.a
LOAD esp-idf/mbedtls/libmbedtls.a
LOAD esp-idf/app_update/libapp_update.a
LOAD esp-idf/bootloader_support/libbootloader_support.a
LOAD esp-idf/spi_flash/libspi_flash.a
LOAD esp-idf/nvs_flash/libnvs_flash.a
LOAD esp-idf/pthread/libpthread.a
LOAD esp-idf/esp_gdbstub/libesp_gdbstub.a
LOAD esp-idf/espcoredump/libespcoredump.a
LOAD esp-idf/esp_phy/libesp_phy.a
LOAD esp-idf/esp_system/libesp_system.a
LOAD esp-idf/esp_rom/libesp_rom.a
LOAD esp-idf/hal/libhal.a
LOAD esp-idf/vfs/libvfs.a
LOAD esp-idf/esp_eth/libesp_eth.a
LOAD esp-idf/tcpip_adapter/libtcpip_adapter.a
LOAD esp-idf/esp_netif/libesp_netif.a
LOAD esp-idf/esp_event/libesp_event.a
LOAD esp-idf/wpa_supplicant/libwpa_supplicant.a
LOAD esp-idf/esp_wifi/libesp_wifi.a
LOAD esp-idf/lwip/liblwip.a
LOAD esp-idf/log/liblog.a
LOAD esp-idf/heap/libheap.a
LOAD esp-idf/soc/libsoc.a
LOAD esp-idf/esp_hw_support/libesp_hw_support.a
LOAD esp-idf/riscv/libriscv.a
LOAD esp-idf/esp_common/libesp_common.a
LOAD esp-idf/esp_timer/libesp_timer.a
LOAD esp-idf/freertos/libfreertos.a
LOAD esp-idf/newlib/libnewlib.a
LOAD esp-idf/cxx/libcxx.a
LOAD esp-idf/app_trace/libapp_trace.a
LOAD esp-idf/asio/libasio.a
LOAD esp-idf/cbor/libcbor.a
LOAD esp-idf/unity/libunity.a
LOAD esp-idf/cmock/libcmock.a
LOAD esp-idf/coap/libcoap.a
LOAD esp-idf/console/libconsole.a
LOAD esp-idf/nghttp/libnghttp.a
LOAD esp-idf/esp-tls/libesp-tls.a
LOAD esp-idf/esp_adc_cal/libesp_adc_cal.a
LOAD esp-idf/esp_hid/libesp_hid.a
LOAD esp-idf/tcp_transport/libtcp_transport.a
LOAD esp-idf/esp_http_client/libesp_http_client.a
LOAD esp-idf/esp_http_server/libesp_http_server.a
LOAD esp-idf/esp_https_ota/libesp_https_ota.a
LOAD esp-idf/esp_lcd/libesp_lcd.a
LOAD esp-idf/protobuf-c/libprotobuf-c.a
LOAD esp-idf/protocomm/libprotocomm.a
LOAD esp-idf/mdns/libmdns.a
LOAD esp-idf/esp_local_ctrl/libesp_local_ctrl.a
LOAD esp-idf/sdmmc/libsdmmc.a
LOAD esp-idf/esp_serial_slave_link/libesp_serial_slave_link.a
LOAD esp-idf/esp_websocket_client/libesp_websocket_client.a
LOAD esp-idf/expat/libexpat.a
LOAD esp-idf/wear_levelling/libwear_levelling.a
LOAD esp-idf/fatfs/libfatfs.a
LOAD esp-idf/freemodbus/libfreemodbus.a
LOAD esp-idf/jsmn/libjsmn.a
LOAD esp-idf/json/libjson.a
LOAD esp-idf/libsodium/liblibsodium.a
LOAD esp-idf/mqtt/libmqtt.a
LOAD esp-idf/openssl/libopenssl.a
LOAD esp-idf/spiffs/libspiffs.a
LOAD esp-idf/wifi_provisioning/libwifi_provisioning.a
LOAD esp-idf/main/libmain.a
LOAD esp-idf/asio/libasio.a
LOAD esp-idf/cbor/libcbor.a
LOAD esp-idf/cmock/libcmock.a
LOAD esp-idf/unity/libunity.a
LOAD esp-idf/coap/libcoap.a
LOAD esp-idf/esp_adc_cal/libesp_adc_cal.a
LOAD esp-idf/esp_hid/libesp_hid.a
LOAD esp-idf/esp_lcd/libesp_lcd.a
LOAD esp-idf/esp_local_ctrl/libesp_local_ctrl.a
LOAD esp-idf/esp_websocket_client/libesp_websocket_client.a
LOAD esp-idf/expat/libexpat.a
LOAD esp-idf/fatfs/libfatfs.a
LOAD esp-idf/wear_levelling/libwear_levelling.a
LOAD esp-idf/freemodbus/libfreemodbus.a
LOAD esp-idf/jsmn/libjsmn.a
LOAD esp-idf/libsodium/liblibsodium.a
LOAD esp-idf/mqtt/libmqtt.a
LOAD esp-idf/openssl/libopenssl.a
LOAD esp-idf/spiffs/libspiffs.a
LOAD esp-idf/wifi_provisioning/libwifi_provisioning.a
LOAD esp-idf/protocomm/libprotocomm.a
LOAD esp-idf/protobuf-c/libprotobuf-c.a
LOAD esp-idf/mdns/libmdns.a
LOAD esp-idf/console/libconsole.a
LOAD esp-idf/json/libjson.a
LOAD esp-idf/esp_ringbuf/libesp_ringbuf.a
LOAD esp-idf/efuse/libefuse.a
LOAD esp-idf/esp_ipc/libesp_ipc.a
LOAD esp-idf/driver/libdriver.a
LOAD esp-idf/esp_pm/libesp_pm.a
LOAD esp-idf/mbedtls/libmbedtls.a
LOAD esp-idf/app_update/libapp_update.a
LOAD esp-idf/bootloader_support/libbootloader_support.a
LOAD esp-idf/spi_flash/libspi_flash.a
LOAD esp-idf/nvs_flash/libnvs_flash.a
LOAD esp-idf/pthread/libpthread.a
LOAD esp-idf/esp_gdbstub/libesp_gdbstub.a
LOAD esp-idf/espcoredump/libespcoredump.a
LOAD esp-idf/esp_phy/libesp_phy.a
LOAD esp-idf/esp_system/libesp_system.a
LOAD esp-idf/esp_rom/libesp_rom.a
LOAD esp-idf/hal/libhal.a
LOAD esp-idf/vfs/libvfs.a
LOAD esp-idf/esp_eth/libesp_eth.a
LOAD esp-idf/tcpip_adapter/libtcpip_adapter.a
LOAD esp-idf/esp_netif/libesp_netif.a
LOAD esp-idf/esp_event/libesp_event.a
LOAD esp-idf/wpa_supplicant/libwpa_supplicant.a
LOAD esp-idf/esp_wifi/libesp_wifi.a
LOAD esp-idf/lwip/liblwip.a
LOAD esp-idf/log/liblog.a
LOAD esp-idf/heap/libheap.a
LOAD esp-idf/soc/libsoc.a
LOAD esp-idf/esp_hw_support/libesp_hw_support.a
LOAD esp-idf/riscv/libriscv.a
LOAD esp-idf/esp_common/libesp_common.a
LOAD esp-idf/esp_timer/libesp_timer.a
LOAD esp-idf/freertos/libfreertos.a
LOAD esp-idf/newlib/libnewlib.a
LOAD esp-idf/cxx/libcxx.a
LOAD esp-idf/app_trace/libapp_trace.a
LOAD esp-idf/nghttp/libnghttp.a
LOAD esp-idf/esp-tls/libesp-tls.a
LOAD esp-idf/tcp_transport/libtcp_transport.a
LOAD esp-idf/esp_http_client/libesp_http_client.a
LOAD esp-idf/esp_http_server/libesp_http_server.a
LOAD esp-idf/esp_https_ota/libesp_https_ota.a
LOAD esp-idf/sdmmc/libsdmmc.a
LOAD esp-idf/esp_serial_slave_link/libesp_serial_slave_link.a
LOAD esp-idf/mbedtls/mbedtls/library/libmbedtls.a
LOAD esp-idf/mbedtls/mbedtls/library/libmbedcrypto.a
LOAD esp-idf/mbedtls/mbedtls/library/libmbedx509.a
LOAD /home/xy/esp/esp-idf/components/esp_wifi/lib/esp32c3/libcoexist.a
LOAD /home/xy/esp/esp-idf/components/esp_wifi/lib/esp32c3/libcore.a
LOAD /home/xy/esp/esp-idf/components/esp_wifi/lib/esp32c3/libespnow.a
LOAD /home/xy/esp/esp-idf/components/esp_wifi/lib/esp32c3/libmesh.a
LOAD /home/xy/esp/esp-idf/components/esp_wifi/lib/esp32c3/libnet80211.a
LOAD /home/xy/esp/esp-idf/components/esp_wifi/lib/esp32c3/libpp.a
LOAD /home/xy/esp/esp-idf/components/esp_wifi/lib/esp32c3/libsmartconfig.a
LOAD /home/xy/esp/esp-idf/components/esp_wifi/lib/esp32c3/libwapi.a
LOAD esp-idf/esp_ringbuf/libesp_ringbuf.a
LOAD esp-idf/efuse/libefuse.a
LOAD esp-idf/esp_ipc/libesp_ipc.a
LOAD esp-idf/driver/libdriver.a
LOAD esp-idf/esp_pm/libesp_pm.a
LOAD esp-idf/mbedtls/libmbedtls.a
LOAD esp-idf/app_update/libapp_update.a
LOAD esp-idf/bootloader_support/libbootloader_support.a
LOAD esp-idf/spi_flash/libspi_flash.a
LOAD esp-idf/nvs_flash/libnvs_flash.a
LOAD esp-idf/pthread/libpthread.a
LOAD esp-idf/esp_gdbstub/libesp_gdbstub.a
LOAD esp-idf/espcoredump/libespcoredump.a
LOAD esp-idf/esp_phy/libesp_phy.a
LOAD esp-idf/esp_system/libesp_system.a
LOAD esp-idf/esp_rom/libesp_rom.a
LOAD esp-idf/hal/libhal.a
LOAD esp-idf/vfs/libvfs.a
LOAD esp-idf/esp_eth/libesp_eth.a
LOAD esp-idf/tcpip_adapter/libtcpip_adapter.a
LOAD esp-idf/esp_netif/libesp_netif.a
LOAD esp-idf/esp_event/libesp_event.a
LOAD esp-idf/wpa_supplicant/libwpa_supplicant.a
LOAD esp-idf/esp_wifi/libesp_wifi.a
LOAD esp-idf/lwip/liblwip.a
LOAD esp-idf/log/liblog.a
LOAD esp-idf/heap/libheap.a
LOAD esp-idf/soc/libsoc.a
LOAD esp-idf/esp_hw_support/libesp_hw_support.a
LOAD esp-idf/riscv/libriscv.a
LOAD esp-idf/esp_common/libesp_common.a
LOAD esp-idf/esp_timer/libesp_timer.a
LOAD esp-idf/freertos/libfreertos.a
LOAD esp-idf/newlib/libnewlib.a
LOAD esp-idf/cxx/libcxx.a
LOAD esp-idf/app_trace/libapp_trace.a
LOAD esp-idf/nghttp/libnghttp.a
LOAD esp-idf/esp-tls/libesp-tls.a
LOAD esp-idf/tcp_transport/libtcp_transport.a
LOAD esp-idf/esp_http_client/libesp_http_client.a
LOAD esp-idf/esp_http_server/libesp_http_server.a
LOAD esp-idf/esp_https_ota/libesp_https_ota.a
LOAD esp-idf/sdmmc/libsdmmc.a
LOAD esp-idf/esp_serial_slave_link/libesp_serial_slave_link.a
LOAD esp-idf/mbedtls/mbedtls/library/libmbedtls.a
LOAD esp-idf/mbedtls/mbedtls/library/libmbedcrypto.a
LOAD esp-idf/mbedtls/mbedtls/library/libmbedx509.a
LOAD /home/xy/esp/esp-idf/components/esp_wifi/lib/esp32c3/libcoexist.a
LOAD /home/xy/esp/esp-idf/components/esp_wifi/lib/esp32c3/libcore.a
LOAD /home/xy/esp/esp-idf/components/esp_wifi/lib/esp32c3/libespnow.a
LOAD /home/xy/esp/esp-idf/components/esp_wifi/lib/esp32c3/libmesh.a
LOAD /home/xy/esp/esp-idf/components/esp_wifi/lib/esp32c3/libnet80211.a
LOAD /home/xy/esp/esp-idf/components/esp_wifi/lib/esp32c3/libpp.a
LOAD /home/xy/esp/esp-idf/components/esp_wifi/lib/esp32c3/libsmartconfig.a
LOAD /home/xy/esp/esp-idf/components/esp_wifi/lib/esp32c3/libwapi.a
LOAD esp-idf/esp_ringbuf/libesp_ringbuf.a
LOAD esp-idf/efuse/libefuse.a
LOAD esp-idf/esp_ipc/libesp_ipc.a
LOAD esp-idf/driver/libdriver.a
LOAD esp-idf/esp_pm/libesp_pm.a
LOAD esp-idf/mbedtls/libmbedtls.a
LOAD esp-idf/app_update/libapp_update.a
LOAD esp-idf/bootloader_support/libbootloader_support.a
LOAD esp-idf/spi_flash/libspi_flash.a
LOAD esp-idf/nvs_flash/libnvs_flash.a
LOAD esp-idf/pthread/libpthread.a
LOAD esp-idf/esp_gdbstub/libesp_gdbstub.a
LOAD esp-idf/espcoredump/libespcoredump.a
LOAD esp-idf/esp_phy/libesp_phy.a
LOAD esp-idf/esp_system/libesp_system.a
LOAD esp-idf/esp_rom/libesp_rom.a
LOAD esp-idf/hal/libhal.a
LOAD esp-idf/vfs/libvfs.a
LOAD esp-idf/esp_eth/libesp_eth.a
LOAD esp-idf/tcpip_adapter/libtcpip_adapter.a
LOAD esp-idf/esp_netif/libesp_netif.a
LOAD esp-idf/esp_event/libesp_event.a
LOAD esp-idf/wpa_supplicant/libwpa_supplicant.a
LOAD esp-idf/esp_wifi/libesp_wifi.a
LOAD esp-idf/lwip/liblwip.a
LOAD esp-idf/log/liblog.a
LOAD esp-idf/heap/libheap.a
LOAD esp-idf/soc/libsoc.a
LOAD esp-idf/esp_hw_support/libesp_hw_support.a
LOAD esp-idf/riscv/libriscv.a
LOAD esp-idf/esp_common/libesp_common.a
LOAD esp-idf/esp_timer/libesp_timer.a
LOAD esp-idf/freertos/libfreertos.a
LOAD esp-idf/newlib/libnewlib.a
LOAD esp-idf/cxx/libcxx.a
LOAD esp-idf/app_trace/libapp_trace.a
LOAD esp-idf/nghttp/libnghttp.a
LOAD esp-idf/esp-tls/libesp-tls.a
LOAD esp-idf/tcp_transport/libtcp_transport.a
LOAD esp-idf/esp_http_client/libesp_http_client.a
LOAD esp-idf/esp_http_server/libesp_http_server.a
LOAD esp-idf/esp_https_ota/libesp_https_ota.a
LOAD esp-idf/sdmmc/libsdmmc.a
LOAD esp-idf/esp_serial_slave_link/libesp_serial_slave_link.a
LOAD esp-idf/mbedtls/mbedtls/library/libmbedtls.a
LOAD esp-idf/mbedtls/mbedtls/library/libmbedcrypto.a
LOAD esp-idf/mbedtls/mbedtls/library/libmbedx509.a
LOAD /home/xy/esp/esp-idf/components/esp_wifi/lib/esp32c3/libcoexist.a
LOAD /home/xy/esp/esp-idf/components/esp_wifi/lib/esp32c3/libcore.a
LOAD /home/xy/esp/esp-idf/components/esp_wifi/lib/esp32c3/libespnow.a
LOAD /home/xy/esp/esp-idf/components/esp_wifi/lib/esp32c3/libmesh.a
LOAD /home/xy/esp/esp-idf/components/esp_wifi/lib/esp32c3/libnet80211.a
LOAD /home/xy/esp/esp-idf/components/esp_wifi/lib/esp32c3/libpp.a
LOAD /home/xy/esp/esp-idf/components/esp_wifi/lib/esp32c3/libsmartconfig.a
LOAD /home/xy/esp/esp-idf/components/esp_wifi/lib/esp32c3/libwapi.a
LOAD esp-idf/esp_ringbuf/libesp_ringbuf.a
LOAD esp-idf/efuse/libefuse.a
LOAD esp-idf/esp_ipc/libesp_ipc.a
LOAD esp-idf/driver/libdriver.a
LOAD esp-idf/esp_pm/libesp_pm.a
LOAD esp-idf/mbedtls/libmbedtls.a
LOAD esp-idf/app_update/libapp_update.a
LOAD esp-idf/bootloader_support/libbootloader_support.a
LOAD esp-idf/spi_flash/libspi_flash.a
LOAD esp-idf/nvs_flash/libnvs_flash.a
LOAD esp-idf/pthread/libpthread.a
LOAD esp-idf/esp_gdbstub/libesp_gdbstub.a
LOAD esp-idf/espcoredump/libespcoredump.a
LOAD esp-idf/esp_phy/libesp_phy.a
LOAD esp-idf/esp_system/libesp_system.a
LOAD esp-idf/esp_rom/libesp_rom.a
LOAD esp-idf/hal/libhal.a
LOAD esp-idf/vfs/libvfs.a
LOAD esp-idf/esp_eth/libesp_eth.a
LOAD esp-idf/tcpip_adapter/libtcpip_adapter.a
LOAD esp-idf/esp_netif/libesp_netif.a
LOAD esp-idf/esp_event/libesp_event.a
LOAD esp-idf/wpa_supplicant/libwpa_supplicant.a
LOAD esp-idf/esp_wifi/libesp_wifi.a
LOAD esp-idf/lwip/liblwip.a
LOAD esp-idf/log/liblog.a
LOAD esp-idf/heap/libheap.a
LOAD esp-idf/soc/libsoc.a
LOAD esp-idf/esp_hw_support/libesp_hw_support.a
LOAD esp-idf/riscv/libriscv.a
LOAD esp-idf/esp_common/libesp_common.a
LOAD esp-idf/esp_timer/libesp_timer.a
LOAD esp-idf/freertos/libfreertos.a
LOAD esp-idf/newlib/libnewlib.a
LOAD esp-idf/cxx/libcxx.a
LOAD esp-idf/app_trace/libapp_trace.a
LOAD esp-idf/nghttp/libnghttp.a
LOAD esp-idf/esp-tls/libesp-tls.a
LOAD esp-idf/tcp_transport/libtcp_transport.a
LOAD esp-idf/esp_http_client/libesp_http_client.a
LOAD esp-idf/esp_http_server/libesp_http_server.a
LOAD esp-idf/esp_https_ota/libesp_https_ota.a
LOAD esp-idf/sdmmc/libsdmmc.a
LOAD esp-idf/esp_serial_slave_link/libesp_serial_slave_link.a
LOAD esp-idf/mbedtls/mbedtls/library/libmbedtls.a
LOAD esp-idf/mbedtls/mbedtls/library/libmbedcrypto.a
LOAD esp-idf/mbedtls/mbedtls/library/libmbedx509.a
LOAD /home/xy/esp/esp-idf/components/esp_wifi/lib/esp32c3/libcoexist.a
LOAD /home/xy/esp/esp-idf/components/esp_wifi/lib/esp32c3/libcore.a
LOAD /home/xy/esp/esp-idf/components/esp_wifi/lib/esp32c3/libespnow.a
LOAD /home/xy/esp/esp-idf/components/esp_wifi/lib/esp32c3/libmesh.a
LOAD /home/xy/esp/esp-idf/components/esp_wifi/lib/esp32c3/libnet80211.a
LOAD /home/xy/esp/esp-idf/components/esp_wifi/lib/esp32c3/libpp.a
LOAD /home/xy/esp/esp-idf/components/esp_wifi/lib/esp32c3/libsmartconfig.a
LOAD /home/xy/esp/esp-idf/components/esp_wifi/lib/esp32c3/libwapi.a
LOAD esp-idf/esp_ringbuf/libesp_ringbuf.a
LOAD esp-idf/efuse/libefuse.a
LOAD esp-idf/esp_ipc/libesp_ipc.a
LOAD esp-idf/driver/libdriver.a
LOAD esp-idf/esp_pm/libesp_pm.a
LOAD esp-idf/mbedtls/libmbedtls.a
LOAD esp-idf/app_update/libapp_update.a
LOAD esp-idf/bootloader_support/libbootloader_support.a
LOAD esp-idf/spi_flash/libspi_flash.a
LOAD esp-idf/nvs_flash/libnvs_flash.a
LOAD esp-idf/pthread/libpthread.a
LOAD esp-idf/esp_gdbstub/libesp_gdbstub.a
LOAD esp-idf/espcoredump/libespcoredump.a
LOAD esp-idf/esp_phy/libesp_phy.a
LOAD esp-idf/esp_system/libesp_system.a
LOAD esp-idf/esp_rom/libesp_rom.a
LOAD esp-idf/hal/libhal.a
LOAD esp-idf/vfs/libvfs.a
LOAD esp-idf/esp_eth/libesp_eth.a
LOAD esp-idf/tcpip_adapter/libtcpip_adapter.a
LOAD esp-idf/esp_netif/libesp_netif.a
LOAD esp-idf/esp_event/libesp_event.a
LOAD esp-idf/wpa_supplicant/libwpa_supplicant.a
LOAD esp-idf/esp_wifi/libesp_wifi.a
LOAD esp-idf/lwip/liblwip.a
LOAD esp-idf/log/liblog.a
LOAD esp-idf/heap/libheap.a
LOAD esp-idf/soc/libsoc.a
LOAD esp-idf/esp_hw_support/libesp_hw_support.a
LOAD esp-idf/riscv/libriscv.a
LOAD esp-idf/esp_common/libesp_common.a
LOAD esp-idf/esp_timer/libesp_timer.a
LOAD esp-idf/freertos/libfreertos.a
LOAD esp-idf/newlib/libnewlib.a
LOAD esp-idf/cxx/libcxx.a
LOAD esp-idf/app_trace/libapp_trace.a
LOAD esp-idf/nghttp/libnghttp.a
LOAD esp-idf/esp-tls/libesp-tls.a
LOAD esp-idf/tcp_transport/libtcp_transport.a
LOAD esp-idf/esp_http_client/libesp_http_client.a
LOAD esp-idf/esp_http_server/libesp_http_server.a
LOAD esp-idf/esp_https_ota/libesp_https_ota.a
LOAD esp-idf/sdmmc/libsdmmc.a
LOAD esp-idf/esp_serial_slave_link/libesp_serial_slave_link.a
LOAD esp-idf/mbedtls/mbedtls/library/libmbedtls.a
LOAD esp-idf/mbedtls/mbedtls/library/libmbedcrypto.a
LOAD esp-idf/mbedtls/mbedtls/library/libmbedx509.a
LOAD /home/xy/esp/esp-idf/components/esp_wifi/lib/esp32c3/libcoexist.a
LOAD /home/xy/esp/esp-idf/components/esp_wifi/lib/esp32c3/libcore.a
LOAD /home/xy/esp/esp-idf/components/esp_wifi/lib/esp32c3/libespnow.a
LOAD /home/xy/esp/esp-idf/components/esp_wifi/lib/esp32c3/libmesh.a
LOAD /home/xy/esp/esp-idf/components/esp_wifi/lib/esp32c3/libnet80211.a
LOAD /home/xy/esp/esp-idf/components/esp_wifi/lib/esp32c3/libpp.a
LOAD /home/xy/esp/esp-idf/components/esp_wifi/lib/esp32c3/libsmartconfig.a
LOAD /home/xy/esp/esp-idf/components/esp_wifi/lib/esp32c3/libwapi.a
LOAD esp-idf/esp_ringbuf/libesp_ringbuf.a
LOAD esp-idf/efuse/libefuse.a
LOAD esp-idf/esp_ipc/libesp_ipc.a
LOAD esp-idf/driver/libdriver.a
LOAD esp-idf/esp_pm/libesp_pm.a
LOAD esp-idf/mbedtls/libmbedtls.a
LOAD esp-idf/app_update/libapp_update.a
LOAD esp-idf/bootloader_support/libbootloader_support.a
LOAD esp-idf/spi_flash/libspi_flash.a
LOAD esp-idf/nvs_flash/libnvs_flash.a
LOAD esp-idf/pthread/libpthread.a
LOAD esp-idf/esp_gdbstub/libesp_gdbstub.a
LOAD esp-idf/espcoredump/libespcoredump.a
LOAD esp-idf/esp_phy/libesp_phy.a
LOAD esp-idf/esp_system/libesp_system.a
LOAD esp-idf/esp_rom/libesp_rom.a
LOAD esp-idf/hal/libhal.a
LOAD esp-idf/vfs/libvfs.a
LOAD esp-idf/esp_eth/libesp_eth.a
LOAD esp-idf/tcpip_adapter/libtcpip_adapter.a
LOAD esp-idf/esp_netif/libesp_netif.a
LOAD esp-idf/esp_event/libesp_event.a
LOAD esp-idf/wpa_supplicant/libwpa_supplicant.a
LOAD esp-idf/esp_wifi/libesp_wifi.a
LOAD esp-idf/lwip/liblwip.a
LOAD esp-idf/log/liblog.a
LOAD esp-idf/heap/libheap.a
LOAD esp-idf/soc/libsoc.a
LOAD esp-idf/esp_hw_support/libesp_hw_support.a
LOAD esp-idf/riscv/libriscv.a
LOAD esp-idf/esp_common/libesp_common.a
LOAD esp-idf/esp_timer/libesp_timer.a
LOAD esp-idf/freertos/libfreertos.a
LOAD esp-idf/newlib/libnewlib.a
LOAD esp-idf/cxx/libcxx.a
LOAD esp-idf/app_trace/libapp_trace.a
LOAD esp-idf/nghttp/libnghttp.a
LOAD esp-idf/esp-tls/libesp-tls.a
LOAD esp-idf/tcp_transport/libtcp_transport.a
LOAD esp-idf/esp_http_client/libesp_http_client.a
LOAD esp-idf/esp_http_server/libesp_http_server.a
LOAD esp-idf/esp_https_ota/libesp_https_ota.a
LOAD esp-idf/sdmmc/libsdmmc.a
LOAD esp-idf/esp_serial_slave_link/libesp_serial_slave_link.a
LOAD esp-idf/mbedtls/mbedtls/library/libmbedtls.a
LOAD esp-idf/mbedtls/mbedtls/library/libmbedcrypto.a
LOAD esp-idf/mbedtls/mbedtls/library/libmbedx509.a
LOAD /home/xy/esp/esp-idf/components/esp_wifi/lib/esp32c3/libcoexist.a
LOAD /home/xy/esp/esp-idf/components/esp_wifi/lib/esp32c3/libcore.a
LOAD /home/xy/esp/esp-idf/components/esp_wifi/lib/esp32c3/libespnow.a
LOAD /home/xy/esp/esp-idf/components/esp_wifi/lib/esp32c3/libmesh.a
LOAD /home/xy/esp/esp-idf/components/esp_wifi/lib/esp32c3/libnet80211.a
LOAD /home/xy/esp/esp-idf/components/esp_wifi/lib/esp32c3/libpp.a
LOAD /home/xy/esp/esp-idf/components/esp_wifi/lib/esp32c3/libsmartconfig.a
LOAD /home/xy/esp/esp-idf/components/esp_wifi/lib/esp32c3/libwapi.a
LOAD /home/xy/esp/esp-idf/components/esp_phy/lib/esp32c3\libphy.a
LOAD esp-idf/esp_phy/libesp_phy.a
LOAD /home/xy/esp/esp-idf/components/esp_phy/lib/esp32c3\libphy.a
LOAD esp-idf/esp_phy/libesp_phy.a
LOAD /home/xy/esp/esp-idf/components/esp_phy/lib/esp32c3\libphy.a
LOAD /home/xy/esp/esp-idf/components/esp_phy/lib/esp32c3\libbtbb.a
LOAD esp-idf/newlib/libnewlib.a
LOAD /home/xy/.espressif/tools/riscv32-esp-elf/esp-2021r1-8.4.0/riscv32-esp-elf/bin/../lib/gcc/riscv32-esp-elf/8.4.0/../../../../riscv32-esp-elf/lib/rv32im/ilp32\libstdc++.a
LOAD esp-idf/pthread/libpthread.a
LOAD /home/xy/.espressif/tools/riscv32-esp-elf/esp-2021r1-8.4.0/riscv32-esp-elf/bin/../lib/gcc/riscv32-esp-elf/8.4.0/rv32im/ilp32\libgcc.a
LOAD esp-idf/cxx/libcxx.a
LOAD esp-idf/app_trace/libapp_trace.a
LOAD /home/xy/.espressif/tools/riscv32-esp-elf/esp-2021r1-8.4.0/riscv32-esp-elf/bin/../lib/gcc/riscv32-esp-elf/8.4.0/rv32im/ilp32\libgcov.a
LOAD esp-idf/app_trace/libapp_trace.a
LOAD /home/xy/.espressif/tools/riscv32-esp-elf/esp-2021r1-8.4.0/riscv32-esp-elf/bin/../lib/gcc/riscv32-esp-elf/8.4.0/rv32im/ilp32\libgcov.a
LOAD /home/xy/.espressif/tools/riscv32-esp-elf/esp-2021r1-8.4.0/riscv32-esp-elf/bin/../lib/gcc/riscv32-esp-elf/8.4.0/../../../../riscv32-esp-elf/lib/rv32im/ilp32\libstdc++.a
LOAD /home/xy/.espressif/tools/riscv32-esp-elf/esp-2021r1-8.4.0/riscv32-esp-elf/bin/../lib/gcc/riscv32-esp-elf/8.4.0/../../../../riscv32-esp-elf/lib/rv32im/ilp32\libm.a
LOAD /home/xy/.espressif/tools/riscv32-esp-elf/esp-2021r1-8.4.0/riscv32-esp-elf/bin/../lib/gcc/riscv32-esp-elf/8.4.0/../../../../riscv32-esp-elf/lib/rv32im/ilp32\libc.a
LOAD /home/xy/.espressif/tools/riscv32-esp-elf/esp-2021r1-8.4.0/riscv32-esp-elf/bin/../lib/gcc/riscv32-esp-elf/8.4.0/rv32im/ilp32\libgcc.a
START GROUP
LOAD /home/xy/.espressif/tools/riscv32-esp-elf/esp-2021r1-8.4.0/riscv32-esp-elf/bin/../lib/gcc/riscv32-esp-elf/8.4.0/../../../../riscv32-esp-elf/lib/rv32im/ilp32\libc.a
END GROUP
LOAD /home/xy/.espressif/tools/riscv32-esp-elf/esp-2021r1-8.4.0/riscv32-esp-elf/bin/../lib/gcc/riscv32-esp-elf/8.4.0/rv32im/ilp32\libgcc.a
START GROUP
LOAD /home/xy/.espressif/tools/riscv32-esp-elf/esp-2021r1-8.4.0/riscv32-esp-elf/bin/../lib/gcc/riscv32-esp-elf/8.4.0/rv32im/ilp32\libgcc.a
LOAD /home/xy/.espressif/tools/riscv32-esp-elf/esp-2021r1-8.4.0/riscv32-esp-elf/bin/../lib/gcc/riscv32-esp-elf/8.4.0/../../../../riscv32-esp-elf/lib/rv32im/ilp32\libc.a
LOAD /home/xy/.espressif/tools/riscv32-esp-elf/esp-2021r1-8.4.0/riscv32-esp-elf/bin/../lib/gcc/riscv32-esp-elf/8.4.0/../../../../riscv32-esp-elf/lib/rv32im/ilp32\libnosys.a
END GROUP
                0x000000003fc8be10                _static_data_end = _bss_end
                0x0000000040000000                _heap_end = 0x40000000
                0x0000000050000000                _data_seg_org = ORIGIN (rtc_data_seg)
                0x0000000000000001                ASSERT ((_flash_rodata_dummy_start == ORIGIN (default_rodata_seg)), .flash_rodata_dummy section must be placed at the beginning of the rodata segment.)

.rtc.text       0x0000000050000000        0x0
                0x0000000050000000                . = ALIGN (0x4)
 *(.rtc.literal .rtc.text .rtc.text.*)
 *rtc_wake_stub*.*(.literal .text .literal.* .text.*)
                0x0000000050000000                _rtc_text_end = ABSOLUTE (.)

.rtc.dummy      0x0000000050000000        0x0
                0x0000000050000000                _rtc_dummy_start = ABSOLUTE (.)
                0x0000000050000000                _rtc_fast_start = ABSOLUTE (.)
                0x0000000000000000                . = SIZEOF (.rtc.text)
                0x0000000050000000                _rtc_dummy_end = ABSOLUTE (.)

.rtc.force_fast
                0x0000000050000000        0x0
                0x0000000050000000                . = ALIGN (0x4)
                0x0000000050000000                _rtc_force_fast_start = ABSOLUTE (.)
                0x0000000050000000                _coredump_rtc_fast_start = ABSOLUTE (.)
 *(.rtc.fast.coredump .rtc.fast.coredump.*)
                0x0000000050000000                _coredump_rtc_fast_end = ABSOLUTE (.)
 *(.rtc.force_fast .rtc.force_fast.*)
                0x0000000050000000                . = ALIGN (0x4)
                0x0000000050000000                _rtc_force_fast_end = ABSOLUTE (.)

.rtc.data       0x0000000050000000       0x10
                0x0000000050000000                _rtc_data_start = ABSOLUTE (.)
                0x0000000050000000                _coredump_rtc_start = ABSOLUTE (.)
 *(.rtc.coredump .rtc.coredump.*)
                0x0000000050000000                _coredump_rtc_end = ABSOLUTE (.)
 *(.rtc.data .rtc.data.*)
 .rtc.data.0    0x0000000050000000       0x10 esp-idf/esp_hw_support/libesp_hw_support.a(esp_clk.c.obj)
 *(.rtc.rodata .rtc.rodata.*)
 *rtc_wake_stub*.*(.data .rodata .data.* .rodata.* .bss .bss.*)
                0x0000000050000010                _rtc_data_end = ABSOLUTE (.)

.rtc.bss        0x0000000050000010        0x0
                0x0000000050000010                _rtc_bss_start = ABSOLUTE (.)
 *rtc_wake_stub*.*(.bss .bss.*)
 *rtc_wake_stub*.*(COMMON)
 *(.rtc.bss)
                0x0000000050000010                _rtc_bss_end = ABSOLUTE (.)

.rtc_noinit     0x0000000050000010        0x0
                0x0000000050000010                . = ALIGN (0x4)
                0x0000000050000010                _rtc_noinit_start = ABSOLUTE (.)
 *(.rtc_noinit .rtc_noinit.*)
                0x0000000050000010                . = ALIGN (0x4)
                0x0000000050000010                _rtc_noinit_end = ABSOLUTE (.)

.rtc.force_slow
                0x0000000050000010        0x0
                0x0000000050000010                . = ALIGN (0x4)
                0x0000000050000010                _rtc_force_slow_start = ABSOLUTE (.)
 *(.rtc.force_slow .rtc.force_slow.*)
                0x0000000050000010                . = ALIGN (0x4)
                0x0000000050000010                _rtc_force_slow_end = ABSOLUTE (.)
                0x0000000000000010                _rtc_slow_length = (ORIGIN (rtc_slow_seg) == ORIGIN (rtc_data_location))?(_rtc_force_slow_end - _rtc_data_start):(_rtc_force_slow_end - _rtc_force_slow_start)
                0x0000000000000000                _rtc_fast_length = (ORIGIN (rtc_slow_seg) == ORIGIN (rtc_data_location))?(_rtc_force_fast_end - _rtc_fast_start):(_rtc_noinit_end - _rtc_fast_start)
                0x0000000000000000                ASSERT ((_rtc_slow_length <= LENGTH (rtc_slow_seg)), RTC_SLOW segment data does not fit.)
                0x0000000000000000                ASSERT ((_rtc_fast_length <= LENGTH (rtc_data_seg)), RTC_FAST segment data does not fit.)

.iram0.text     0x0000000040380000     0x9b4a
                0x0000000040380000                _iram_start = ABSOLUTE (.)
                0x0000000000000001                ASSERT (((ABSOLUTE (.) % 0x100) == 0x0), vector address must be 256 byte aligned)
 *(.exception_vectors.text)
 .exception_vectors.text
                0x0000000040380000      0x20a esp-idf/riscv/libriscv.a(vectors.S.obj)
                0x0000000040380000                _vector_table
                0x0000000040380104                _interrupt_handler
                0x000000004038020c                . = ALIGN (0x4)
 *fill*         0x000000004038020a        0x2
                0x000000004038020c                _invalid_pc_placeholder = ABSOLUTE (.)
                0x000000004038020c                _iram_text_start = ABSOLUTE (.)
 *(.iram1 .iram1.*)
 .iram1.1       0x000000004038020c       0xc6 esp-idf/app_update/libapp_update.a(esp_app_desc.c.obj)
                0x000000004038020c                esp_ota_get_app_elf_sha256
 .iram1.37      0x00000000403802d2      0x1d0 esp-idf/esp_system/libesp_system.a(cpu_start.c.obj)
                0x00000000403802d2                call_start_cpu0
 .iram1.0       0x00000000403804a2        0x4 esp-idf/esp_system/libesp_system.a(cache_err_int.c.obj)
                0x00000000403804a2                esp_cache_err_get_cpuid
 .iram1.40      0x00000000403804a6       0x22 esp-idf/esp_system/libesp_system.a(esp_system.c.obj)
                0x00000000403804a6                esp_restart_noos_dig
 .iram1.41      0x00000000403804c8       0x2c esp-idf/esp_system/libesp_system.a(esp_system.c.obj)
                0x00000000403804c8                esp_restart
 .iram1.27      0x00000000403804f4       0x2c esp-idf/esp_system/libesp_system.a(startup.c.obj)
 .iram1.3       0x0000000040380520      0x12a esp-idf/esp_system/libesp_system.a(system_internal.c.obj)
                0x0000000040380520                esp_restart_noos
 .iram1.25      0x000000004038064a       0x1a esp-idf/esp_system/libesp_system.a(apb_backup_dma.c.obj)
 .iram1.24      0x0000000040380664       0x1a esp-idf/esp_system/libesp_system.a(apb_backup_dma.c.obj)
 .iram1.3       0x000000004038067e        0x2 esp-idf/esp_system/libesp_system.a(panic.c.obj)
                0x000000004038067e                esp_reset_reason_set_hint
 .iram1.4       0x0000000040380680        0x4 esp-idf/esp_system/libesp_system.a(panic.c.obj)
                0x0000000040380680                esp_reset_reason_get_hint
 .iram1.36      0x0000000040380684       0x16 esp-idf/esp_system/libesp_system.a(panic_handler.c.obj)
 .iram1.37      0x000000004038069a       0x1e esp-idf/esp_system/libesp_system.a(panic_handler.c.obj)
                0x000000004038069a                panicHandler
 .iram1.38      0x00000000403806b8       0x1e esp-idf/esp_system/libesp_system.a(panic_handler.c.obj)
                0x00000000403806b8                xt_unhandled_exception
 .iram1.0       0x00000000403806d6       0x18 esp-idf/esp_rom/libesp_rom.a(esp_rom_uart.c.obj)
                0x00000000403806d6                esp_rom_uart_set_clock_baudrate
 .iram1.32      0x00000000403806ee       0x22 esp-idf/heap/libheap.a(heap_caps.c.obj)
 .iram1.25      0x0000000040380710       0xd4 esp-idf/heap/libheap.a(heap_caps.c.obj)
 .iram1.26      0x00000000403807e4       0xfe esp-idf/heap/libheap.a(heap_caps.c.obj)
                0x00000000403807e4                heap_caps_malloc
 .iram1.27      0x00000000403808e2       0x44 esp-idf/heap/libheap.a(heap_caps.c.obj)
                0x00000000403808e2                heap_caps_malloc_default
 .iram1.33      0x0000000040380926       0x58 esp-idf/heap/libheap.a(heap_caps.c.obj)
                0x0000000040380926                heap_caps_free
 .iram1.34      0x000000004038097e      0x184 esp-idf/heap/libheap.a(heap_caps.c.obj)
                0x000000004038097e                heap_caps_realloc
 .iram1.28      0x0000000040380b02       0x4e esp-idf/heap/libheap.a(heap_caps.c.obj)
                0x0000000040380b02                heap_caps_realloc_default
 .iram1.5       0x0000000040380b50        0xe esp-idf/esp_hw_support/libesp_hw_support.a(cpu_util.c.obj)
                0x0000000040380b50                esp_cpu_reset
 .iram1.8       0x0000000040380b5e        0xe esp-idf/esp_hw_support/libesp_hw_support.a(cpu_util.c.obj)
                0x0000000040380b5e                esp_cpu_in_ocd_debug_mode
 .iram1.2       0x0000000040380b6c       0x1e esp-idf/esp_hw_support/libesp_hw_support.a(esp_clk.c.obj)
                0x0000000040380b6c                esp_clk_cpu_freq
 .iram1.26      0x0000000040380b8a       0x3a esp-idf/esp_hw_support/libesp_hw_support.a(intr_alloc.c.obj)
 .iram1.30      0x0000000040380bc4       0x7e esp-idf/esp_hw_support/libesp_hw_support.a(intr_alloc.c.obj)
                0x0000000040380bc4                esp_intr_noniram_disable
 .iram1.31      0x0000000040380c42       0x5e esp-idf/esp_hw_support/libesp_hw_support.a(intr_alloc.c.obj)
                0x0000000040380c42                esp_intr_noniram_enable
 .iram1.28      0x0000000040380ca0       0x9c esp-idf/esp_hw_support/libesp_hw_support.a(intr_alloc.c.obj)
                0x0000000040380ca0                esp_intr_enable
 .iram1.29      0x0000000040380d3c       0xfe esp-idf/esp_hw_support/libesp_hw_support.a(intr_alloc.c.obj)
                0x0000000040380d3c                esp_intr_disable
 .iram1.27      0x0000000040380e3a       0x46 esp-idf/esp_hw_support/libesp_hw_support.a(regi2c_ctrl.c.obj)
                0x0000000040380e3a                regi2c_ctrl_read_reg_mask
 .iram1.28      0x0000000040380e80       0x3a esp-idf/esp_hw_support/libesp_hw_support.a(regi2c_ctrl.c.obj)
                0x0000000040380e80                regi2c_ctrl_write_reg
 .iram1.29      0x0000000040380eba       0x4a esp-idf/esp_hw_support/libesp_hw_support.a(regi2c_ctrl.c.obj)
                0x0000000040380eba                regi2c_ctrl_write_reg_mask
 .iram1.0       0x0000000040380f04        0x4 esp-idf/esp_hw_support/libesp_hw_support.a(memprot.c.obj)
                0x0000000040380f04                esp_memprot_intr_get_cpuid
 .iram1.2       0x0000000040380f08       0x1a esp-idf/esp_hw_support/libesp_hw_support.a(memprot.c.obj)
                0x0000000040380f08                esp_memprot_get_active_intr_memtype
 .iram1.1       0x0000000040380f22       0x84 esp-idf/esp_hw_support/libesp_hw_support.a(memprot.c.obj)
                0x0000000040380f22                esp_memprot_monitor_clear_intr
 .iram1.6       0x0000000040380fa6       0x8a esp-idf/esp_hw_support/libesp_hw_support.a(memprot.c.obj)
                0x0000000040380fa6                esp_memprot_get_violate_addr
 .iram1.7       0x0000000040381030       0x74 esp-idf/esp_hw_support/libesp_hw_support.a(memprot.c.obj)
                0x0000000040381030                esp_memprot_get_violate_world
 .iram1.8       0x00000000403810a4       0x66 esp-idf/esp_hw_support/libesp_hw_support.a(memprot.c.obj)
                0x00000000403810a4                esp_memprot_get_violate_wr
 .iram1.9       0x000000004038110a       0x54 esp-idf/esp_hw_support/libesp_hw_support.a(memprot.c.obj)
                0x000000004038110a                esp_memprot_get_violate_loadstore
 .iram1.10      0x000000004038115e       0x54 esp-idf/esp_hw_support/libesp_hw_support.a(memprot.c.obj)
                0x000000004038115e                esp_memprot_get_violate_byte_en
 .iram1.3       0x00000000403811b2       0x56 esp-idf/esp_hw_support/libesp_hw_support.a(memprot.c.obj)
                0x00000000403811b2                esp_memprot_is_locked_any
 .iram1.32      0x0000000040381208       0x1a esp-idf/esp_timer/libesp_timer.a(esp_timer.c.obj)
 .iram1.29      0x0000000040381222       0xcc esp-idf/esp_timer/libesp_timer.a(esp_timer.c.obj)
 .iram1.33      0x00000000403812ee       0x1a esp-idf/esp_timer/libesp_timer.a(esp_timer.c.obj)
 .iram1.34      0x0000000040381308       0x28 esp-idf/esp_timer/libesp_timer.a(esp_timer.c.obj)
 .iram1.3       0x0000000040381330       0x26 esp-idf/esp_timer/libesp_timer.a(system_time.c.obj)
                0x0000000040381330                esp_system_get_time
 .iram1.28      0x0000000040381356       0x24 esp-idf/esp_timer/libesp_timer.a(esp_timer_impl_systimer.c.obj)
 .iram1.25      0x000000004038137a       0x32 esp-idf/esp_timer/libesp_timer.a(esp_timer_impl_systimer.c.obj)
                0x000000004038137a                esp_timer_get_time
                0x000000004038137a                esp_timer_impl_get_time
 .iram1.26      0x00000000403813ac       0x7c esp-idf/esp_timer/libesp_timer.a(esp_timer_impl_systimer.c.obj)
                0x00000000403813ac                esp_timer_impl_set_alarm_id
 .iram1.26      0x0000000040381428       0x72 esp-idf/freertos/libfreertos.a(port_systick.c.obj)
                0x0000000040381428                SysTickIsrHandler
 .iram1.26      0x000000004038149a       0x32 esp-idf/newlib/libnewlib.a(locks.c.obj)
 .iram1.42      0x00000000403814cc       0x2c esp-idf/newlib/libnewlib.a(locks.c.obj)
 .iram1.30      0x00000000403814f8       0xd2 esp-idf/newlib/libnewlib.a(locks.c.obj)
 .iram1.35      0x00000000403815ca       0x8a esp-idf/newlib/libnewlib.a(locks.c.obj)
 .iram1.29      0x0000000040381654       0x56 esp-idf/newlib/libnewlib.a(locks.c.obj)
                0x0000000040381654                _lock_close_recursive
                0x0000000040381654                _lock_close
 .iram1.31      0x00000000403816aa       0x10 esp-idf/newlib/libnewlib.a(locks.c.obj)
                0x00000000403816aa                _lock_acquire
 .iram1.32      0x00000000403816ba       0x10 esp-idf/newlib/libnewlib.a(locks.c.obj)
                0x00000000403816ba                _lock_acquire_recursive
 .iram1.33      0x00000000403816ca       0x10 esp-idf/newlib/libnewlib.a(locks.c.obj)
                0x00000000403816ca                _lock_try_acquire
 .iram1.34      0x00000000403816da       0x10 esp-idf/newlib/libnewlib.a(locks.c.obj)
                0x00000000403816da                _lock_try_acquire_recursive
 .iram1.36      0x00000000403816ea        0xe esp-idf/newlib/libnewlib.a(locks.c.obj)
                0x00000000403816ea                _lock_release
 .iram1.37      0x00000000403816f8        0xe esp-idf/newlib/libnewlib.a(locks.c.obj)
                0x00000000403816f8                _lock_release_recursive
 .iram1.38      0x0000000040381706       0x12 esp-idf/newlib/libnewlib.a(locks.c.obj)
                0x0000000040381706                __retarget_lock_init
 .iram1.39      0x0000000040381718       0x12 esp-idf/newlib/libnewlib.a(locks.c.obj)
                0x0000000040381718                __retarget_lock_init_recursive
 .iram1.40      0x000000004038172a       0x10 esp-idf/newlib/libnewlib.a(locks.c.obj)
                0x000000004038172a                __retarget_lock_close
 .iram1.41      0x000000004038173a       0x10 esp-idf/newlib/libnewlib.a(locks.c.obj)
                0x000000004038173a                __retarget_lock_close_recursive
 .iram1.43      0x000000004038174a       0x32 esp-idf/newlib/libnewlib.a(locks.c.obj)
                0x000000004038174a                __retarget_lock_acquire
 .iram1.44      0x000000004038177c       0x32 esp-idf/newlib/libnewlib.a(locks.c.obj)
                0x000000004038177c                __retarget_lock_acquire_recursive
 .iram1.45      0x00000000403817ae       0x32 esp-idf/newlib/libnewlib.a(locks.c.obj)
                0x00000000403817ae                __retarget_lock_try_acquire
 .iram1.46      0x00000000403817e0       0x32 esp-idf/newlib/libnewlib.a(locks.c.obj)
                0x00000000403817e0                __retarget_lock_try_acquire_recursive
 .iram1.47      0x0000000040381812       0x12 esp-idf/newlib/libnewlib.a(locks.c.obj)
                0x0000000040381812                __retarget_lock_release
 .iram1.48      0x0000000040381824       0x12 esp-idf/newlib/libnewlib.a(locks.c.obj)
                0x0000000040381824                __retarget_lock_release_recursive
 .iram1.0       0x0000000040381836       0x4c esp-idf/newlib/libnewlib.a(reent_init.c.obj)
                0x0000000040381836                esp_reent_init
 .iram1.27      0x0000000040381882       0x74 esp-idf/newlib/libnewlib.a(time.c.obj)
                0x0000000040381882                _gettimeofday_r
 .iram1.26      0x00000000403818f6       0x40 esp-idf/newlib/libnewlib.a(time.c.obj)
                0x00000000403818f6                _times_r
 .iram1.2       0x0000000040381936      0x154 esp-idf/bootloader_support/libbootloader_support.a(bootloader_flash.c.obj)
                0x0000000040381936                bootloader_execute_flash_command
 .iram1.32      0x0000000040381a8a       0x1c esp-idf/spi_flash/libspi_flash.a(cache_utils.c.obj)
 .iram1.33      0x0000000040381aa6       0x16 esp-idf/spi_flash/libspi_flash.a(cache_utils.c.obj)
 .iram1.28      0x0000000040381abc       0x22 esp-idf/spi_flash/libspi_flash.a(cache_utils.c.obj)
                0x0000000040381abc                spi_flash_disable_interrupts_caches_and_other_cpu
 .iram1.29      0x0000000040381ade       0x22 esp-idf/spi_flash/libspi_flash.a(cache_utils.c.obj)
                0x0000000040381ade                spi_flash_enable_interrupts_caches_and_other_cpu
 .iram1.34      0x0000000040381b00        0xa esp-idf/spi_flash/libspi_flash.a(cache_utils.c.obj)
                0x0000000040381b00                spi_flash_cache_enabled
 .iram1.36      0x0000000040381b0a       0x10 esp-idf/spi_flash/libspi_flash.a(cache_utils.c.obj)
                0x0000000040381b0a                spi_flash_enable_cache
 .iram1.33      0x0000000040381b1a       0x20 esp-idf/spi_flash/libspi_flash.a(flash_mmap.c.obj)
 .iram1.27      0x0000000040381b3a       0x82 esp-idf/spi_flash/libspi_flash.a(flash_mmap.c.obj)
 .iram1.28      0x0000000040381bbc       0x7a esp-idf/spi_flash/libspi_flash.a(flash_mmap.c.obj)
 .iram1.36      0x0000000040381c36       0xbc esp-idf/spi_flash/libspi_flash.a(flash_mmap.c.obj)
 .iram1.30      0x0000000040381cf2      0x232 esp-idf/spi_flash/libspi_flash.a(flash_mmap.c.obj)
                0x0000000040381cf2                spi_flash_mmap_pages
 .iram1.29      0x0000000040381f24       0xa8 esp-idf/spi_flash/libspi_flash.a(flash_mmap.c.obj)
                0x0000000040381f24                spi_flash_mmap
 .iram1.31      0x0000000040381fcc       0xd6 esp-idf/spi_flash/libspi_flash.a(flash_mmap.c.obj)
                0x0000000040381fcc                spi_flash_munmap
 .iram1.37      0x00000000403820a2       0x72 esp-idf/spi_flash/libspi_flash.a(flash_mmap.c.obj)
                0x00000000403820a2                spi_flash_check_and_flush_cache
 .iram1.37      0x0000000040382114       0x10 esp-idf/spi_flash/libspi_flash.a(flash_ops.c.obj)
 .iram1.29      0x0000000040382124        0x2 esp-idf/spi_flash/libspi_flash.a(flash_ops.c.obj)
                0x0000000040382124                esp_mspi_pin_init
 .iram1.30      0x0000000040382126        0xa esp-idf/spi_flash/libspi_flash.a(flash_ops.c.obj)
                0x0000000040382126                spi_flash_guard_set
 .iram1.32      0x0000000040382130        0xc esp-idf/spi_flash/libspi_flash.a(flash_ops.c.obj)
                0x0000000040382130                spi_flash_get_chip_size
 .iram1.26      0x000000004038213c       0x28 esp-idf/spi_flash/libspi_flash.a(esp_flash_api.c.obj)
 .iram1.27      0x0000000040382164       0x22 esp-idf/spi_flash/libspi_flash.a(esp_flash_api.c.obj)
 .iram1.28      0x0000000040382186       0x54 esp-idf/spi_flash/libspi_flash.a(esp_flash_api.c.obj)
 .iram1.32      0x00000000403821da       0xa6 esp-idf/spi_flash/libspi_flash.a(esp_flash_api.c.obj)
 .iram1.30      0x0000000040382280       0x7e esp-idf/spi_flash/libspi_flash.a(esp_flash_api.c.obj)
 .iram1.33      0x00000000403822fe       0x68 esp-idf/spi_flash/libspi_flash.a(esp_flash_api.c.obj)
                0x00000000403822fe                esp_flash_get_size
 .iram1.29      0x0000000040382366      0x19e esp-idf/spi_flash/libspi_flash.a(esp_flash_api.c.obj)
                0x0000000040382366                esp_flash_init
 .iram1.30      0x0000000040382504       0x12 esp-idf/spi_flash/libspi_flash.a(spi_flash_os_func_app.c.obj)
 .iram1.31      0x0000000040382516       0x10 esp-idf/spi_flash/libspi_flash.a(spi_flash_os_func_app.c.obj)
 .iram1.34      0x0000000040382526       0x10 esp-idf/spi_flash/libspi_flash.a(spi_flash_os_func_app.c.obj)
 .iram1.40      0x0000000040382536       0x10 esp-idf/spi_flash/libspi_flash.a(spi_flash_os_func_app.c.obj)
 .iram1.39      0x0000000040382546       0x68 esp-idf/spi_flash/libspi_flash.a(spi_flash_os_func_app.c.obj)
 .iram1.38      0x00000000403825ae       0x16 esp-idf/spi_flash/libspi_flash.a(spi_flash_os_func_app.c.obj)
 .iram1.37      0x00000000403825c4       0x1e esp-idf/spi_flash/libspi_flash.a(spi_flash_os_func_app.c.obj)
 .iram1.35      0x00000000403825e2       0x1c esp-idf/spi_flash/libspi_flash.a(spi_flash_os_func_app.c.obj)
 .iram1.36      0x00000000403825fe       0x7a esp-idf/spi_flash/libspi_flash.a(spi_flash_os_func_app.c.obj)
 .iram1.41      0x0000000040382678       0x2a esp-idf/spi_flash/libspi_flash.a(spi_flash_os_func_app.c.obj)
 .iram1.3       0x00000000403826a2       0x16 esp-idf/spi_flash/libspi_flash.a(spi_flash_os_func_noos.c.obj)
 .iram1.2       0x00000000403826b8       0x24 esp-idf/spi_flash/libspi_flash.a(spi_flash_os_func_noos.c.obj)
 .iram1.1       0x00000000403826dc       0x1c esp-idf/spi_flash/libspi_flash.a(spi_flash_os_func_noos.c.obj)
 .iram1.26      0x00000000403826f8       0x34 esp-idf/esp_system/libesp_system.a(crosscore_int.c.obj)
 .iram1.27      0x000000004038272c       0x60 esp-idf/esp_system/libesp_system.a(crosscore_int.c.obj)
 .iram1.28      0x000000004038278c        0xe esp-idf/esp_system/libesp_system.a(crosscore_int.c.obj)
                0x000000004038278c                esp_crosscore_int_send_yield
 .iram1.24      0x000000004038279a       0x30 esp-idf/esp_system/libesp_system.a(freertos_hooks.c.obj)
                0x000000004038279a                esp_vApplicationTickHook
 .iram1.26      0x00000000403827ca       0x4a esp-idf/esp_system/libesp_system.a(int_wdt.c.obj)
 *libapp_trace.a:app_trace.*(.literal .literal.* .text .text.*)
 *libapp_trace.a:app_trace_util.*(.literal .literal.* .text .text.*)
 *libesp_event.a:default_event_loop.*(.literal.esp_event_isr_post .text.esp_event_isr_post)
 *libesp_event.a:esp_event.*(.literal.esp_event_isr_post_to .text.esp_event_isr_post_to)
 *libesp_hw_support.a:cpu_util.*(.literal .literal.* .text .text.*)
 *libesp_hw_support.a:rtc_clk.*(.literal .literal.* .text .text.*)
 .text.rtc_clk_bbpll_disable
                0x0000000040382814       0x16 esp-idf/esp_hw_support/libesp_hw_support.a(rtc_clk.c.obj)
 .text.rtc_clk_bbpll_enable
                0x000000004038282a        0xe esp-idf/esp_hw_support/libesp_hw_support.a(rtc_clk.c.obj)
 .text.rtc_clk_32k_enable_internal
                0x0000000040382838       0x62 esp-idf/esp_hw_support/libesp_hw_support.a(rtc_clk.c.obj)
                0x0000000040382838                rtc_clk_32k_enable_internal
 .text.rtc_clk_32k_enable
                0x000000004038289a       0x2c esp-idf/esp_hw_support/libesp_hw_support.a(rtc_clk.c.obj)
                0x000000004038289a                rtc_clk_32k_enable
 .text.rtc_clk_32k_enable_external
                0x00000000403828c6       0x12 esp-idf/esp_hw_support/libesp_hw_support.a(rtc_clk.c.obj)
                0x00000000403828c6                rtc_clk_32k_enable_external
 .text.rtc_clk_8m_enable
                0x00000000403828d8       0x74 esp-idf/esp_hw_support/libesp_hw_support.a(rtc_clk.c.obj)
                0x00000000403828d8                rtc_clk_8m_enable
 .text.rtc_clk_slow_freq_set
                0x000000004038294c       0x68 esp-idf/esp_hw_support/libesp_hw_support.a(rtc_clk.c.obj)
                0x000000004038294c                rtc_clk_slow_freq_set
 .text.rtc_clk_slow_freq_get
                0x00000000403829b4        0xa esp-idf/esp_hw_support/libesp_hw_support.a(rtc_clk.c.obj)
                0x00000000403829b4                rtc_clk_slow_freq_get
 .text.rtc_clk_slow_freq_get_hz
                0x00000000403829be       0x32 esp-idf/esp_hw_support/libesp_hw_support.a(rtc_clk.c.obj)
                0x00000000403829be                rtc_clk_slow_freq_get_hz
 .text.rtc_clk_fast_freq_set
                0x00000000403829f0       0x2e esp-idf/esp_hw_support/libesp_hw_support.a(rtc_clk.c.obj)
                0x00000000403829f0                rtc_clk_fast_freq_set
 .text.rtc_clk_bbpll_configure
                0x0000000040382a1e      0x140 esp-idf/esp_hw_support/libesp_hw_support.a(rtc_clk.c.obj)
                0x0000000040382a1e                rtc_clk_bbpll_configure
 .text.rtc_clk_xtal_freq_get
                0x0000000040382b5e       0x66 esp-idf/esp_hw_support/libesp_hw_support.a(rtc_clk.c.obj)
                0x0000000040382b5e                rtc_clk_xtal_freq_get
                0x0000000040382b5e                rtc_get_xtal
 .text.rtc_clk_cpu_freq_mhz_to_config
                0x0000000040382bc4       0x68 esp-idf/esp_hw_support/libesp_hw_support.a(rtc_clk.c.obj)
                0x0000000040382bc4                rtc_clk_cpu_freq_mhz_to_config
 .text.rtc_clk_cpu_freq_get_config
                0x0000000040382c2c       0xde esp-idf/esp_hw_support/libesp_hw_support.a(rtc_clk.c.obj)
                0x0000000040382c2c                rtc_clk_cpu_freq_get_config
 .text.rtc_clk_apb_freq_update
                0x0000000040382d0a       0x16 esp-idf/esp_hw_support/libesp_hw_support.a(rtc_clk.c.obj)
                0x0000000040382d0a                rtc_clk_apb_freq_update
 .text.rtc_clk_cpu_freq_to_pll_mhz
                0x0000000040382d20       0x7e esp-idf/esp_hw_support/libesp_hw_support.a(rtc_clk.c.obj)
 .text.rtc_clk_cpu_freq_to_8m
                0x0000000040382d9e       0x3e esp-idf/esp_hw_support/libesp_hw_support.a(rtc_clk.c.obj)
 .text.rtc_clk_cpu_freq_to_xtal
                0x0000000040382ddc       0x54 esp-idf/esp_hw_support/libesp_hw_support.a(rtc_clk.c.obj)
                0x0000000040382ddc                rtc_clk_cpu_freq_to_xtal
 .text.rtc_clk_cpu_freq_set_config
                0x0000000040382e30       0x6c esp-idf/esp_hw_support/libesp_hw_support.a(rtc_clk.c.obj)
                0x0000000040382e30                rtc_clk_cpu_freq_set_config
 .text.rtc_clk_cpu_freq_set_xtal
                0x0000000040382e9c       0x16 esp-idf/esp_hw_support/libesp_hw_support.a(rtc_clk.c.obj)
                0x0000000040382e9c                rtc_clk_cpu_freq_set_xtal
 .text.rtc_clk_apb_freq_get
                0x0000000040382eb2       0x2c esp-idf/esp_hw_support/libesp_hw_support.a(rtc_clk.c.obj)
                0x0000000040382eb2                rtc_clk_apb_freq_get
 *libesp_hw_support.a:rtc_init.*(.literal.rtc_vddsdio_set_config .text.rtc_vddsdio_set_config)
 *libesp_hw_support.a:rtc_pm.*(.literal .literal.* .text .text.*)
 *libesp_hw_support.a:rtc_sleep.*(.literal .literal.* .text .text.*)
 .text.rtc_sleep_pu
                0x0000000040382ede      0x134 esp-idf/esp_hw_support/libesp_hw_support.a(rtc_sleep.c.obj)
                0x0000000040382ede                rtc_sleep_pu
 *libesp_hw_support.a:rtc_time.*(.literal .literal.* .text .text.*)
 .text.rtc_clk_cal_internal
                0x0000000040383012      0x1b8 esp-idf/esp_hw_support/libesp_hw_support.a(rtc_time.c.obj)
                0x0000000040383012                rtc_clk_cal_internal
 .text.rtc_clk_cal
                0x00000000403831ca       0x64 esp-idf/esp_hw_support/libesp_hw_support.a(rtc_time.c.obj)
                0x00000000403831ca                rtc_clk_cal
 .text.rtc_time_us_to_slowclk
                0x000000004038322e       0x1e esp-idf/esp_hw_support/libesp_hw_support.a(rtc_time.c.obj)
                0x000000004038322e                rtc_time_us_to_slowclk
 .text.rtc_time_get
                0x000000004038324c       0x14 esp-idf/esp_hw_support/libesp_hw_support.a(rtc_time.c.obj)
                0x000000004038324c                rtc_time_get
 *libesp_ringbuf.a:(.literal .literal.* .text .text.*)
 .text.prvCheckItemAvail
                0x0000000040383260       0x36 esp-idf/esp_ringbuf/libesp_ringbuf.a(ringbuf.c.obj)
 .text.prvGetFreeSize
                0x0000000040383296       0x4a esp-idf/esp_ringbuf/libesp_ringbuf.a(ringbuf.c.obj)
 .text.prvReceiveGeneric
                0x00000000403832e0      0x16a esp-idf/esp_ringbuf/libesp_ringbuf.a(ringbuf.c.obj)
 .text.xRingbufferSend
                0x000000004038344a      0x12a esp-idf/esp_ringbuf/libesp_ringbuf.a(ringbuf.c.obj)
                0x000000004038344a                xRingbufferSend
 .text.xRingbufferReceive
                0x0000000040383574       0x58 esp-idf/esp_ringbuf/libesp_ringbuf.a(ringbuf.c.obj)
                0x0000000040383574                xRingbufferReceive
 .text.vRingbufferReturnItem
                0x00000000403835cc       0x80 esp-idf/esp_ringbuf/libesp_ringbuf.a(ringbuf.c.obj)
                0x00000000403835cc                vRingbufferReturnItem
 *libesp_system.a:esp_err.*(.literal .literal.* .text .text.*)
 .text.esp_error_check_failed_print
                0x000000004038364c       0x82 esp-idf/esp_system/libesp_system.a(esp_err.c.obj)
 .text._esp_error_check_failed
                0x00000000403836ce       0x18 esp-idf/esp_system/libesp_system.a(esp_err.c.obj)
                0x00000000403836ce                _esp_error_check_failed
 *libesp_system.a:esp_system.*(.literal.esp_system_abort .text.esp_system_abort)
 .text.esp_system_abort
                0x00000000403836e6        0xc esp-idf/esp_system/libesp_system.a(esp_system.c.obj)
                0x00000000403836e6                esp_system_abort
 *libesp_system.a:ubsan.*(.literal .literal.* .text .text.*)
 .text.__ubsan_include
                0x00000000403836f2        0x2 esp-idf/esp_system/libesp_system.a(ubsan.c.obj)
                0x00000000403836f2                __ubsan_include
 *libfreertos.a:(EXCLUDE_FILE(*libfreertos.a:port_common.* *libfreertos.a:port.*) .literal EXCLUDE_FILE(*libfreertos.a:port_common.* *libfreertos.a:port.*) .literal.* EXCLUDE_FILE(*libfreertos.a:port_common.* *libfreertos.a:port.*) .text EXCLUDE_FILE(*libfreertos.a:port_common.* *libfreertos.a:port.*) .text.*)
 .text          0x00000000403836f4       0x9a esp-idf/freertos/libfreertos.a(portasm.S.obj)
                0x00000000403836f4                rtos_int_enter
                0x0000000040383730                rtos_int_exit
 .text.vPortSetupTimer
                0x000000004038378e       0xe2 esp-idf/freertos/libfreertos.a(port_systick.c.obj)
                0x000000004038378e                vPortSetupTimer
 .text.xPortSysTickHandler
                0x0000000040383870       0x1e esp-idf/freertos/libfreertos.a(port_systick.c.obj)
                0x0000000040383870                xPortSysTickHandler
 .text.prvGetDisinheritPriorityAfterTimeout
                0x000000004038388e       0x10 esp-idf/freertos/libfreertos.a(queue.c.obj)
 .text.prvIsQueueFull
                0x000000004038389e       0x10 esp-idf/freertos/libfreertos.a(queue.c.obj)
 .text.prvIsQueueEmpty
                0x00000000403838ae       0x24 esp-idf/freertos/libfreertos.a(queue.c.obj)
 .text.prvCopyDataToQueue
                0x00000000403838d2       0x96 esp-idf/freertos/libfreertos.a(queue.c.obj)
 .text.prvNotifyQueueSetContainer
                0x0000000040383968       0xcc esp-idf/freertos/libfreertos.a(queue.c.obj)
 .text.prvCopyDataFromQueue
                0x0000000040383a34       0x2e esp-idf/freertos/libfreertos.a(queue.c.obj)
 .text.prvUnlockQueue
                0x0000000040383a62       0x94 esp-idf/freertos/libfreertos.a(queue.c.obj)
 .text.xQueueGenericReset
                0x0000000040383af6       0xa6 esp-idf/freertos/libfreertos.a(queue.c.obj)
                0x0000000040383af6                xQueueGenericReset
 .text.prvInitialiseNewQueue
                0x0000000040383b9c       0x28 esp-idf/freertos/libfreertos.a(queue.c.obj)
 .text.xQueueGenericCreateStatic
                0x0000000040383bc4       0xf0 esp-idf/freertos/libfreertos.a(queue.c.obj)
                0x0000000040383bc4                xQueueGenericCreateStatic
 .text.xQueueGenericCreate
                0x0000000040383cb4       0xca esp-idf/freertos/libfreertos.a(queue.c.obj)
                0x0000000040383cb4                xQueueGenericCreate
 .text.xQueueGetMutexHolder
                0x0000000040383d7e       0x24 esp-idf/freertos/libfreertos.a(queue.c.obj)
                0x0000000040383d7e                xQueueGetMutexHolder
 .text.xQueueGenericSend
                0x0000000040383da2      0x202 esp-idf/freertos/libfreertos.a(queue.c.obj)
                0x0000000040383da2                xQueueGenericSend
 .text.prvInitialiseMutex
                0x0000000040383fa4       0x34 esp-idf/freertos/libfreertos.a(queue.c.obj)
 .text.xQueueCreateMutex
                0x0000000040383fd8       0x20 esp-idf/freertos/libfreertos.a(queue.c.obj)
                0x0000000040383fd8                xQueueCreateMutex
 .text.xQueueCreateMutexStatic
                0x0000000040383ff8       0x24 esp-idf/freertos/libfreertos.a(queue.c.obj)
                0x0000000040383ff8                xQueueCreateMutexStatic
 .text.xQueueGiveMutexRecursive
                0x000000004038401c       0x68 esp-idf/freertos/libfreertos.a(queue.c.obj)
                0x000000004038401c                xQueueGiveMutexRecursive
 .text.xQueueGiveFromISR
                0x0000000040384084      0x110 esp-idf/freertos/libfreertos.a(queue.c.obj)
                0x0000000040384084                xQueueGiveFromISR
 .text.xQueueSemaphoreTake
                0x0000000040384194      0x1da esp-idf/freertos/libfreertos.a(queue.c.obj)
                0x0000000040384194                xQueueSemaphoreTake
 .text.xQueueTakeMutexRecursive
                0x000000004038436e       0x70 esp-idf/freertos/libfreertos.a(queue.c.obj)
                0x000000004038436e                xQueueTakeMutexRecursive
 .text.xQueueReceiveFromISR
                0x00000000403843de       0xec esp-idf/freertos/libfreertos.a(queue.c.obj)
                0x00000000403843de                xQueueReceiveFromISR
 .text.vQueueDelete
                0x00000000403844ca       0x3c esp-idf/freertos/libfreertos.a(queue.c.obj)
                0x00000000403844ca                vQueueDelete
 .text.prvResetNextTaskUnblockTime
                0x0000000040384506       0x30 esp-idf/freertos/libfreertos.a(tasks.c.obj)
 .text.prvDeleteTLS
                0x0000000040384536       0x60 esp-idf/freertos/libfreertos.a(tasks.c.obj)
 .text.prvInitialiseNewTask
                0x0000000040384596       0xf8 esp-idf/freertos/libfreertos.a(tasks.c.obj)
 .text.prvInitialiseTaskLists
                0x000000004038468e       0x8a esp-idf/freertos/libfreertos.a(tasks.c.obj)
 .text.prvAddNewTaskToReadyList
                0x0000000040384718       0xe4 esp-idf/freertos/libfreertos.a(tasks.c.obj)
 .text.prvDeleteTCB
                0x00000000403847fc       0x68 esp-idf/freertos/libfreertos.a(tasks.c.obj)
 .text.prvCheckTasksWaitingTermination
                0x0000000040384864       0xaa esp-idf/freertos/libfreertos.a(tasks.c.obj)
 .text.prvAddCurrentTaskToDelayedList
                0x000000004038490e       0xc2 esp-idf/freertos/libfreertos.a(tasks.c.obj)
 .text.prvIdleTask
                0x00000000403849d0       0x12 esp-idf/freertos/libfreertos.a(tasks.c.obj)
 .text.taskYIELD_OTHER_CORE
                0x00000000403849e2       0x5a esp-idf/freertos/libfreertos.a(tasks.c.obj)
                0x00000000403849e2                taskYIELD_OTHER_CORE
 .text.xTaskCreatePinnedToCore
                0x0000000040384a3c       0x8c esp-idf/freertos/libfreertos.a(tasks.c.obj)
                0x0000000040384a3c                xTaskCreatePinnedToCore
 .text.vTaskDelay
                0x0000000040384ac8       0x54 esp-idf/freertos/libfreertos.a(tasks.c.obj)
                0x0000000040384ac8                vTaskDelay
 .text.vTaskSuspendAll
                0x0000000040384b1c       0x20 esp-idf/freertos/libfreertos.a(tasks.c.obj)
                0x0000000040384b1c                vTaskSuspendAll
 .text.xTaskGetTickCount
                0x0000000040384b3c        0xa esp-idf/freertos/libfreertos.a(tasks.c.obj)
                0x0000000040384b3c                xTaskGetTickCount
 .text.xTaskGetTickCountFromISR
                0x0000000040384b46       0x20 esp-idf/freertos/libfreertos.a(tasks.c.obj)
                0x0000000040384b46                xTaskGetTickCountFromISR
 .text.pcTaskGetName
                0x0000000040384b66       0x3e esp-idf/freertos/libfreertos.a(tasks.c.obj)
                0x0000000040384b66                pcTaskGetName
 .text.xTaskGetIdleTaskHandleForCPU
                0x0000000040384ba4       0x6a esp-idf/freertos/libfreertos.a(tasks.c.obj)
                0x0000000040384ba4                xTaskGetIdleTaskHandleForCPU
 .text.xTaskIncrementTick
                0x0000000040384c0e      0x192 esp-idf/freertos/libfreertos.a(tasks.c.obj)
                0x0000000040384c0e                xTaskIncrementTick
 .text.xTaskResumeAll
                0x0000000040384da0      0x1c4 esp-idf/freertos/libfreertos.a(tasks.c.obj)
                0x0000000040384da0                xTaskResumeAll
 .text.vTaskSwitchContext
                0x0000000040384f64      0x26e esp-idf/freertos/libfreertos.a(tasks.c.obj)
                0x0000000040384f64                vTaskSwitchContext
 .text.vTaskPlaceOnEventList
                0x00000000403851d2       0x5e esp-idf/freertos/libfreertos.a(tasks.c.obj)
                0x00000000403851d2                vTaskPlaceOnEventList
 .text.xTaskRemoveFromEventList
                0x0000000040385230      0x144 esp-idf/freertos/libfreertos.a(tasks.c.obj)
                0x0000000040385230                xTaskRemoveFromEventList
 .text.vTaskInternalSetTimeOutState
                0x0000000040385374       0x16 esp-idf/freertos/libfreertos.a(tasks.c.obj)
                0x0000000040385374                vTaskInternalSetTimeOutState
 .text.xTaskCheckForTimeOut
                0x000000004038538a       0xbe esp-idf/freertos/libfreertos.a(tasks.c.obj)
                0x000000004038538a                xTaskCheckForTimeOut
 .text.vTaskMissedYield
                0x0000000040385448        0xc esp-idf/freertos/libfreertos.a(tasks.c.obj)
                0x0000000040385448                vTaskMissedYield
 .text.xTaskGetAffinity
                0x0000000040385454       0x10 esp-idf/freertos/libfreertos.a(tasks.c.obj)
                0x0000000040385454                xTaskGetAffinity
 .text.xTaskGetCurrentTaskHandle
                0x0000000040385464       0x20 esp-idf/freertos/libfreertos.a(tasks.c.obj)
                0x0000000040385464                xTaskGetCurrentTaskHandle
 .text.__getreent
                0x0000000040385484       0x1e esp-idf/freertos/libfreertos.a(tasks.c.obj)
                0x0000000040385484                __getreent
 .text.xTaskGetCurrentTaskHandleForCPU
                0x00000000403854a2       0x18 esp-idf/freertos/libfreertos.a(tasks.c.obj)
                0x00000000403854a2                xTaskGetCurrentTaskHandleForCPU
 .text.xTaskGetSchedulerState
                0x00000000403854ba       0x20 esp-idf/freertos/libfreertos.a(tasks.c.obj)
                0x00000000403854ba                xTaskGetSchedulerState
 .text.vTaskDelete
                0x00000000403854da       0xce esp-idf/freertos/libfreertos.a(tasks.c.obj)
                0x00000000403854da                vTaskDelete
 .text.xTaskPriorityInherit
                0x00000000403855a8       0xca esp-idf/freertos/libfreertos.a(tasks.c.obj)
                0x00000000403855a8                xTaskPriorityInherit
 .text.xTaskPriorityDisinherit
                0x0000000040385672       0xd8 esp-idf/freertos/libfreertos.a(tasks.c.obj)
                0x0000000040385672                xTaskPriorityDisinherit
 .text.vTaskPriorityDisinheritAfterTimeout
                0x000000004038574a       0xee esp-idf/freertos/libfreertos.a(tasks.c.obj)
                0x000000004038574a                vTaskPriorityDisinheritAfterTimeout
 .text.pvTaskIncrementMutexHeldCount
                0x0000000040385838       0x34 esp-idf/freertos/libfreertos.a(tasks.c.obj)
                0x0000000040385838                pvTaskIncrementMutexHeldCount
 .text.ulTaskNotifyTake
                0x000000004038586c       0x84 esp-idf/freertos/libfreertos.a(tasks.c.obj)
                0x000000004038586c                ulTaskNotifyTake
 .text.vTaskNotifyGiveFromISR
                0x00000000403858f0      0x110 esp-idf/freertos/libfreertos.a(tasks.c.obj)
                0x00000000403858f0                vTaskNotifyGiveFromISR
 .text.xTimerCreateTimerTask
                0x0000000040385a00        0x4 esp-idf/freertos/libfreertos.a(tasks.c.obj)
                0x0000000040385a00                xTimerCreateTimerTask
 .text.vTaskStartScheduler
                0x0000000040385a04       0xb2 esp-idf/freertos/libfreertos.a(tasks.c.obj)
                0x0000000040385a04                vTaskStartScheduler
 .text.vListInitialise
                0x0000000040385ab6       0x14 esp-idf/freertos/libfreertos.a(list.c.obj)
                0x0000000040385ab6                vListInitialise
 .text.vListInitialiseItem
                0x0000000040385aca        0x6 esp-idf/freertos/libfreertos.a(list.c.obj)
                0x0000000040385aca                vListInitialiseItem
 .text.vListInsertEnd
                0x0000000040385ad0       0x16 esp-idf/freertos/libfreertos.a(list.c.obj)
                0x0000000040385ad0                vListInsertEnd
 .text.vListInsert
                0x0000000040385ae6       0x30 esp-idf/freertos/libfreertos.a(list.c.obj)
                0x0000000040385ae6                vListInsert
 .text.uxListRemove
                0x0000000040385b16       0x26 esp-idf/freertos/libfreertos.a(list.c.obj)
                0x0000000040385b16                uxListRemove
 *libfreertos.a:port.*(.text .text.prvTaskExitError .text.pxPortInitialiseStack .text.vApplicationStackOverflowHook .text.vPortCPUAcquireMutex .text.vPortCPUAcquireMutexTimeout .text.vPortCPUInitializeMutex .text.vPortCPUReleaseMutex .text.vPortClearInterruptMask .text.vPortEndScheduler .text.vPortEnterCritical .text.vPortExitCritical .text.vPortSetInterruptMask .text.vPortSetStackWatchpoint .text.vPortYield .text.vPortYieldFromISR .text.vPortYieldOtherCore .text.xPortGetTickRateHz .text.xPortInIsrContext .text.xPortStartScheduler)
 .text.vPortClearInterruptMask
                0x0000000040385b3c       0x10 esp-idf/freertos/libfreertos.a(port.c.obj)
                0x0000000040385b3c                vPortClearInterruptMask
 .text.vPortExitCritical
                0x0000000040385b4c       0x2e esp-idf/freertos/libfreertos.a(port.c.obj)
                0x0000000040385b4c                vPortExitCritical
 .text.vPortSetInterruptMask
                0x0000000040385b7a       0x1a esp-idf/freertos/libfreertos.a(port.c.obj)
                0x0000000040385b7a                vPortSetInterruptMask
 .text.vPortEnterCritical
                0x0000000040385b94       0x2c esp-idf/freertos/libfreertos.a(port.c.obj)
                0x0000000040385b94                vPortEnterCritical
 .text.prvTaskExitError
                0x0000000040385bc0       0x3c esp-idf/freertos/libfreertos.a(port.c.obj)
 .text.pxPortInitialiseStack
                0x0000000040385bfc       0x90 esp-idf/freertos/libfreertos.a(port.c.obj)
                0x0000000040385bfc                pxPortInitialiseStack
 .text.vPortYieldOtherCore
                0x0000000040385c8c        0xe esp-idf/freertos/libfreertos.a(port.c.obj)
                0x0000000040385c8c                vPortYieldOtherCore
 .text.vPortYieldFromISR
                0x0000000040385c9a       0x14 esp-idf/freertos/libfreertos.a(port.c.obj)
                0x0000000040385c9a                vPortYieldFromISR
 .text.vPortYield
                0x0000000040385cae       0x3c esp-idf/freertos/libfreertos.a(port.c.obj)
                0x0000000040385cae                vPortYield
 .text.xPortStartScheduler
                0x0000000040385cea       0x3a esp-idf/freertos/libfreertos.a(port.c.obj)
                0x0000000040385cea                xPortStartScheduler
 .text.xPortInIsrContext
                0x0000000040385d24        0xa esp-idf/freertos/libfreertos.a(port.c.obj)
                0x0000000040385d24                xPortInIsrContext
 .text.vPortCPUInitializeMutex
                0x0000000040385d2e        0x2 esp-idf/freertos/libfreertos.a(port.c.obj)
                0x0000000040385d2e                vPortCPUInitializeMutex
 .text.vPortCPUAcquireMutex
                0x0000000040385d30        0x2 esp-idf/freertos/libfreertos.a(port.c.obj)
                0x0000000040385d30                vPortCPUAcquireMutex
 .text.vPortCPUReleaseMutex
                0x0000000040385d32        0x2 esp-idf/freertos/libfreertos.a(port.c.obj)
                0x0000000040385d32                vPortCPUReleaseMutex
 .text.vApplicationStackOverflowHook
                0x0000000040385d34       0x54 esp-idf/freertos/libfreertos.a(port.c.obj)
                0x0000000040385d34                vApplicationStackOverflowHook
 *libfreertos.a:port_common.*(.text .text.esp_startup_start_app_common)
 .text.esp_startup_start_app_common
                0x0000000040385d88       0x68 esp-idf/freertos/libfreertos.a(port_common.c.obj)
                0x0000000040385d88                esp_startup_start_app_common
 *libgcc.a:_divsf3.*(.literal .literal.* .text .text.*)
 *libgcc.a:lib2funcs.*(.literal .literal.* .text .text.*)
 *libgcov.a:(.literal .literal.* .text .text.*)
 *libhal.a:cpu_hal.*(.literal .literal.* .text .text.*)
 .text.cpu_hal_set_breakpoint
                0x0000000040385df0       0x16 esp-idf/hal/libhal.a(cpu_hal.c.obj)
                0x0000000040385df0                cpu_hal_set_breakpoint
 .text.cpu_hal_set_vecbase
                0x0000000040385e06        0xa esp-idf/hal/libhal.a(cpu_hal.c.obj)
                0x0000000040385e06                cpu_hal_set_vecbase
 *libhal.a:i2c_hal_iram.*(.literal .literal.* .text .text.*)
 *libhal.a:ledc_hal_iram.*(.literal .literal.* .text .text.*)
 *libhal.a:soc_hal.*(.literal .literal.* .text .text.*)
 *libhal.a:spi_flash_encrypt_hal_iram.*(.literal .literal.* .text .text.*)
 .text.spi_flash_encryption_hal_enable
                0x0000000040385e10       0x16 esp-idf/hal/libhal.a(spi_flash_encrypt_hal_iram.c.obj)
                0x0000000040385e10                spi_flash_encryption_hal_enable
 .text.spi_flash_encryption_hal_disable
                0x0000000040385e26        0xc esp-idf/hal/libhal.a(spi_flash_encrypt_hal_iram.c.obj)
                0x0000000040385e26                spi_flash_encryption_hal_disable
 .text.spi_flash_encryption_hal_prepare
                0x0000000040385e32       0x2c esp-idf/hal/libhal.a(spi_flash_encrypt_hal_iram.c.obj)
                0x0000000040385e32                spi_flash_encryption_hal_prepare
 .text.spi_flash_encryption_hal_done
                0x0000000040385e5e       0x22 esp-idf/hal/libhal.a(spi_flash_encrypt_hal_iram.c.obj)
                0x0000000040385e5e                spi_flash_encryption_hal_done
 .text.spi_flash_encryption_hal_destroy
                0x0000000040385e80        0xa esp-idf/hal/libhal.a(spi_flash_encrypt_hal_iram.c.obj)
                0x0000000040385e80                spi_flash_encryption_hal_destroy
 .text.spi_flash_encryption_hal_check
                0x0000000040385e8a        0xa esp-idf/hal/libhal.a(spi_flash_encrypt_hal_iram.c.obj)
                0x0000000040385e8a                spi_flash_encryption_hal_check
 *libhal.a:spi_flash_hal_gpspi.*(.literal .literal.* .text .text.*)
 .text.spi_flash_hal_gpspi_poll_cmd_done
                0x0000000040385e94        0xc esp-idf/hal/libhal.a(spi_flash_hal_gpspi.c.obj)
                0x0000000040385e94                spi_flash_hal_gpspi_poll_cmd_done
 .text.spi_flash_hal_gpspi_device_config
                0x0000000040385ea0       0xd4 esp-idf/hal/libhal.a(spi_flash_hal_gpspi.c.obj)
                0x0000000040385ea0                spi_flash_hal_gpspi_device_config
 .text.spi_flash_hal_gpspi_configure_host_io_mode
                0x0000000040385f74      0x1ba esp-idf/hal/libhal.a(spi_flash_hal_gpspi.c.obj)
                0x0000000040385f74                spi_flash_hal_gpspi_configure_host_io_mode
 .text.spi_flash_hal_gpspi_common_command
                0x000000004038612e      0x20a esp-idf/hal/libhal.a(spi_flash_hal_gpspi.c.obj)
                0x000000004038612e                spi_flash_hal_gpspi_common_command
 .text.spi_flash_hal_gpspi_read
                0x0000000040386338      0x112 esp-idf/hal/libhal.a(spi_flash_hal_gpspi.c.obj)
                0x0000000040386338                spi_flash_hal_gpspi_read
 .text.spi_flash_hal_gpspi_supports_direct_write
                0x000000004038644a        0x4 esp-idf/hal/libhal.a(spi_flash_hal_gpspi.c.obj)
                0x000000004038644a                spi_flash_hal_gpspi_supports_direct_write
 .text.spi_flash_hal_gpspi_supports_direct_read
                0x000000004038644e        0x4 esp-idf/hal/libhal.a(spi_flash_hal_gpspi.c.obj)
                0x000000004038644e                spi_flash_hal_gpspi_supports_direct_read
 .text.spi_flash_hal_gpspi_check_status
                0x0000000040386452        0xe esp-idf/hal/libhal.a(spi_flash_hal_gpspi.c.obj)
                0x0000000040386452                spi_flash_hal_gpspi_check_status
 *libhal.a:spi_flash_hal_iram.*(.literal .literal.* .text .text.*)
 .text.spi_flash_hal_poll_cmd_done
                0x0000000040386460        0x8 esp-idf/hal/libhal.a(spi_flash_hal_iram.c.obj)
                0x0000000040386460                spi_flash_hal_poll_cmd_done
 .text.spi_flash_hal_configure_host_io_mode
                0x0000000040386468      0x1ae esp-idf/hal/libhal.a(spi_flash_hal_iram.c.obj)
                0x0000000040386468                spi_flash_hal_configure_host_io_mode
 .text.spi_flash_hal_common_command
                0x0000000040386616      0x1ac esp-idf/hal/libhal.a(spi_flash_hal_iram.c.obj)
                0x0000000040386616                spi_flash_hal_common_command
 .text.spi_flash_hal_read
                0x00000000403867c2       0xd2 esp-idf/hal/libhal.a(spi_flash_hal_iram.c.obj)
                0x00000000403867c2                spi_flash_hal_read
 .text.spi_flash_hal_erase_chip
                0x0000000040386894       0x24 esp-idf/hal/libhal.a(spi_flash_hal_iram.c.obj)
                0x0000000040386894                spi_flash_hal_erase_chip
 .text.spi_flash_hal_erase_sector
                0x00000000403868b8       0x4c esp-idf/hal/libhal.a(spi_flash_hal_iram.c.obj)
                0x00000000403868b8                spi_flash_hal_erase_sector
 .text.spi_flash_hal_erase_block
                0x0000000040386904       0x4a esp-idf/hal/libhal.a(spi_flash_hal_iram.c.obj)
                0x0000000040386904                spi_flash_hal_erase_block
 .text.spi_flash_hal_program_page
                0x000000004038694e       0xba esp-idf/hal/libhal.a(spi_flash_hal_iram.c.obj)
                0x000000004038694e                spi_flash_hal_program_page
 .text.spi_flash_hal_set_write_protect
                0x0000000040386a08       0x2c esp-idf/hal/libhal.a(spi_flash_hal_iram.c.obj)
                0x0000000040386a08                spi_flash_hal_set_write_protect
 .text.spi_flash_hal_check_status
                0x0000000040386a34       0x18 esp-idf/hal/libhal.a(spi_flash_hal_iram.c.obj)
                0x0000000040386a34                spi_flash_hal_check_status
 .text.spi_flash_hal_setup_read_suspend
                0x0000000040386a4c       0xbc esp-idf/hal/libhal.a(spi_flash_hal_iram.c.obj)
                0x0000000040386a4c                spi_flash_hal_setup_read_suspend
 .text.spi_flash_hal_setup_auto_suspend_mode
                0x0000000040386b08       0x62 esp-idf/hal/libhal.a(spi_flash_hal_iram.c.obj)
                0x0000000040386b08                spi_flash_hal_setup_auto_suspend_mode
 .text.spi_flash_hal_setup_auto_resume_mode
                0x0000000040386b6a       0x3a esp-idf/hal/libhal.a(spi_flash_hal_iram.c.obj)
                0x0000000040386b6a                spi_flash_hal_setup_auto_resume_mode
 .text.spi_flash_hal_disable_auto_suspend_mode
                0x0000000040386ba4       0x64 esp-idf/hal/libhal.a(spi_flash_hal_iram.c.obj)
                0x0000000040386ba4                spi_flash_hal_disable_auto_suspend_mode
 .text.spi_flash_hal_disable_auto_resume_mode
                0x0000000040386c08       0x3c esp-idf/hal/libhal.a(spi_flash_hal_iram.c.obj)
                0x0000000040386c08                spi_flash_hal_disable_auto_resume_mode
 .text.spi_flash_hal_device_config
                0x0000000040386c44       0xa8 esp-idf/hal/libhal.a(spi_flash_hal_iram.c.obj)
                0x0000000040386c44                spi_flash_hal_device_config
 .text.spi_flash_hal_resume
                0x0000000040386cec       0x10 esp-idf/hal/libhal.a(spi_flash_hal_iram.c.obj)
                0x0000000040386cec                spi_flash_hal_resume
 .text.spi_flash_hal_suspend
                0x0000000040386cfc       0x10 esp-idf/hal/libhal.a(spi_flash_hal_iram.c.obj)
                0x0000000040386cfc                spi_flash_hal_suspend
 *libhal.a:spi_hal_iram.*(.literal .literal.* .text .text.*)
 *libhal.a:spi_slave_hal_iram.*(.literal .literal.* .text .text.*)
 *libhal.a:systimer_hal.*(.literal .literal.* .text .text.*)
 .text.periph_ll_get_clk_en_reg
                0x0000000040386d0c       0x32 esp-idf/hal/libhal.a(systimer_hal.c.obj)
 .text.periph_ll_get_rst_en_reg
                0x0000000040386d3e       0x32 esp-idf/hal/libhal.a(systimer_hal.c.obj)
 .text.systimer_hal_init
                0x0000000040386d70       0x48 esp-idf/hal/libhal.a(systimer_hal.c.obj)
                0x0000000040386d70                systimer_hal_init
 .text.systimer_hal_get_counter_value
                0x0000000040386db8       0x52 esp-idf/hal/libhal.a(systimer_hal.c.obj)
                0x0000000040386db8                systimer_hal_get_counter_value
 .text.systimer_hal_set_alarm_target
                0x0000000040386e0a       0x66 esp-idf/hal/libhal.a(systimer_hal.c.obj)
                0x0000000040386e0a                systimer_hal_set_alarm_target
 .text.systimer_hal_set_alarm_period
                0x0000000040386e70       0x76 esp-idf/hal/libhal.a(systimer_hal.c.obj)
                0x0000000040386e70                systimer_hal_set_alarm_period
 .text.systimer_hal_enable_alarm_int
                0x0000000040386ee6       0x10 esp-idf/hal/libhal.a(systimer_hal.c.obj)
                0x0000000040386ee6                systimer_hal_enable_alarm_int
 .text.systimer_hal_counter_value_advance
                0x0000000040386ef6       0x6c esp-idf/hal/libhal.a(systimer_hal.c.obj)
                0x0000000040386ef6                systimer_hal_counter_value_advance
 .text.systimer_hal_enable_counter
                0x0000000040386f62       0x16 esp-idf/hal/libhal.a(systimer_hal.c.obj)
                0x0000000040386f62                systimer_hal_enable_counter
 .text.systimer_hal_select_alarm_mode
                0x0000000040386f78       0x34 esp-idf/hal/libhal.a(systimer_hal.c.obj)
                0x0000000040386f78                systimer_hal_select_alarm_mode
 .text.systimer_hal_connect_alarm_counter
                0x0000000040386fac       0x1c esp-idf/hal/libhal.a(systimer_hal.c.obj)
                0x0000000040386fac                systimer_hal_connect_alarm_counter
 .text.systimer_hal_counter_can_stall_by_cpu
                0x0000000040386fc8       0x3c esp-idf/hal/libhal.a(systimer_hal.c.obj)
                0x0000000040386fc8                systimer_hal_counter_can_stall_by_cpu
 *libhal.a:wdt_hal_iram.*(.literal .literal.* .text .text.*)
 .text.wdt_hal_init
                0x0000000040387004      0x230 esp-idf/hal/libhal.a(wdt_hal_iram.c.obj)
                0x0000000040387004                wdt_hal_init
 .text.wdt_hal_config_stage
                0x0000000040387234      0x11e esp-idf/hal/libhal.a(wdt_hal_iram.c.obj)
                0x0000000040387234                wdt_hal_config_stage
 .text.wdt_hal_write_protect_disable
                0x0000000040387352       0x22 esp-idf/hal/libhal.a(wdt_hal_iram.c.obj)
                0x0000000040387352                wdt_hal_write_protect_disable
 .text.wdt_hal_write_protect_enable
                0x0000000040387374       0x14 esp-idf/hal/libhal.a(wdt_hal_iram.c.obj)
                0x0000000040387374                wdt_hal_write_protect_enable
 .text.wdt_hal_enable
                0x0000000040387388       0x38 esp-idf/hal/libhal.a(wdt_hal_iram.c.obj)
                0x0000000040387388                wdt_hal_enable
 .text.wdt_hal_disable
                0x00000000403873c0       0x2c esp-idf/hal/libhal.a(wdt_hal_iram.c.obj)
                0x00000000403873c0                wdt_hal_disable
 .text.wdt_hal_handle_intr
                0x00000000403873ec       0x32 esp-idf/hal/libhal.a(wdt_hal_iram.c.obj)
                0x00000000403873ec                wdt_hal_handle_intr
 .text.wdt_hal_feed
                0x000000004038741e       0x1e esp-idf/hal/libhal.a(wdt_hal_iram.c.obj)
                0x000000004038741e                wdt_hal_feed
 .text.wdt_hal_set_flashboot_en
                0x000000004038743c       0x3a esp-idf/hal/libhal.a(wdt_hal_iram.c.obj)
                0x000000004038743c                wdt_hal_set_flashboot_en
 .text.wdt_hal_is_enabled
                0x0000000040387476       0x16 esp-idf/hal/libhal.a(wdt_hal_iram.c.obj)
                0x0000000040387476                wdt_hal_is_enabled
 *libheap.a:heap_tlsf.*(.literal .literal.* .text .text.*)
 .text.control_construct
                0x000000004038748c       0x3e esp-idf/heap/libheap.a(heap_tlsf.c.obj)
 .text.default_walker
                0x00000000403874ca       0x2a esp-idf/heap/libheap.a(heap_tlsf.c.obj)
 .text.tlsf_walk_pool
                0x00000000403874f4       0x52 esp-idf/heap/libheap.a(heap_tlsf.c.obj)
                0x00000000403874f4                tlsf_walk_pool
 .text.tlsf_block_size
                0x0000000040387546        0xe esp-idf/heap/libheap.a(heap_tlsf.c.obj)
                0x0000000040387546                tlsf_block_size
 .text.tlsf_size
                0x0000000040387554        0x6 esp-idf/heap/libheap.a(heap_tlsf.c.obj)
                0x0000000040387554                tlsf_size
 .text.tlsf_block_size_min
                0x000000004038755a        0x4 esp-idf/heap/libheap.a(heap_tlsf.c.obj)
                0x000000004038755a                tlsf_block_size_min
 .text.tlsf_pool_overhead
                0x000000004038755e        0x4 esp-idf/heap/libheap.a(heap_tlsf.c.obj)
                0x000000004038755e                tlsf_pool_overhead
 .text.tlsf_add_pool
                0x0000000040387562      0x16e esp-idf/heap/libheap.a(heap_tlsf.c.obj)
                0x0000000040387562                tlsf_add_pool
 .text.tlsf_create
                0x00000000403876d0       0x2e esp-idf/heap/libheap.a(heap_tlsf.c.obj)
                0x00000000403876d0                tlsf_create
 .text.tlsf_get_pool
                0x00000000403876fe       0x16 esp-idf/heap/libheap.a(heap_tlsf.c.obj)
                0x00000000403876fe                tlsf_get_pool
 .text.tlsf_create_with_pool
                0x0000000040387714       0x34 esp-idf/heap/libheap.a(heap_tlsf.c.obj)
                0x0000000040387714                tlsf_create_with_pool
 .text.tlsf_malloc
                0x0000000040387748      0x3d0 esp-idf/heap/libheap.a(heap_tlsf.c.obj)
                0x0000000040387748                tlsf_malloc
 .text.tlsf_free
                0x0000000040387b18      0x3f2 esp-idf/heap/libheap.a(heap_tlsf.c.obj)
                0x0000000040387b18                tlsf_free
 .text.tlsf_realloc
                0x0000000040387f0a      0x546 esp-idf/heap/libheap.a(heap_tlsf.c.obj)
                0x0000000040387f0a                tlsf_realloc
 *libheap.a:multi_heap.*(.literal .literal.* .text .text.*)
 .text.multi_heap_get_info_tlsf
                0x0000000040388450       0x20 esp-idf/heap/libheap.a(multi_heap.c.obj)
 .text.assert_valid_block
                0x0000000040388470       0x4a esp-idf/heap/libheap.a(multi_heap.c.obj)
 .text.multi_heap_get_allocated_size_impl
                0x00000000403884ba       0x10 esp-idf/heap/libheap.a(multi_heap.c.obj)
                0x00000000403884ba                multi_heap_get_allocated_size
                0x00000000403884ba                multi_heap_get_allocated_size_impl
 .text.multi_heap_register_impl
                0x00000000403884ca       0x70 esp-idf/heap/libheap.a(multi_heap.c.obj)
                0x00000000403884ca                multi_heap_register
                0x00000000403884ca                multi_heap_register_impl
 .text.multi_heap_set_lock
                0x000000004038853a        0x4 esp-idf/heap/libheap.a(multi_heap.c.obj)
                0x000000004038853a                multi_heap_set_lock
 .text.multi_heap_malloc_impl
                0x000000004038853e       0x54 esp-idf/heap/libheap.a(multi_heap.c.obj)
                0x000000004038853e                multi_heap_malloc_impl
                0x000000004038853e                multi_heap_malloc
 .text.multi_heap_free_impl
                0x0000000040388592       0x44 esp-idf/heap/libheap.a(multi_heap.c.obj)
                0x0000000040388592                multi_heap_free
                0x0000000040388592                multi_heap_free_impl
                0x0000000040388592                multi_heap_aligned_free
 .text.multi_heap_realloc_impl
                0x00000000403885d6       0x94 esp-idf/heap/libheap.a(multi_heap.c.obj)
                0x00000000403885d6                multi_heap_realloc_impl
                0x00000000403885d6                multi_heap_realloc
 .text.multi_heap_minimum_free_size_impl
                0x000000004038866a        0xa esp-idf/heap/libheap.a(multi_heap.c.obj)
                0x000000004038866a                multi_heap_minimum_free_size
                0x000000004038866a                multi_heap_minimum_free_size_impl
 .text.multi_heap_get_info_impl
                0x0000000040388674       0x82 esp-idf/heap/libheap.a(multi_heap.c.obj)
                0x0000000040388674                multi_heap_get_info_impl
                0x0000000040388674                multi_heap_get_info
 *liblog.a:log.*(.literal.esp_log_write .text.esp_log_write)
 .text.esp_log_write
                0x00000000403886f6       0x20 esp-idf/log/liblog.a(log.c.obj)
                0x00000000403886f6                esp_log_write
 *liblog.a:log_freertos.*(.literal.esp_log_early_timestamp .text.esp_log_early_timestamp)
 .text.esp_log_early_timestamp
                0x0000000040388716       0x26 esp-idf/log/liblog.a(log_freertos.c.obj)
                0x0000000040388716                esp_log_early_timestamp
 *liblog.a:log_freertos.*(.literal.esp_log_impl_lock .text.esp_log_impl_lock)
 *liblog.a:log_freertos.*(.literal.esp_log_impl_lock_timeout .text.esp_log_impl_lock_timeout)
 .text.esp_log_impl_lock_timeout
                0x000000004038873c       0x46 esp-idf/log/liblog.a(log_freertos.c.obj)
                0x000000004038873c                esp_log_impl_lock_timeout
 *liblog.a:log_freertos.*(.literal.esp_log_impl_unlock .text.esp_log_impl_unlock)
 .text.esp_log_impl_unlock
                0x0000000040388782       0x26 esp-idf/log/liblog.a(log_freertos.c.obj)
                0x0000000040388782                esp_log_impl_unlock
 *liblog.a:log_freertos.*(.literal.esp_log_timestamp .text.esp_log_timestamp)
 .text.esp_log_timestamp
                0x00000000403887a8       0x56 esp-idf/log/liblog.a(log_freertos.c.obj)
                0x00000000403887a8                esp_log_timestamp
 *libnet80211.a:(.wifi0iram .wifi0iram.*)
 *libnet80211.a:(.wifirxiram .wifirxiram.*)
 *libnet80211.a:(.wifislprxiram .wifislprxiram.*)
 *libnewlib.a:abort.*(.literal .literal.* .text .text.*)
 .text.abort    0x00000000403887fe       0x80 esp-idf/newlib/libnewlib.a(abort.c.obj)
                0x00000000403887fe                abort
 *libnewlib.a:heap.*(.literal .literal.* .text .text.*)
 .text.malloc   0x000000004038887e        0xe esp-idf/newlib/libnewlib.a(heap.c.obj)
                0x000000004038887e                pvalloc
                0x000000004038887e                valloc
                0x000000004038887e                malloc
 .text.realloc  0x000000004038888c        0xe esp-idf/newlib/libnewlib.a(heap.c.obj)
                0x000000004038888c                realloc
 .text.free     0x000000004038889a        0xe esp-idf/newlib/libnewlib.a(heap.c.obj)
                0x000000004038889a                free
                0x000000004038889a                cfree
 .text._malloc_r
                0x00000000403888a8       0x10 esp-idf/newlib/libnewlib.a(heap.c.obj)
                0x00000000403888a8                _malloc_r
 .text._free_r  0x00000000403888b8       0x10 esp-idf/newlib/libnewlib.a(heap.c.obj)
                0x00000000403888b8                _free_r
 .text._realloc_r
                0x00000000403888c8       0x12 esp-idf/newlib/libnewlib.a(heap.c.obj)
                0x00000000403888c8                _realloc_r
 .text._calloc_r
                0x00000000403888da       0x3e esp-idf/newlib/libnewlib.a(heap.c.obj)
                0x00000000403888da                _calloc_r
 .text.calloc   0x0000000040388918       0x22 esp-idf/newlib/libnewlib.a(heap.c.obj)
                0x0000000040388918                calloc
 .text.newlib_include_heap_impl
                0x000000004038893a        0x2 esp-idf/newlib/libnewlib.a(heap.c.obj)
                0x000000004038893a                newlib_include_heap_impl
 *libnewlib.a:stdatomic.*(.literal .literal.* .text .text.*)
 *libpp.a:(.wifi0iram .wifi0iram.*)
 *libpp.a:(.wifiorslpiram .wifiorslpiram.*)
 *libpp.a:(.wifirxiram .wifirxiram.*)
 *libpp.a:(.wifislprxiram .wifislprxiram.*)
 *libriscv.a:interrupt.*(.literal .literal.* .text .text.*)
 .text.intr_handler_set
                0x000000004038893c       0x42 esp-idf/riscv/libriscv.a(interrupt.c.obj)
                0x000000004038893c                intr_handler_set
 .text.intr_handler_get
                0x000000004038897e       0x10 esp-idf/riscv/libriscv.a(interrupt.c.obj)
                0x000000004038897e                intr_handler_get
 .text._global_interrupt_handler
                0x000000004038898e       0x24 esp-idf/riscv/libriscv.a(interrupt.c.obj)
                0x000000004038898e                _global_interrupt_handler
 .text.riscv_global_interrupts_enable
                0x00000000403889b2        0x6 esp-idf/riscv/libriscv.a(interrupt.c.obj)
                0x00000000403889b2                riscv_global_interrupts_enable
 .text.riscv_global_interrupts_disable
                0x00000000403889b8        0x6 esp-idf/riscv/libriscv.a(interrupt.c.obj)
                0x00000000403889b8                riscv_global_interrupts_disable
 *libriscv.a:vectors.*(.literal .literal.* .text .text.*)
 *librtc.a:(.literal .literal.* .text .text.*)
 *libsoc.a:lldesc.*(.literal .literal.* .text .text.*)
 *libspi_flash.a:memspi_host_driver.*(.literal .literal.* .text .text.*)
 .text.memspi_host_read_status_hs
                0x00000000403889be       0x3c esp-idf/spi_flash/libspi_flash.a(memspi_host_driver.c.obj)
                0x00000000403889be                memspi_host_read_status_hs
 .text.memspi_host_erase_chip
                0x00000000403889fa       0x26 esp-idf/spi_flash/libspi_flash.a(memspi_host_driver.c.obj)
                0x00000000403889fa                memspi_host_erase_chip
 .text.memspi_host_set_write_protect
                0x0000000040388a20       0x2c esp-idf/spi_flash/libspi_flash.a(memspi_host_driver.c.obj)
                0x0000000040388a20                memspi_host_set_write_protect
 .text.memspi_host_write_data_slicer
                0x0000000040388a4c       0x22 esp-idf/spi_flash/libspi_flash.a(memspi_host_driver.c.obj)
                0x0000000040388a4c                memspi_host_write_data_slicer
 .text.memspi_host_read_data_slicer
                0x0000000040388a6e       0x12 esp-idf/spi_flash/libspi_flash.a(memspi_host_driver.c.obj)
                0x0000000040388a6e                memspi_host_read_data_slicer
 .text.memspi_host_read_id_hs
                0x0000000040388a80       0x84 esp-idf/spi_flash/libspi_flash.a(memspi_host_driver.c.obj)
                0x0000000040388a80                memspi_host_read_id_hs
 .text.memspi_host_flush_cache
                0x0000000040388b04       0x26 esp-idf/spi_flash/libspi_flash.a(memspi_host_driver.c.obj)
                0x0000000040388b04                memspi_host_flush_cache
 .text.memspi_host_erase_sector
                0x0000000040388b2a       0x4c esp-idf/spi_flash/libspi_flash.a(memspi_host_driver.c.obj)
                0x0000000040388b2a                memspi_host_erase_sector
 .text.memspi_host_erase_block
                0x0000000040388b76       0x4c esp-idf/spi_flash/libspi_flash.a(memspi_host_driver.c.obj)
                0x0000000040388b76                memspi_host_erase_block
 .text.memspi_host_program_page
                0x0000000040388bc2       0x54 esp-idf/spi_flash/libspi_flash.a(memspi_host_driver.c.obj)
                0x0000000040388bc2                memspi_host_program_page
 .text.memspi_host_init_pointers
                0x0000000040388c16       0x24 esp-idf/spi_flash/libspi_flash.a(memspi_host_driver.c.obj)
                0x0000000040388c16                memspi_host_init_pointers
 *libspi_flash.a:spi_flash_chip_boya.*(.literal .literal.* .text .text.*)
 .text.spi_flash_chip_boya_probe
                0x0000000040388c3a       0x2a esp-idf/spi_flash/libspi_flash.a(spi_flash_chip_boya.c.obj)
                0x0000000040388c3a                spi_flash_chip_boya_probe
 .text.spi_flash_chip_boya_get_caps
                0x0000000040388c64        0x4 esp-idf/spi_flash/libspi_flash.a(spi_flash_chip_boya.c.obj)
                0x0000000040388c64                spi_flash_chip_boya_get_caps
 *libspi_flash.a:spi_flash_chip_gd.*(.literal .literal.* .text .text.*)
 .text.spi_flash_chip_gd_get_caps
                0x0000000040388c68       0x16 esp-idf/spi_flash/libspi_flash.a(spi_flash_chip_gd.c.obj)
                0x0000000040388c68                spi_flash_chip_gd_get_caps
 .text.spi_flash_chip_gd_probe
                0x0000000040388c7e       0x34 esp-idf/spi_flash/libspi_flash.a(spi_flash_chip_gd.c.obj)
                0x0000000040388c7e                spi_flash_chip_gd_probe
 .text.spi_flash_chip_gd_set_io_mode
                0x0000000040388cb2       0x54 esp-idf/spi_flash/libspi_flash.a(spi_flash_chip_gd.c.obj)
                0x0000000040388cb2                spi_flash_chip_gd_set_io_mode
 .text.spi_flash_chip_gd_get_io_mode
                0x0000000040388d06       0x20 esp-idf/spi_flash/libspi_flash.a(spi_flash_chip_gd.c.obj)
                0x0000000040388d06                spi_flash_chip_gd_get_io_mode
 *libspi_flash.a:spi_flash_chip_generic.*(.literal .literal.* .text .text.*)
 .text.spi_flash_chip_generic_probe
                0x0000000040388d26        0x4 esp-idf/spi_flash/libspi_flash.a(spi_flash_chip_generic.c.obj)
                0x0000000040388d26                spi_flash_chip_generic_probe
 .text.spi_flash_chip_generic_reset
                0x0000000040388d2a       0x5c esp-idf/spi_flash/libspi_flash.a(spi_flash_chip_generic.c.obj)
                0x0000000040388d2a                spi_flash_chip_generic_reset
 .text.spi_flash_chip_generic_detect_size
                0x0000000040388d86       0x2e esp-idf/spi_flash/libspi_flash.a(spi_flash_chip_generic.c.obj)
                0x0000000040388d86                spi_flash_chip_generic_detect_size
 .text.spi_flash_chip_generic_erase_chip
                0x0000000040388db4       0x60 esp-idf/spi_flash/libspi_flash.a(spi_flash_chip_generic.c.obj)
                0x0000000040388db4                spi_flash_chip_generic_erase_chip
 .text.spi_flash_chip_generic_erase_sector
                0x0000000040388e14       0x68 esp-idf/spi_flash/libspi_flash.a(spi_flash_chip_generic.c.obj)
                0x0000000040388e14                spi_flash_chip_generic_erase_sector
 .text.spi_flash_chip_generic_erase_block
                0x0000000040388e7c       0x68 esp-idf/spi_flash/libspi_flash.a(spi_flash_chip_generic.c.obj)
                0x0000000040388e7c                spi_flash_chip_generic_erase_block
 .text.spi_flash_chip_generic_page_program
                0x0000000040388ee4       0x6c esp-idf/spi_flash/libspi_flash.a(spi_flash_chip_generic.c.obj)
                0x0000000040388ee4                spi_flash_chip_generic_page_program
 .text.spi_flash_chip_generic_write_encrypted
                0x0000000040388f50       0xea esp-idf/spi_flash/libspi_flash.a(spi_flash_chip_generic.c.obj)
                0x0000000040388f50                spi_flash_chip_generic_write_encrypted
 .text.spi_flash_chip_generic_set_write_protect
                0x000000004038903a       0x4e esp-idf/spi_flash/libspi_flash.a(spi_flash_chip_generic.c.obj)
                0x000000004038903a                spi_flash_chip_generic_set_write_protect
 .text.spi_flash_chip_generic_read_reg
                0x0000000040389088       0x14 esp-idf/spi_flash/libspi_flash.a(spi_flash_chip_generic.c.obj)
                0x0000000040389088                spi_flash_chip_generic_read_reg
 .text.spi_flash_chip_generic_wait_idle
                0x000000004038909c       0xb0 esp-idf/spi_flash/libspi_flash.a(spi_flash_chip_generic.c.obj)
                0x000000004038909c                spi_flash_chip_generic_wait_idle
 .text.spi_flash_chip_generic_get_caps
                0x000000004038914c       0x18 esp-idf/spi_flash/libspi_flash.a(spi_flash_chip_generic.c.obj)
                0x000000004038914c                spi_flash_chip_generic_get_caps
 .text.spi_flash_common_read_qe_sr
                0x0000000040389164       0x38 esp-idf/spi_flash/libspi_flash.a(spi_flash_chip_generic.c.obj)
 .text.spi_flash_common_write_qe_sr
                0x000000004038919c       0x2e esp-idf/spi_flash/libspi_flash.a(spi_flash_chip_generic.c.obj)
 .text.spi_flash_common_read_status_16b_rdsr_rdsr2
                0x00000000403891ca       0x46 esp-idf/spi_flash/libspi_flash.a(spi_flash_chip_generic.c.obj)
                0x00000000403891ca                spi_flash_common_read_status_16b_rdsr_rdsr2
 .text.spi_flash_common_write_status_16b_wrsr
                0x0000000040389210       0x14 esp-idf/spi_flash/libspi_flash.a(spi_flash_chip_generic.c.obj)
                0x0000000040389210                spi_flash_common_write_status_16b_wrsr
 .text.spi_flash_chip_generic_write
                0x0000000040389224       0xb8 esp-idf/spi_flash/libspi_flash.a(spi_flash_chip_generic.c.obj)
                0x0000000040389224                spi_flash_chip_generic_write
 .text.spi_flash_chip_generic_get_write_protect
                0x00000000403892dc       0x4e esp-idf/spi_flash/libspi_flash.a(spi_flash_chip_generic.c.obj)
                0x00000000403892dc                spi_flash_chip_generic_get_write_protect
 .text.spi_flash_chip_generic_yield
                0x000000004038932a       0x46 esp-idf/spi_flash/libspi_flash.a(spi_flash_chip_generic.c.obj)
                0x000000004038932a                spi_flash_chip_generic_yield
 .text.spi_flash_chip_generic_suspend_cmd_conf
                0x0000000040389370       0x6e esp-idf/spi_flash/libspi_flash.a(spi_flash_chip_generic.c.obj)
                0x0000000040389370                spi_flash_chip_generic_suspend_cmd_conf
 .text.spi_flash_chip_generic_read_unique_id
                0x00000000403893de       0xac esp-idf/spi_flash/libspi_flash.a(spi_flash_chip_generic.c.obj)
                0x00000000403893de                spi_flash_chip_generic_read_unique_id
 .text.spi_flash_chip_generic_config_host_io_mode
                0x000000004038948a       0xee esp-idf/spi_flash/libspi_flash.a(spi_flash_chip_generic.c.obj)
                0x000000004038948a                spi_flash_chip_generic_config_host_io_mode
 .text.spi_flash_chip_generic_read
                0x0000000040389578       0xde esp-idf/spi_flash/libspi_flash.a(spi_flash_chip_generic.c.obj)
                0x0000000040389578                spi_flash_chip_generic_read
 .text.spi_flash_common_read_status_8b_rdsr2
                0x0000000040389656       0x16 esp-idf/spi_flash/libspi_flash.a(spi_flash_chip_generic.c.obj)
                0x0000000040389656                spi_flash_common_read_status_8b_rdsr2
 .text.spi_flash_chip_generic_get_io_mode
                0x000000004038966c       0x20 esp-idf/spi_flash/libspi_flash.a(spi_flash_chip_generic.c.obj)
                0x000000004038966c                spi_flash_chip_generic_get_io_mode
 .text.spi_flash_common_read_status_8b_rdsr
                0x000000004038968c       0x14 esp-idf/spi_flash/libspi_flash.a(spi_flash_chip_generic.c.obj)
                0x000000004038968c                spi_flash_common_read_status_8b_rdsr
 .text.spi_flash_common_write_status_8b_wrsr
                0x00000000403896a0       0x14 esp-idf/spi_flash/libspi_flash.a(spi_flash_chip_generic.c.obj)
                0x00000000403896a0                spi_flash_common_write_status_8b_wrsr
 .text.spi_flash_common_write_status_8b_wrsr2
                0x00000000403896b4       0x16 esp-idf/spi_flash/libspi_flash.a(spi_flash_chip_generic.c.obj)
                0x00000000403896b4                spi_flash_common_write_status_8b_wrsr2
 .text.spi_flash_common_set_io_mode
                0x00000000403896ca       0xb6 esp-idf/spi_flash/libspi_flash.a(spi_flash_chip_generic.c.obj)
                0x00000000403896ca                spi_flash_common_set_io_mode
 .text.spi_flash_chip_generic_set_io_mode
                0x0000000040389780       0x22 esp-idf/spi_flash/libspi_flash.a(spi_flash_chip_generic.c.obj)
                0x0000000040389780                spi_flash_chip_generic_set_io_mode
 *libspi_flash.a:spi_flash_chip_issi.*(.literal .literal.* .text .text.*)
 .text.spi_flash_chip_issi_probe
                0x00000000403897a2       0x2a esp-idf/spi_flash/libspi_flash.a(spi_flash_chip_issi.c.obj)
                0x00000000403897a2                spi_flash_chip_issi_probe
 .text.spi_flash_chip_issi_get_caps
                0x00000000403897cc        0x4 esp-idf/spi_flash/libspi_flash.a(spi_flash_chip_issi.c.obj)
                0x00000000403897cc                spi_flash_chip_issi_get_caps
 .text.spi_flash_chip_issi_set_io_mode
                0x00000000403897d0       0x22 esp-idf/spi_flash/libspi_flash.a(spi_flash_chip_issi.c.obj)
                0x00000000403897d0                spi_flash_chip_issi_set_io_mode
 .text.spi_flash_chip_issi_get_io_mode
                0x00000000403897f2       0x20 esp-idf/spi_flash/libspi_flash.a(spi_flash_chip_issi.c.obj)
                0x00000000403897f2                spi_flash_chip_issi_get_io_mode
 *libspi_flash.a:spi_flash_chip_mxic.*(.literal .literal.* .text .text.*)
 .text.spi_flash_chip_mxic_probe
                0x0000000040389812       0x14 esp-idf/spi_flash/libspi_flash.a(spi_flash_chip_mxic.c.obj)
                0x0000000040389812                spi_flash_chip_mxic_probe
 .text.spi_flash_chip_mxic_get_caps
                0x0000000040389826        0x4 esp-idf/spi_flash/libspi_flash.a(spi_flash_chip_mxic.c.obj)
                0x0000000040389826                spi_flash_chip_mxic_get_caps
 .text.spi_flash_chip_mxic_read_unique_id
                0x000000004038982a       0x34 esp-idf/spi_flash/libspi_flash.a(spi_flash_chip_mxic.c.obj)
                0x000000004038982a                spi_flash_chip_mxic_read_unique_id
 *libspi_flash.a:spi_flash_chip_winbond.*(.literal .literal.* .text .text.*)
 .text.spi_flash_chip_winbond_probe
                0x000000004038985e       0x14 esp-idf/spi_flash/libspi_flash.a(spi_flash_chip_winbond.c.obj)
                0x000000004038985e                spi_flash_chip_winbond_probe
 .text.spi_flash_chip_winbond_get_caps
                0x0000000040389872       0x16 esp-idf/spi_flash/libspi_flash.a(spi_flash_chip_winbond.c.obj)
                0x0000000040389872                spi_flash_chip_winbond_get_caps
 .text.spi_flash_command_winbond_program_4B
                0x0000000040389888       0x4a esp-idf/spi_flash/libspi_flash.a(spi_flash_chip_winbond.c.obj)
 .text.spi_flash_chip_winbond_page_program
                0x00000000403898d2       0x4a esp-idf/spi_flash/libspi_flash.a(spi_flash_chip_winbond.c.obj)
                0x00000000403898d2                spi_flash_chip_winbond_page_program
 .text.spi_flash_command_winbond_erase_sector_4B
                0x000000004038991c       0x4a esp-idf/spi_flash/libspi_flash.a(spi_flash_chip_winbond.c.obj)
 .text.spi_flash_chip_winbond_erase_sector
                0x0000000040389966       0x58 esp-idf/spi_flash/libspi_flash.a(spi_flash_chip_winbond.c.obj)
                0x0000000040389966                spi_flash_chip_winbond_erase_sector
 .text.spi_flash_command_erase_block_4B
                0x00000000403899be       0x4a esp-idf/spi_flash/libspi_flash.a(spi_flash_chip_winbond.c.obj)
 .text.spi_flash_chip_winbond_erase_block
                0x0000000040389a08       0x58 esp-idf/spi_flash/libspi_flash.a(spi_flash_chip_winbond.c.obj)
                0x0000000040389a08                spi_flash_chip_winbond_erase_block
 .text.spi_flash_chip_winbond_read
                0x0000000040389a60       0xea esp-idf/spi_flash/libspi_flash.a(spi_flash_chip_winbond.c.obj)
                0x0000000040389a60                spi_flash_chip_winbond_read
 *libspi_flash.a:spi_flash_rom_patch.*(.literal .literal.* .text .text.*)

.dram0.dummy    0x000000003fc80000     0x9c00
                0x000000003fc89c00                . = ((ORIGIN (dram0_0_seg) + _iram_end) - _iram_start)
 *fill*         0x000000003fc80000     0x9c00

.dram0.data     0x000000003fc89c00     0x13b8
                0x000000003fc89c00                _data_start = ABSOLUTE (.)
 *(.gnu.linkonce.d.*)
 *(.data1)
                0x000000003fc8a400                __global_pointer$ = (. + 0x800)
 *(.sdata)
 .sdata         0x000000003fc89c00        0x4 /home/xy/.espressif/tools/riscv32-esp-elf/esp-2021r1-8.4.0/riscv32-esp-elf/bin/../lib/gcc/riscv32-esp-elf/8.4.0/../../../../riscv32-esp-elf/lib/rv32im/ilp32\libc.a(lib_a-locale.o)
                0x000000003fc89c00                __global_locale_ptr
 *(.sdata.*)
 .sdata.first_call.3866
                0x000000003fc89c04        0x1 esp-idf/app_update/libapp_update.a(esp_app_desc.c.obj)
 *fill*         0x000000003fc89c05        0x3
 .sdata.rtc_wdt_ctx
                0x000000003fc89c08        0x8 esp-idf/esp_system/libesp_system.a(panic.c.obj)
 .sdata.s_panic_uart
                0x000000003fc89c10        0x4 esp-idf/esp_system/libesp_system.a(panic.c.obj)
 .sdata.wdt0_context
                0x000000003fc89c14        0x8 esp-idf/esp_system/libesp_system.a(panic_handler.c.obj)
 .sdata.esp_log_default_level
                0x000000003fc89c1c        0x4 esp-idf/log/liblog.a(log.c.obj)
                0x000000003fc89c1c                esp_log_default_level
 .sdata.s_log_print_func
                0x000000003fc89c20        0x4 esp-idf/log/liblog.a(log.c.obj)
 .sdata.malloc_alwaysinternal_limit
                0x000000003fc89c24        0x4 esp-idf/heap/libheap.a(heap_caps.c.obj)
 .sdata.xIsrStackTop
                0x000000003fc89c28        0x4 esp-idf/freertos/libfreertos.a(port.c.obj)
                0x000000003fc89c28                xIsrStackTop
 .sdata.xTaskQueueMutex
                0x000000003fc89c2c        0x8 esp-idf/freertos/libfreertos.a(tasks.c.obj)
 .sdata.ESP_EFUSE_BLOCK2_VERSION
                0x000000003fc89c34        0x8 esp-idf/efuse/libefuse.a(esp_efuse_table.c.obj)
                0x000000003fc89c34                ESP_EFUSE_BLOCK2_VERSION
 .sdata.ESP_EFUSE_DIG_DBIAS_HVT
                0x000000003fc89c3c        0x8 esp-idf/efuse/libefuse.a(esp_efuse_table.c.obj)
                0x000000003fc89c3c                ESP_EFUSE_DIG_DBIAS_HVT
 .sdata.ESP_EFUSE_K_DIG_LDO
                0x000000003fc89c44        0x8 esp-idf/efuse/libefuse.a(esp_efuse_table.c.obj)
                0x000000003fc89c44                ESP_EFUSE_K_DIG_LDO
 .sdata.ESP_EFUSE_K_RTC_LDO
                0x000000003fc89c4c        0x8 esp-idf/efuse/libefuse.a(esp_efuse_table.c.obj)
                0x000000003fc89c4c                ESP_EFUSE_K_RTC_LDO
 .sdata.ESP_EFUSE_OCODE
                0x000000003fc89c54        0x8 esp-idf/efuse/libefuse.a(esp_efuse_table.c.obj)
                0x000000003fc89c54                ESP_EFUSE_OCODE
 .sdata.ESP_EFUSE_V_DIG_DBIAS20
                0x000000003fc89c5c        0x8 esp-idf/efuse/libefuse.a(esp_efuse_table.c.obj)
                0x000000003fc89c5c                ESP_EFUSE_V_DIG_DBIAS20
 .sdata.ESP_EFUSE_V_RTC_DBIAS20
                0x000000003fc89c64        0x8 esp-idf/efuse/libefuse.a(esp_efuse_table.c.obj)
                0x000000003fc89c64                ESP_EFUSE_V_RTC_DBIAS20
 .sdata.ESP_EFUSE_WAFER_VERSION
                0x000000003fc89c6c        0x8 esp-idf/efuse/libefuse.a(esp_efuse_table.c.obj)
                0x000000003fc89c6c                ESP_EFUSE_WAFER_VERSION
 .sdata.uart_selectlock
                0x000000003fc89c74        0x8 esp-idf/driver/libdriver.a(uart.c.obj)
 .sdata.esp_flash_registered_chips
                0x000000003fc89c7c        0x4 esp-idf/spi_flash/libspi_flash.a(spi_flash_chip_drivers.c.obj)
                0x000000003fc89c7c                esp_flash_registered_chips
 *(.gnu.linkonce.s.*)
 *(.sdata2)
 *(.sdata2.*)
 .sdata2.g_startup_fn
                0x000000003fc89c80        0x4 esp-idf/esp_system/libesp_system.a(startup.c.obj)
                0x000000003fc89c80                g_startup_fn
 .sdata2.s_ctx  0x000000003fc89c84        0x8 esp-idf/vfs/libvfs.a(vfs_uart.c.obj)
 .sdata2.soc_memory_region_count
                0x000000003fc89c8c        0x4 esp-idf/heap/libheap.a(memory_layout.c.obj)
                0x000000003fc89c8c                soc_memory_region_count
 .sdata2.BLOCK2_VERSION
                0x000000003fc89c90        0x4 esp-idf/efuse/libefuse.a(esp_efuse_table.c.obj)
 .sdata2.DIG_DBIAS_HVT
                0x000000003fc89c94        0x4 esp-idf/efuse/libefuse.a(esp_efuse_table.c.obj)
 .sdata2.K_DIG_LDO
                0x000000003fc89c98        0x4 esp-idf/efuse/libefuse.a(esp_efuse_table.c.obj)
 .sdata2.K_RTC_LDO
                0x000000003fc89c9c        0x4 esp-idf/efuse/libefuse.a(esp_efuse_table.c.obj)
 .sdata2.OCODE  0x000000003fc89ca0        0x4 esp-idf/efuse/libefuse.a(esp_efuse_table.c.obj)
 .sdata2.V_DIG_DBIAS20
                0x000000003fc89ca4        0x4 esp-idf/efuse/libefuse.a(esp_efuse_table.c.obj)
 .sdata2.V_RTC_DBIAS20
                0x000000003fc89ca8        0x4 esp-idf/efuse/libefuse.a(esp_efuse_table.c.obj)
 .sdata2.WAFER_VERSION
                0x000000003fc89cac        0x4 esp-idf/efuse/libefuse.a(esp_efuse_table.c.obj)
 .sdata2.chip_name
                0x000000003fc89cb0        0x8 esp-idf/spi_flash/libspi_flash.a(spi_flash_chip_generic.c.obj)
 .sdata2.chip_name
                0x000000003fc89cb8        0x5 esp-idf/spi_flash/libspi_flash.a(spi_flash_chip_issi.c.obj)
 *fill*         0x000000003fc89cbd        0x3
 .sdata2.chip_name
                0x000000003fc89cc0        0x5 esp-idf/spi_flash/libspi_flash.a(spi_flash_chip_mxic.c.obj)
 *fill*         0x000000003fc89cc5        0x3
 .sdata2.chip_name
                0x000000003fc89cc8        0x3 esp-idf/spi_flash/libspi_flash.a(spi_flash_chip_gd.c.obj)
 *fill*         0x000000003fc89ccb        0x1
 .sdata2.TAG    0x000000003fc89ccc        0x8 esp-idf/spi_flash/libspi_flash.a(spi_flash_chip_winbond.c.obj)
 .sdata2.chip_name
                0x000000003fc89cd4        0x8 esp-idf/spi_flash/libspi_flash.a(spi_flash_chip_winbond.c.obj)
 .sdata2.chip_name
                0x000000003fc89cdc        0x5 esp-idf/spi_flash/libspi_flash.a(spi_flash_chip_boya.c.obj)
 *fill*         0x000000003fc89ce1        0x3
 .sdata2.TAG    0x000000003fc89ce4        0x7 esp-idf/spi_flash/libspi_flash.a(memspi_host_driver.c.obj)
 *fill*         0x000000003fc89ceb        0x1
 .sdata2.esp_unknown_msg
                0x000000003fc89cec        0x6 esp-idf/esp_common/libesp_common.a(esp_err_to_name.c.obj)
 *fill*         0x000000003fc89cf2        0x2
 .sdata2.g_spi_lock_main_flash_dev
                0x000000003fc89cf4        0x4 esp-idf/driver/libdriver.a(spi_bus_lock.c.obj)
                0x000000003fc89cf4                g_spi_lock_main_flash_dev
 *(.gnu.linkonce.s2.*)
 *(.jcr)
                0x000000003fc89cf8                _esp_system_init_fn_array_start = ABSOLUTE (.)
 *(SORT_BY_NAME(.esp_system_init_fn) SORT_BY_NAME(.esp_system_init_fn.*))
 .esp_system_init_fn.init_components0
                0x000000003fc89cf8        0x8 esp-idf/esp_system/libesp_system.a(startup.c.obj)
                0x000000003fc89d00                _esp_system_init_fn_array_end = ABSOLUTE (.)
 *(EXCLUDE_FILE(*libnimble.a *libbtdm_app.a *libbt.a) .data EXCLUDE_FILE(*libnimble.a *libbtdm_app.a *libbt.a) .data.*)
 .data.s_fd_table
                0x000000003fc89d00       0xc0 esp-idf/vfs/libvfs.a(vfs.c.obj)
 .data.s_context
                0x000000003fc89dc0       0x48 esp-idf/vfs/libvfs.a(vfs_uart.c.obj)
 .data.timestamp_id.4848
                0x000000003fc89e08       0x10 esp-idf/esp_timer/libesp_timer.a(esp_timer_impl_systimer.c.obj)
 .data.s_stub_table
                0x000000003fc89e18       0x9c esp-idf/newlib/libnewlib.a(newlib_init.c.obj)
 .data.uart_context
                0x000000003fc89eb4       0x20 esp-idf/driver/libdriver.a(uart.c.obj)
 .data.default_registered_chips
                0x000000003fc89ed4       0x1c esp-idf/spi_flash/libspi_flash.a(spi_flash_chip_drivers.c.obj)
 *(.dram1 .dram1.*)
 .dram1.24      0x000000003fc89ef0        0x4 esp-idf/freertos/libfreertos.a(FreeRTOS-openocd.c.obj)
                0x000000003fc89ef0                uxTopUsedPriority
 .dram1.27      0x000000003fc89ef4       0x18 esp-idf/spi_flash/libspi_flash.a(flash_ops.c.obj)
                0x000000003fc89ef4                g_flash_guard_default_ops
 .dram1.24      0x000000003fc89f0c       0x10 esp-idf/spi_flash/libspi_flash.a(esp_flash_api.c.obj)
 .dram1.25      0x000000003fc89f1c        0x4 esp-idf/spi_flash/libspi_flash.a(esp_flash_api.c.obj)
                0x000000003fc89f1c                rom_spiflash_api_funcs
 .dram1.25      0x000000003fc89f20       0x24 esp-idf/spi_flash/libspi_flash.a(esp_flash_spi_init.c.obj)
 .dram1.26      0x000000003fc89f44       0x20 esp-idf/spi_flash/libspi_flash.a(esp_flash_spi_init.c.obj)
 .dram1.42      0x000000003fc89f64       0x10 esp-idf/spi_flash/libspi_flash.a(spi_flash_os_func_app.c.obj)
 .dram1.43      0x000000003fc89f74       0x24 esp-idf/spi_flash/libspi_flash.a(spi_flash_os_func_app.c.obj)
 .dram1.5       0x000000003fc89f98       0x24 esp-idf/spi_flash/libspi_flash.a(spi_flash_os_func_noos.c.obj)
                0x000000003fc89f98                esp_flash_noos_functions
 .dram1.0       0x000000003fc89fbc        0x6 esp-idf/spi_flash/libspi_flash.a(spi_flash_chip_generic.c.obj)
 *fill*         0x000000003fc89fc2        0x2
 .dram1.1       0x000000003fc89fc4       0x18 esp-idf/spi_flash/libspi_flash.a(spi_flash_chip_generic.c.obj)
 .dram1.2       0x000000003fc89fdc        0x4 esp-idf/spi_flash/libspi_flash.a(spi_flash_chip_generic.c.obj)
                0x000000003fc89fdc                rom_flash_chip_dummy
 .dram1.3       0x000000003fc89fe0       0x14 esp-idf/spi_flash/libspi_flash.a(spi_flash_chip_generic.c.obj)
                0x000000003fc89fe0                spi_flash_chip_generic_timeout
 .dram1.19      0x000000003fc89ff4       0x58 esp-idf/spi_flash/libspi_flash.a(memspi_host_driver.c.obj)
 .dram1.27      0x000000003fc8a04c        0x6 esp-idf/esp_system/libesp_system.a(task_wdt.c.obj)
 *fill*         0x000000003fc8a052        0x2
 .dram1.28      0x000000003fc8a054        0x6 esp-idf/esp_system/libesp_system.a(task_wdt.c.obj)
 *fill*         0x000000003fc8a05a        0x2
 .dram1.29      0x000000003fc8a05c        0x8 esp-idf/esp_system/libesp_system.a(task_wdt.c.obj)
 .dram1.30      0x000000003fc8a064       0x19 esp-idf/esp_system/libesp_system.a(task_wdt.c.obj)
                0x000000003fc8a07d                _coredump_dram_start = ABSOLUTE (.)
 *(.dram1.coredump .dram1.coredump.*)
                0x000000003fc8a07d                _coredump_dram_end = ABSOLUTE (.)
 *libapp_trace.a:app_trace.*(.rodata .rodata.*)
 *libapp_trace.a:app_trace_util.*(.rodata .rodata.*)
                0x000000003fc8a07d                _bt_data_start = ABSOLUTE (.)
 *libbt.a:(.data .data.*)
                0x000000003fc8a080                . = ALIGN (0x4)
 *fill*         0x000000003fc8a07d        0x3
                0x000000003fc8a080                _bt_data_end = ABSOLUTE (.)
                0x000000003fc8a080                _btdm_data_start = ABSOLUTE (.)
 *libbtdm_app.a:(.data .data.*)
                0x000000003fc8a080                . = ALIGN (0x4)
                0x000000003fc8a080                _btdm_data_end = ABSOLUTE (.)
 *libesp_hw_support.a:rtc_clk.*(.rodata .rodata.*)
 .rodata.rtc_clk_cpu_freq_get_config.str1.4
                0x000000003fc8a080       0x3b esp-idf/esp_hw_support/libesp_hw_support.a(rtc_clk.c.obj)
 *fill*         0x000000003fc8a0bb        0x1
 .rodata.rtc_clk_cpu_freq_to_pll_mhz.str1.4
                0x000000003fc8a0bc       0x29 esp-idf/esp_hw_support/libesp_hw_support.a(rtc_clk.c.obj)
 *fill*         0x000000003fc8a0e5        0x3
 .rodata.rtc_clk_xtal_freq_get.str1.4
                0x000000003fc8a0e8       0x47 esp-idf/esp_hw_support/libesp_hw_support.a(rtc_clk.c.obj)
 *libesp_system.a:esp_err.*(.rodata .rodata.*)
 *fill*         0x000000003fc8a12f        0x1
 .rodata._esp_error_check_failed.str1.4
                0x000000003fc8a130       0x10 esp-idf/esp_system/libesp_system.a(esp_err.c.obj)
 .rodata.esp_error_check_failed_print.str1.4
                0x000000003fc8a140       0x5c esp-idf/esp_system/libesp_system.a(esp_err.c.obj)
 *libesp_system.a:ubsan.*(.rodata .rodata.*)
 *libgcc.a:_divsf3.*(.rodata .rodata.*)
 *libgcov.a:(.rodata .rodata.*)
 *libhal.a:cpu_hal.*(.rodata .rodata.*)
 *libhal.a:i2c_hal_iram.*(.rodata .rodata.*)
 *libhal.a:ledc_hal_iram.*(.rodata .rodata.*)
 *libhal.a:soc_hal.*(.rodata .rodata.*)
 *libhal.a:spi_flash_encrypt_hal_iram.*(.rodata .rodata.*)
 *libhal.a:spi_flash_hal_gpspi.*(.rodata .rodata.*)
 *libhal.a:spi_flash_hal_iram.*(.rodata .rodata.*)
 *libhal.a:spi_hal_iram.*(.rodata .rodata.*)
 *libhal.a:spi_slave_hal_iram.*(.rodata .rodata.*)
 *libhal.a:systimer_hal.*(.rodata .rodata.*)
 .rodata.systimer_hal_set_alarm_period.str1.4
                0x000000003fc8a19c       0x55 esp-idf/hal/libhal.a(systimer_hal.c.obj)
 *libhal.a:wdt_hal_iram.*(.rodata .rodata.*)
 *libheap.a:heap_tlsf.*(.rodata .rodata.*)
 *fill*         0x000000003fc8a1f1        0x3
 .rodata.__func__.3670
                0x000000003fc8a1f4       0x16 esp-idf/heap/libheap.a(heap_tlsf.c.obj)
 *fill*         0x000000003fc8a20a        0x2
 .rodata.__func__.3679
                0x000000003fc8a20c       0x12 esp-idf/heap/libheap.a(heap_tlsf.c.obj)
 *fill*         0x000000003fc8a21e        0x2
 .rodata.__func__.3687
                0x000000003fc8a220       0x12 esp-idf/heap/libheap.a(heap_tlsf.c.obj)
 *fill*         0x000000003fc8a232        0x2
 .rodata.__func__.3710
                0x000000003fc8a234        0xc esp-idf/heap/libheap.a(heap_tlsf.c.obj)
 .rodata.__func__.3715
                0x000000003fc8a240        0xd esp-idf/heap/libheap.a(heap_tlsf.c.obj)
 *fill*         0x000000003fc8a24d        0x3
 .rodata.__func__.3721
                0x000000003fc8a250       0x11 esp-idf/heap/libheap.a(heap_tlsf.c.obj)
 *fill*         0x000000003fc8a261        0x3
 .rodata.__func__.3727
                0x000000003fc8a264       0x11 esp-idf/heap/libheap.a(heap_tlsf.c.obj)
 *fill*         0x000000003fc8a275        0x3
 .rodata.__func__.3733
                0x000000003fc8a278       0x10 esp-idf/heap/libheap.a(heap_tlsf.c.obj)
 .rodata.__func__.3740
                0x000000003fc8a288       0x10 esp-idf/heap/libheap.a(heap_tlsf.c.obj)
 .rodata.__func__.3755
                0x000000003fc8a298       0x12 esp-idf/heap/libheap.a(heap_tlsf.c.obj)
 *fill*         0x000000003fc8a2aa        0x2
 .rodata.__func__.3762
                0x000000003fc8a2ac       0x13 esp-idf/heap/libheap.a(heap_tlsf.c.obj)
 *fill*         0x000000003fc8a2bf        0x1
 .rodata.__func__.3925
                0x000000003fc8a2c0        0xa esp-idf/heap/libheap.a(heap_tlsf.c.obj)
 *fill*         0x000000003fc8a2ca        0x2
 .rodata.__func__.3938
                0x000000003fc8a2cc        0xd esp-idf/heap/libheap.a(heap_tlsf.c.obj)
 *fill*         0x000000003fc8a2d9        0x3
 .rodata.default_walker.str1.4
                0x000000003fc8a2dc       0x26 esp-idf/heap/libheap.a(heap_tlsf.c.obj)
 *fill*         0x000000003fc8a302        0x2
 .rodata.integrity_walker.str1.4
                0x000000003fc8a304       0x96 esp-idf/heap/libheap.a(heap_tlsf.c.obj)
 *fill*         0x000000003fc8a39a        0x2
 .rodata.tlsf_add_pool.str1.4
                0x000000003fc8a39c      0x142 esp-idf/heap/libheap.a(heap_tlsf.c.obj)
 *fill*         0x000000003fc8a4de        0x2
 .rodata.tlsf_create.str1.4
                0x000000003fc8a4e0       0x32 esp-idf/heap/libheap.a(heap_tlsf.c.obj)
 *fill*         0x000000003fc8a512        0x2
 .rodata.tlsf_free.str1.4
                0x000000003fc8a514      0x148 esp-idf/heap/libheap.a(heap_tlsf.c.obj)
 .rodata.tlsf_malloc.str1.4
                0x000000003fc8a65c      0x1a7 esp-idf/heap/libheap.a(heap_tlsf.c.obj)
 *fill*         0x000000003fc8a803        0x1
 .rodata.tlsf_realloc.str1.4
                0x000000003fc8a804       0x2e esp-idf/heap/libheap.a(heap_tlsf.c.obj)
 *fill*         0x000000003fc8a832        0x2
 .rodata.tlsf_remove_pool.str1.4
                0x000000003fc8a834       0xe6 esp-idf/heap/libheap.a(heap_tlsf.c.obj)
 *libheap.a:multi_heap.*(.rodata .rodata.*)
 *fill*         0x000000003fc8a91a        0x2
 .rodata.__func__.4519
                0x000000003fc8a91c       0x19 esp-idf/heap/libheap.a(multi_heap.c.obj)
 *fill*         0x000000003fc8a935        0x3
 .rodata.__func__.4560
                0x000000003fc8a938       0x18 esp-idf/heap/libheap.a(multi_heap.c.obj)
 .rodata.assert_valid_block.str1.4
                0x000000003fc8a950       0x32 esp-idf/heap/libheap.a(multi_heap.c.obj)
 *fill*         0x000000003fc8a982        0x2
 .rodata.multi_heap_get_first_block.str1.4
                0x000000003fc8a984        0xd esp-idf/heap/libheap.a(multi_heap.c.obj)
 *fill*         0x000000003fc8a991        0x3
 .rodata.multi_heap_register_impl.str1.4
                0x000000003fc8a994       0x2d esp-idf/heap/libheap.a(multi_heap.c.obj)
 *libnewlib.a:abort.*(.rodata .rodata.*)
 *fill*         0x000000003fc8a9c1        0x3
 .rodata.abort.str1.4
                0x000000003fc8a9c4       0x26 esp-idf/newlib/libnewlib.a(abort.c.obj)
 *libnewlib.a:heap.*(.rodata .rodata.*)
 *libnewlib.a:stdatomic.*(.rodata .rodata.*)
                0x000000003fc8a9ea                _nimble_data_start = ABSOLUTE (.)
 *libnimble.a:(.data .data.*)
                0x000000003fc8a9ec                . = ALIGN (0x4)
 *fill*         0x000000003fc8a9ea        0x2
                0x000000003fc8a9ec                _nimble_data_end = ABSOLUTE (.)
 *libphy.a:(.rodata .rodata.*)
 *libsoc.a:lldesc.*(.rodata .rodata.*)
 *libspi_flash.a:memspi_host_driver.*(.rodata .rodata.*)
 .rodata.__func__.5409
                0x000000003fc8a9ec       0x19 esp-idf/spi_flash/libspi_flash.a(memspi_host_driver.c.obj)
 *fill*         0x000000003fc8aa05        0x3
 .rodata.__func__.5415
                0x000000003fc8aa08       0x18 esp-idf/spi_flash/libspi_flash.a(memspi_host_driver.c.obj)
 .rodata.__func__.5423
                0x000000003fc8aa20       0x19 esp-idf/spi_flash/libspi_flash.a(memspi_host_driver.c.obj)
 *fill*         0x000000003fc8aa39        0x3
 .rodata.esp_flash_gpspi_host
                0x000000003fc8aa3c       0x58 esp-idf/spi_flash/libspi_flash.a(memspi_host_driver.c.obj)
 .rodata.memspi_host_erase_sector.str1.4
                0x000000003fc8aa94       0x4a esp-idf/spi_flash/libspi_flash.a(memspi_host_driver.c.obj)
 *fill*         0x000000003fc8aade        0x2
 .rodata.memspi_host_program_page.str1.4
                0x000000003fc8aae0       0x1e esp-idf/spi_flash/libspi_flash.a(memspi_host_driver.c.obj)
 *fill*         0x000000003fc8aafe        0x2
 .rodata.memspi_host_read_id_hs.str1.4
                0x000000003fc8ab00       0x24 esp-idf/spi_flash/libspi_flash.a(memspi_host_driver.c.obj)
 *libspi_flash.a:spi_flash_chip_boya.*(.rodata .rodata.*)
 .rodata.esp_flash_chip_boya
                0x000000003fc8ab24       0x78 esp-idf/spi_flash/libspi_flash.a(spi_flash_chip_boya.c.obj)
                0x000000003fc8ab24                esp_flash_chip_boya
 *libspi_flash.a:spi_flash_chip_gd.*(.rodata .rodata.*)
 .rodata.esp_flash_chip_gd
                0x000000003fc8ab9c       0x78 esp-idf/spi_flash/libspi_flash.a(spi_flash_chip_gd.c.obj)
                0x000000003fc8ab9c                esp_flash_chip_gd
 *libspi_flash.a:spi_flash_chip_generic.*(.rodata .rodata.*)
 .rodata.TAG    0x000000003fc8ac14        0xd esp-idf/spi_flash/libspi_flash.a(spi_flash_chip_generic.c.obj)
 *fill*         0x000000003fc8ac21        0x3
 .rodata.__func__.4205
                0x000000003fc8ac24       0x29 esp-idf/spi_flash/libspi_flash.a(spi_flash_chip_generic.c.obj)
 *fill*         0x000000003fc8ac4d        0x3
 .rodata.esp_flash_chip_generic
                0x000000003fc8ac50       0x78 esp-idf/spi_flash/libspi_flash.a(spi_flash_chip_generic.c.obj)
                0x000000003fc8ac50                esp_flash_chip_generic
 .rodata.spi_flash_chip_generic_get_write_protect.str1.4
                0x000000003fc8acc8       0x4a esp-idf/spi_flash/libspi_flash.a(spi_flash_chip_generic.c.obj)
 *fill*         0x000000003fc8ad12        0x2
 .rodata.spi_flash_chip_generic_read.str1.4
                0x000000003fc8ad14       0x43 esp-idf/spi_flash/libspi_flash.a(spi_flash_chip_generic.c.obj)
 *fill*         0x000000003fc8ad57        0x1
 .rodata.spi_flash_chip_generic_read_unique_id.str1.4
                0x000000003fc8ad58       0x52 esp-idf/spi_flash/libspi_flash.a(spi_flash_chip_generic.c.obj)
 *fill*         0x000000003fc8adaa        0x2
 .rodata.spi_flash_chip_generic_suspend_cmd_conf.str1.4
                0x000000003fc8adac       0x5f esp-idf/spi_flash/libspi_flash.a(spi_flash_chip_generic.c.obj)
 *libspi_flash.a:spi_flash_chip_issi.*(.rodata .rodata.*)
 *fill*         0x000000003fc8ae0b        0x1
 .rodata.esp_flash_chip_issi
                0x000000003fc8ae0c       0x78 esp-idf/spi_flash/libspi_flash.a(spi_flash_chip_issi.c.obj)
                0x000000003fc8ae0c                esp_flash_chip_issi
 *libspi_flash.a:spi_flash_chip_mxic.*(.rodata .rodata.*)
 .rodata.esp_flash_chip_mxic
                0x000000003fc8ae84       0x78 esp-idf/spi_flash/libspi_flash.a(spi_flash_chip_mxic.c.obj)
                0x000000003fc8ae84                esp_flash_chip_mxic
 .rodata.spi_flash_chip_mxic_read_unique_id.str1.4
                0x000000003fc8aefc       0x41 esp-idf/spi_flash/libspi_flash.a(spi_flash_chip_mxic.c.obj)
 *libspi_flash.a:spi_flash_chip_winbond.*(.rodata .rodata.*)
 *fill*         0x000000003fc8af3d        0x3
 .rodata.esp_flash_chip_winbond
                0x000000003fc8af40       0x78 esp-idf/spi_flash/libspi_flash.a(spi_flash_chip_winbond.c.obj)
                0x000000003fc8af40                esp_flash_chip_winbond
 .rodata.spi_flash_chip_winbond_read.str1.4
                0x000000003fc8afb8       0x43 esp-idf/spi_flash/libspi_flash.a(spi_flash_chip_winbond.c.obj)
 *libspi_flash.a:spi_flash_rom_patch.*(.rodata .rodata.*)
                0x000000003fc8afb8                _data_end = ABSOLUTE (.)
                0x000000003fc8affc                . = ALIGN (0x4)

.noinit         0x000000003fc8afb8        0x0
                0x000000003fc8afb8                . = ALIGN (0x4)
                0x000000003fc8afb8                _noinit_start = ABSOLUTE (.)
 *(.noinit .noinit.*)
                0x000000003fc8afb8                . = ALIGN (0x4)
                0x000000003fc8afb8                _noinit_end = ABSOLUTE (.)

.dram0.bss      0x000000003fc8afc0      0xe50
                0x000000003fc8afc0                . = ALIGN (0x8)
                0x000000003fc8afc0                _bss_start = ABSOLUTE (.)
 *(.bss .bss.*)
 .bss.shutdown_handlers
                0x000000003fc8afc0       0x14 esp-idf/esp_system/libesp_system.a(esp_system.c.obj)
 .bss.s_vfs     0x000000003fc8afd4       0x20 esp-idf/vfs/libvfs.a(vfs.c.obj)
 .bss.s_log_cache
                0x000000003fc8aff4       0xf8 esp-idf/log/liblog.a(log.c.obj)
 .bss.s_intr_handlers
                0x000000003fc8b0ec      0x100 esp-idf/riscv/libriscv.a(interrupt.c.obj)
 *fill*         0x000000003fc8b1ec        0x4
 .bss.xIsrStack
                0x000000003fc8b1f0      0x600 esp-idf/freertos/libfreertos.a(port.c.obj)
 .bss.pxReadyTasksLists
                0x000000003fc8b7f0      0x1f4 esp-idf/freertos/libfreertos.a(tasks.c.obj)
 .bss.xDelayedTaskList1
                0x000000003fc8b9e4       0x14 esp-idf/freertos/libfreertos.a(tasks.c.obj)
 .bss.xDelayedTaskList2
                0x000000003fc8b9f8       0x14 esp-idf/freertos/libfreertos.a(tasks.c.obj)
 .bss.xPendingReadyList
                0x000000003fc8ba0c       0x14 esp-idf/freertos/libfreertos.a(tasks.c.obj)
 .bss.xSuspendedTaskList
                0x000000003fc8ba20       0x14 esp-idf/freertos/libfreertos.a(tasks.c.obj)
 .bss.xTasksWaitingTermination
                0x000000003fc8ba34       0x14 esp-idf/freertos/libfreertos.a(tasks.c.obj)
 .bss.s_common_mutex
                0x000000003fc8ba48       0x54 esp-idf/newlib/libnewlib.a(locks.c.obj)
                0x000000003fc8ba48                __lock___at_quick_exit_mutex
                0x000000003fc8ba48                __lock___tz_mutex
                0x000000003fc8ba48                __lock___arc4random_mutex
                0x000000003fc8ba48                __lock___dd_hash_mutex
 .bss.s_common_recursive_mutex
                0x000000003fc8ba9c       0x54 esp-idf/newlib/libnewlib.a(locks.c.obj)
                0x000000003fc8ba9c                __lock___atexit_recursive_mutex
                0x000000003fc8ba9c                __lock___sinit_recursive_mutex
                0x000000003fc8ba9c                __lock___sfp_recursive_mutex
                0x000000003fc8ba9c                __lock___env_recursive_mutex
                0x000000003fc8ba9c                __lock___malloc_recursive_mutex
 .bss.s_reent   0x000000003fc8baf0       0xf0 esp-idf/newlib/libnewlib.a(newlib_init.c.obj)
 .bss.ref_counts
                0x000000003fc8bbe0       0x1b esp-idf/driver/libdriver.a(periph_ctrl.c.obj)
 *fill*         0x000000003fc8bbfb        0x1
 .bss.s_mmap_page_refcnt
                0x000000003fc8bbfc       0x80 esp-idf/spi_flash/libspi_flash.a(flash_mmap.c.obj)
 .bss.idle_cb   0x000000003fc8bc7c       0x20 esp-idf/esp_system/libesp_system.a(freertos_hooks.c.obj)
 .bss.tick_cb   0x000000003fc8bc9c       0x20 esp-idf/esp_system/libesp_system.a(freertos_hooks.c.obj)
 *(.dynbss .dynsbss .gnu.linkonce.b .gnu.linkonce.b.* .gnu.linkonce.sb .gnu.linkonce.sb.* .gnu.linkonce.sb2 .gnu.linkonce.sb2.* .sbss .sbss.* .sbss2 .sbss2.* .scommon .share.mem)
 .sbss.s_app_elf_sha256.3865
                0x000000003fc8bcbc        0x8 esp-idf/app_update/libapp_update.a(esp_app_desc.c.obj)
 .sbss.s_pthread_cfg_key
                0x000000003fc8bcc4        0x4 esp-idf/pthread/libpthread.a(pthread.c.obj)
 .sbss.s_threads_mux
                0x000000003fc8bcc8        0x4 esp-idf/pthread/libpthread.a(pthread.c.obj)
 .sbss.s_keys   0x000000003fc8bccc        0x4 esp-idf/pthread/libpthread.a(pthread_local_storage.c.obj)
                0x000000003fc8bccc                s_keys
 .sbss.g_startup_time
                0x000000003fc8bcd0        0x8 esp-idf/esp_system/libesp_system.a(startup.c.obj)
                0x000000003fc8bcd0                g_startup_time
 .sbss.g_panic_abort
                0x000000003fc8bcd8        0x1 esp-idf/esp_system/libesp_system.a(panic.c.obj)
                0x000000003fc8bcd8                g_panic_abort
 *fill*         0x000000003fc8bcd9        0x3
 .sbss.s_panic_abort_details
                0x000000003fc8bcdc        0x4 esp-idf/esp_system/libesp_system.a(panic.c.obj)
 .sbss.g_exc_frames
                0x000000003fc8bce0        0x4 esp-idf/esp_system/libesp_system.a(panic_handler.c.obj)
                0x000000003fc8bce0                g_exc_frames
 .sbss.s_fd_table_lock
                0x000000003fc8bce4        0x4 esp-idf/vfs/libvfs.a(vfs.c.obj)
 .sbss.s_vfs_count
                0x000000003fc8bce8        0x4 esp-idf/vfs/libvfs.a(vfs.c.obj)
 .sbss.s_registered_select_num
                0x000000003fc8bcec        0x4 esp-idf/vfs/libvfs.a(vfs_uart.c.obj)
 .sbss.s_registered_selects
                0x000000003fc8bcf0        0x4 esp-idf/vfs/libvfs.a(vfs_uart.c.obj)
 .sbss.s_log_cache_entry_count
                0x000000003fc8bcf4        0x4 esp-idf/log/liblog.a(log.c.obj)
 .sbss.s_log_cache_max_generation
                0x000000003fc8bcf8        0x4 esp-idf/log/liblog.a(log.c.obj)
 .sbss.s_log_cache_misses
                0x000000003fc8bcfc        0x4 esp-idf/log/liblog.a(log.c.obj)
 .sbss.s_log_tags
                0x000000003fc8bd00        0x4 esp-idf/log/liblog.a(log.c.obj)
 .sbss.base.4878
                0x000000003fc8bd04        0x4 esp-idf/log/liblog.a(log_freertos.c.obj)
 .sbss.s_log_mutex
                0x000000003fc8bd08        0x4 esp-idf/log/liblog.a(log_freertos.c.obj)
 .sbss.alloc_failed_callback
                0x000000003fc8bd0c        0x4 esp-idf/heap/libheap.a(heap_caps.c.obj)
 .sbss.s_esp_rtc_time_lock
                0x000000003fc8bd10        0x4 esp-idf/esp_hw_support/libesp_hw_support.a(esp_clk.c.obj)
 .sbss.non_iram_int_disabled
                0x000000003fc8bd14        0x4 esp-idf/esp_hw_support/libesp_hw_support.a(intr_alloc.c.obj)
 .sbss.non_iram_int_disabled_flag
                0x000000003fc8bd18        0x1 esp-idf/esp_hw_support/libesp_hw_support.a(intr_alloc.c.obj)
 *fill*         0x000000003fc8bd19        0x3
 .sbss.non_iram_int_mask
                0x000000003fc8bd1c        0x4 esp-idf/esp_hw_support/libesp_hw_support.a(intr_alloc.c.obj)
 .sbss.vector_desc_head
                0x000000003fc8bd20        0x4 esp-idf/esp_hw_support/libesp_hw_support.a(intr_alloc.c.obj)
 .sbss.s_cur_pll_freq
                0x000000003fc8bd24        0x4 esp-idf/esp_hw_support/libesp_hw_support.a(rtc_clk.c.obj)
 .sbss.s_timer_task
                0x000000003fc8bd28        0x4 esp-idf/esp_timer/libesp_timer.a(esp_timer.c.obj)
 .sbss.s_timers
                0x000000003fc8bd2c        0x4 esp-idf/esp_timer/libesp_timer.a(esp_timer.c.obj)
 .sbss.s_correction_us
                0x000000003fc8bd30        0x8 esp-idf/esp_timer/libesp_timer.a(system_time.c.obj)
 .sbss.s_alarm_handler
                0x000000003fc8bd38        0x4 esp-idf/esp_timer/libesp_timer.a(esp_timer_impl_systimer.c.obj)
 .sbss.s_timer_interrupt_handle
                0x000000003fc8bd3c        0x4 esp-idf/esp_timer/libesp_timer.a(esp_timer_impl_systimer.c.obj)
 .sbss.systimer_hal
                0x000000003fc8bd40        0x4 esp-idf/esp_timer/libesp_timer.a(esp_timer_impl_systimer.c.obj)
 .sbss.uxCriticalNesting
                0x000000003fc8bd44        0x4 esp-idf/freertos/libfreertos.a(port.c.obj)
 .sbss.uxInterruptNesting
                0x000000003fc8bd48        0x4 esp-idf/freertos/libfreertos.a(port.c.obj)
                0x000000003fc8bd48                uxInterruptNesting
 .sbss.uxSavedInterruptState
                0x000000003fc8bd4c        0x4 esp-idf/freertos/libfreertos.a(port.c.obj)
 .sbss.uxSchedulerRunning
                0x000000003fc8bd50        0x4 esp-idf/freertos/libfreertos.a(port.c.obj)
                0x000000003fc8bd50                uxSchedulerRunning
 .sbss.xPortSwitchFlag
                0x000000003fc8bd54        0x4 esp-idf/freertos/libfreertos.a(port.c.obj)
                0x000000003fc8bd54                xPortSwitchFlag
 .sbss.s_handled_systicks
                0x000000003fc8bd58        0x4 esp-idf/freertos/libfreertos.a(port_systick.c.obj)
 .sbss.systimer_hal.5114
                0x000000003fc8bd5c        0x4 esp-idf/freertos/libfreertos.a(port_systick.c.obj)
 .sbss.pxCurrentTCB
                0x000000003fc8bd60        0x4 esp-idf/freertos/libfreertos.a(tasks.c.obj)
                0x000000003fc8bd60                pxCurrentTCB
 .sbss.pxDelayedTaskList
                0x000000003fc8bd64        0x4 esp-idf/freertos/libfreertos.a(tasks.c.obj)
 .sbss.pxOverflowDelayedTaskList
                0x000000003fc8bd68        0x4 esp-idf/freertos/libfreertos.a(tasks.c.obj)
 .sbss.uxCurrentNumberOfTasks
                0x000000003fc8bd6c        0x4 esp-idf/freertos/libfreertos.a(tasks.c.obj)
 .sbss.uxDeletedTasksWaitingCleanUp
                0x000000003fc8bd70        0x4 esp-idf/freertos/libfreertos.a(tasks.c.obj)
 .sbss.uxSchedulerSuspended
                0x000000003fc8bd74        0x4 esp-idf/freertos/libfreertos.a(tasks.c.obj)
 .sbss.uxTaskNumber
                0x000000003fc8bd78        0x4 esp-idf/freertos/libfreertos.a(tasks.c.obj)
 .sbss.uxTopReadyPriority
                0x000000003fc8bd7c        0x4 esp-idf/freertos/libfreertos.a(tasks.c.obj)
 .sbss.xIdleTaskHandle
                0x000000003fc8bd80        0x4 esp-idf/freertos/libfreertos.a(tasks.c.obj)
 .sbss.xNextTaskUnblockTime
                0x000000003fc8bd84        0x4 esp-idf/freertos/libfreertos.a(tasks.c.obj)
 .sbss.xNumOfOverflows
                0x000000003fc8bd88        0x4 esp-idf/freertos/libfreertos.a(tasks.c.obj)
 .sbss.xPendedTicks
                0x000000003fc8bd8c        0x4 esp-idf/freertos/libfreertos.a(tasks.c.obj)
 .sbss.xSchedulerRunning
                0x000000003fc8bd90        0x4 esp-idf/freertos/libfreertos.a(tasks.c.obj)
 .sbss.xSwitchingContext
                0x000000003fc8bd94        0x4 esp-idf/freertos/libfreertos.a(tasks.c.obj)
 .sbss.xTickCount
                0x000000003fc8bd98        0x4 esp-idf/freertos/libfreertos.a(tasks.c.obj)
 .sbss.xYieldPending
                0x000000003fc8bd9c        0x4 esp-idf/freertos/libfreertos.a(tasks.c.obj)
 .sbss.s_adjtime_start_us
                0x000000003fc8bda0        0x8 esp-idf/newlib/libnewlib.a(time.c.obj)
 .sbss.s_adjtime_total_correction_us
                0x000000003fc8bda8        0x8 esp-idf/newlib/libnewlib.a(time.c.obj)
 .sbss.s_time_lock
                0x000000003fc8bdb0        0x4 esp-idf/newlib/libnewlib.a(time.c.obj)
 .sbss.s_boot_time_lock
                0x000000003fc8bdb4        0x4 esp-idf/newlib/libnewlib.a(esp_time_impl.c.obj)
 .sbss.s_microseconds_offset
                0x000000003fc8bdb8        0x8 esp-idf/newlib/libnewlib.a(esp_time_impl.c.obj)
                0x000000003fc8bdb8                s_microseconds_offset
 .sbss.s_burn_counter
                0x000000003fc8bdc0        0x4 esp-idf/efuse/libefuse.a(esp_efuse_utility.c.obj)
 .sbss.p_uart_obj
                0x000000003fc8bdc4        0x8 esp-idf/driver/libdriver.a(uart.c.obj)
 .sbss.s_flash_op_cache_state
                0x000000003fc8bdcc        0x8 esp-idf/spi_flash/libspi_flash.a(cache_utils.c.obj)
 .sbss.s_mmap_entries_head
                0x000000003fc8bdd4        0x4 esp-idf/spi_flash/libspi_flash.a(flash_mmap.c.obj)
 .sbss.s_mmap_last_handle
                0x000000003fc8bdd8        0x4 esp-idf/spi_flash/libspi_flash.a(flash_mmap.c.obj)
 .sbss.s_flash_guard_ops
                0x000000003fc8bddc        0x4 esp-idf/spi_flash/libspi_flash.a(flash_ops.c.obj)
 .sbss.esp_flash_default_chip
                0x000000003fc8bde0        0x4 esp-idf/spi_flash/libspi_flash.a(esp_flash_spi_init.c.obj)
                0x000000003fc8bde0                esp_flash_default_chip
 .sbss.s_partition_list
                0x000000003fc8bde4        0x4 esp-idf/spi_flash/libspi_flash.a(partition.c.obj)
 .sbss.s_partition_list_lock
                0x000000003fc8bde8        0x4 esp-idf/spi_flash/libspi_flash.a(partition.c.obj)
 .sbss.reason   0x000000003fc8bdec        0x4 esp-idf/esp_system/libesp_system.a(crosscore_int.c.obj)
 .sbss.iwdt_context
                0x000000003fc8bdf0        0x8 esp-idf/esp_system/libesp_system.a(int_wdt.c.obj)
 .sbss.twdt_config
                0x000000003fc8bdf8        0x4 esp-idf/esp_system/libesp_system.a(task_wdt.c.obj)
 .sbss.twdt_context
                0x000000003fc8bdfc        0x8 esp-idf/esp_system/libesp_system.a(task_wdt.c.obj)
 .sbss.curr_partition.5071
                0x000000003fc8be04        0x4 esp-idf/app_update/libapp_update.a(esp_ota_ops.c.obj)
 .sbss          0x000000003fc8be08        0x4 /home/xy/.espressif/tools/riscv32-esp-elf/esp-2021r1-8.4.0/riscv32-esp-elf/bin/../lib/gcc/riscv32-esp-elf/8.4.0/../../../../riscv32-esp-elf/lib/rv32im/ilp32\libc.a(lib_a-environ.o)
                0x000000003fc8be08                environ
 *(.ext_ram.bss .ext_ram.bss.*)
 *(COMMON)
 COMMON         0x000000003fc8be0c        0x4 esp-idf/heap/libheap.a(heap_caps_init.c.obj)
                0x000000003fc8be0c                registered_heaps
                0x000000003fc8be10                _bt_bss_start = ABSOLUTE (.)
 *libbt.a:(.bss .bss.* COMMON)
                0x000000003fc8be10                . = ALIGN (0x4)
                0x000000003fc8be10                _bt_bss_end = ABSOLUTE (.)
                0x000000003fc8be10                _btdm_bss_start = ABSOLUTE (.)
 *libbtdm_app.a:(.bss .bss.* COMMON)
                0x000000003fc8be10                . = ALIGN (0x4)
                0x000000003fc8be10                _btdm_bss_end = ABSOLUTE (.)
                0x000000003fc8be10                _nimble_bss_start = ABSOLUTE (.)
 *libnimble.a:(.bss .bss.* COMMON)
                0x000000003fc8be10                . = ALIGN (0x4)
                0x000000003fc8be10                _nimble_bss_end = ABSOLUTE (.)
 *(.dynsbss)
 *(.sbss)
 *(.sbss.*)
 *(.gnu.linkonce.sb.*)
 *(.scommon)
 *(.sbss2)
 *(.sbss2.*)
 *(.gnu.linkonce.sb2.*)
 *(.dynbss)
 *(.share.mem)
 *(.gnu.linkonce.b.*)
                0x000000003fc8be10                . = ALIGN (0x8)
                0x000000003fc8be10                _bss_end = ABSOLUTE (.)
                0x0000000000000001                ASSERT (((_bss_end - ORIGIN (dram0_0_seg)) <= LENGTH (dram0_0_seg)), DRAM segment data does not fit.)

.flash.text     0x0000000042000020    0x16120
                0x0000000042000020                _stext = .
                0x0000000042000020                _instruction_reserved_start = ABSOLUTE (.)
                0x0000000042000020                _text_start = ABSOLUTE (.)
